:100000000C9474000C9493000C9493000C94EA00EC
:100010000C9493000C9493000C9493000C94930014
:100020000C9493000C9493000C9493000C94930004
:100030000C9493000C9493000C9493000C949300F4
:100040000C9493000C9493000C9493000C949300E4
:100050000C9493000C9493000C9493000C949300D4
:100060000C9493000C9493000C9493000C94D10581
:100070000C9493000C9493000C9493000C949A00AD
:100080000C9493000C94C2000C9493000C94930075
:100090000C9493000C9493000C9493000C94930094
:1000A0000C9493000C9493000C9493000C94930084
:1000B0000C9493000C9493000C9493000C94930074
:1000C0000C9493000C9493000C9493000C94930064
:1000D0000C9493000C9493000C9493000C94930054
:1000E0000C9493000C94930011241FBECFEFCDBF4E
:1000F000DFE7DEBF11E4A0E0B0E4EEE7FAE200E003
:100100000BBF02C007900D92A831B107D9F722E4C6
:10011000A8E1B1E401C01D92A137B207E1F70E9446
:1001200096010C943D150C9400000E944A060E9412
:10013000010508951F920F920FB60F9211240BB66E
:100140000F922F933F934F935F936F937F938F9370
:100150009F93AF93BF93EF93FF930E94E004FF91AF
:10016000EF91BF91AF919F918F917F916F915F912F
:100170004F913F912F910F900BBE0F900FBE0F909C
:100180001F9018951F920F920FB60F9211240BB665
:100190000F922F933F934F935F936F937F938F9320
:1001A0009F93AF93BF93EF93FF930E94C204FF917D
:1001B000EF91BF91AF919F918F917F916F915F91DF
:1001C0004F913F912F910F900BBE0F900FBE0F904C
:1001D0001F9018951F920F920FB60F9211240BB615
:1001E0000F922F933F934F935F936F937F938F93D0
:1001F0009F93AF93BF93EF93FF930E94B00582E06C
:1002000080934301FF91EF91BF91AF919F918F91A7
:100210007F916F915F914F913F912F910F900BBE06
:100220000F900FBE0F901F90189580E090E00E94F5
:10023000C20580788093184181E090E00E94C20559
:1002400080788093184182E090E00E94C205807817
:100250008093184183E090E00E94C20580788093EB
:10026000184184E090E00E94C20580788093184194
:1002700085E090E00E94C20580788093184108953F
:100280000E946D0580914441813021F410924441D7
:100290000E9415010895CF92DF92EF92FF92CF93C3
:1002A000DF932CE02093860421E02093A6046B01C9
:1002B0007C01FF2487E190E0A0E8B4E034E0E0EACC
:1002C000F4E0B701A601082E04C07695679557950E
:1002D00047950A94D2F740FF04C015963C931597B2
:1002E00003C016963C9316972583CBE2D1E0219765
:1002F000F1F700C000002683CBE2D1E02197F1F7AF
:1003000000C000000197E8F6E0E8F4E088E08583AB
:10031000ABE2B1E01197F1F700C000008683DF91F6
:10032000CF91FF90EF90DF90CF9008950E949500BD
:100330008CE08093800481E08093A004C0E0D0E052
:10034000C12CD12C7601C394C701B6010C2E04C078
:10035000660F771F881F991F0A94D2F70E944B01DE
:100360008FE799EA23E0815090402040E1F700C0F8
:1003700000002196C831D10539F70E944001FDCF18
:100380000F931F93CF93DF9380911B41811118C06E
:10039000E8E0F0E481E090E000909D4002C0880F2A
:1003A000991F0A94E2F78283ACE2B0E419968C912B
:1003B000199783838C91848381E080931B416FC064
:1003C00080914041882309F46AC020910A40422F5D
:1003D00050E081E090E000909D4002C0880F991F9E
:1003E0000A94E2F799274817590709F4DEC047E055
:1003F00050E030E061E070E0CB01042E02C0880FD5
:10040000991F0A94E2F7822319F027E0231B05C005
:100410003F5F41505109383079F7273008F026E026
:10042000C8E0D0E481E0022E01C0880F0A94EAF708
:100430008A83EEE4F0E420939D402093B140209322
:10044000C540238B27A323AF0E9401058B81909188
:100450003540891709F4B0C0ECE2F0E48187848765
:10046000878780910C4090912C40891729F0ECE20D
:10047000F0E480838383868380911140E09115406E
:10048000F09116409681292F22952F70821729F01E
:100490009F708295807F892B8683109240411092B5
:1004A0003A41A0911340B09114408C9180FF03C059
:1004B00081E080933A4180911A41EAE3F1E490812E
:1004C000982B9083805F80931A4113962D913C91D5
:1004D0001497C901929582958F7089279F708927FB
:1004E000818317968D919C911897AC0152954295F6
:1004F0004F7045275F70452742832295207F8F707C
:10050000822B838324E331E4E9E3F2E4C8E2D1E41B
:100510000CE111E480E08330B8F444A155A1DA0184
:1005200011964D915C9112974883598366A177A1EA
:10053000D8016D937C936417750710F4461B01C0B6
:1005400040E0D9014C9316C040815181DA011196E7
:100550004D915C9112974883598362817381D801D0
:100560006D937C936417750710F4461B01C040E03F
:10057000D9014C938F5F2F5F3F4F369622960E5FC7
:100580001F4F863041F68091044080FF07C00E94D3
:100590000105E0E0F0E484818E7F84830E94910372
:1005A00080910D42809319410EC080910B40909133
:1005B0003540981351CF55CF80910C4090912C40ED
:1005C000891355CF59CFDF91CF911F910F91089586
:1005D000883030F4E82FF0E0E050F04C808108954E
:1005E00090EF980F963030F4E82FF0E0E65DFE4B88
:1005F0008081089590EE980F9A3030F4E82FF0E063
:10060000E851F04C8081089594E7980F963030F4CB
:10061000E82FF0E0E855FF4B808108959DE5980FA5
:100620009C3068F4E92FE695F0E0EE0FFF1FE85DDF
:10063000FE4B2081818190FD15C0822F0895EFE24D
:10064000E80FEC3070F4AE2FA695B0E0AA0FBB1FF8
:10065000A45EBE4B9C9111968C91E0FD03C0892F46
:10066000089580E00895843019F4609304400CC02C
:100670009EED980F983030F4E82FF0E0E851F04C00
:10068000608302C081E0089581E08093404180E072
:10069000089590917A41E92FF0E0EA59FE4B80816C
:1006A0009F5F943119F090937A41089510927A41A6
:1006B000089591E09093DF41809322088091DF417B
:1006C0008130E1F308958091DF41811109C081E01B
:1006D0008093DF4180935E418091E04180932208C6
:1006E0000895E0EEF1E42DEA20833AE031831282AE
:1006F00081E08383148240E145839AED94872587C6
:1007000046878787808B118A43EA428B978F20A385
:1007100031A325E022A383A314A28CE885A394A788
:100720000895EF92FF920F931F93CF938091E04132
:10073000811102C00E947103809112408130B1F595
:100740008091DF41811132C006EE11E4C0E18C2FAF
:100750000E94E802F80181938F01CF5FC631B9F79B
:1007600003EF11E40F2EFFEFEF2EF1E4FF2EF02D3B
:10077000C3EA8C2F0E94E802F80181938F01CF5FBA
:10078000EE16FF06B1F706E012E4CCE88C2F0E94CB
:10079000E802F80181938F01CF5FC239B9F78091E8
:1007A0005F41813019F081E080934241CF911F91E8
:1007B0000F91FF90EF90089580915D4190917A4163
:1007C000891710F0891B08958C5E891B08951F936B
:1007D000CF93DF93C82F162FD42F1092654185E059
:1007E0008C0F809341418DEA0E94590384E08C0F65
:1007F0000E945903812F0E94590381E00E945903EE
:1008000080E00E9459038D2F0E945903DF91CF9100
:100810001F910895EF92FF921F93CF93DF938091E2
:100820004241813021F4109242410E9463030E94B0
:10083000DC03853008F4A0C00E9449038D3A09F01A
:100840009BC080915F4181111CC00E94DC038430F9
:1008500008F492C00E944903182F0E9449030F2EEA
:10086000FFE5EF2EF1E4FF2EF02DF70182830E94C9
:100870004903C82F0E944903D82F81E0F7018083E4
:1008800006C0813009F078C0D0E0C0E010E01092DE
:100890005D4110927A4180916141803809F46AC0CB
:1008A0008138E9F48091DF418130E1F31092124008
:1008B0004C2F612F8D2F0E94E703DD2349F0DC0FC1
:1008C0008C2F0E94E8020E945903CF5FDC13F8CFFF
:1008D0008AED0E94590381E08093124048C0813024
:1008E00061F58091DF418130E1F3109212404C2F8D
:1008F000612F8D2F0E94E703CC2361F0DD23B1F03F
:10090000DC0F8C2F0E94E8020E945903CF5FCD13A9
:10091000F8CF0CC080E00E94590380E00E94590388
:1009200080E00E94590380E50E9459038AED0E94ED
:10093000590381E0809312401AC0811118C0809140
:10094000DF418130E1F3109212406D2F8C2F0E9415
:1009500033034C2F612F81E00E94E7038D2F0E940B
:1009600059038AED0E94590381E08093124010924E
:100970005F4102C010925F41DF91CF911F91FF90C4
:10098000EF900895E0E2F8E08481806484838091B0
:100990001240813019F01092DF41089580915E413C
:1009A0008D3258F4E82FF0E0E052FE4B90819093A6
:1009B00022088F5F80935E4108951092DF41089571
:1009C00080915D4190912008E82FF0E0EA59FE4BBC
:1009D00090838F5F843119F080935D410895109268
:1009E0005D41089581E0809345410895E0E4F1E0A0
:1009F000918192FDFDCF90E080934A0190934B014D
:100A000008950F931F93CF93DF9380E20E94F60423
:100A1000E6E1F4E08081877F80838081887F846045
:100A20008083E5E1F4E08081877F80838081887F17
:100A300084608083E4E1F4E08081877F808380812B
:100A4000887F84608083E1E3F4E08081877F808316
:100A50008081887F84608083E0E3F4E08081877F09
:100A600080838081887F84608083E7E1F4E08081F7
:100A7000877F80838081887F8460808388E490E49E
:100A80000E94E5128DE392E40E949C13C0E0D0E046
:100A9000BE0188E490E40E941614BE0188E490E44C
:100AA0000E9435142196C630D10591F70FE112E46A
:100AB000C0E0A8016C2F84E290E40E94ED06CF5FB5
:100AC0000B5F1F4FC630A9F783E190E40E94BD0E73
:100AD000DF91CF911F910F91089580914641813010
:100AE00051F462EF74E088E490E40E94A61381114F
:100AF00002C01092464180914541813071F51092BB
:100B000045410E946310811113C084E290E40E9469
:100B10000C07882319F082E08093434183E190E43D
:100B20000E94340C882339F083E08093434103C052
:100B300081E080934341E0912440F0912540808101
:100B4000882324F481E08093464103C081E08093B0
:100B50004441F8940E94C00178940E940A040895C8
:100B600080911E428F5F843118F480931E42089555
:100B700010921E4281E08093464184E190E00E9401
:100B8000E20608959C01220F331F820F931F880FE6
:100B9000991FE0912840F0912940E80FF91F8081CA
:100BA00008951F920F920FB60F9211240BB60F9259
:100BB0002F933F934F935F936F937F938F939F9365
:100BC000AF93BF93EF93FF930E94BC14FF91EF91FB
:100BD000BF91AF919F918F917F916F915F914F9155
:100BE0003F912F910F900BBE0F900FBE0F901F9053
:100BF00018951092890080E0089544E268ED88E637
:100C000090E00E94590680E00895789480E008956D
:100C1000E0E1F4E0808188608193E83184E0F807C6
:100C2000C9F7E0E3F4E0808188608193E83384E0F1
:100C3000F807C9F7E0E5F4E0808188608193E83542
:100C400084E0F807C9F7E0E7F4E0808188608193E9
:100C5000E83784E0F807C9F7E0E9F4E080818860CC
:100C60008193E83984E0F807C9F7E0EBF4E080818C
:100C700088608193E83B84E0F807C9F708954198BC
:100C8000E1E5F4E08081877F80834898409A0E9464
:100C90006E0608950E9408060E94FD050E943F0608
:100CA0000E946C060E9405060E945E060E94F905DD
:100CB00008951BBEFC0164BF40830895E0E4F1E0A9
:100CC00081818111FDCFE0E4F1E081E8808317822A
:100CD00082E0828380E0089580E00895E0E2F8E019
:100CE00084EC99E08087918780EC8583868380E01F
:100CF0000895CF92DF92FF920F931F93CF93DF93CC
:100D0000EC01AE81BF81EB01CC0FDD1FC60FD71FF9
:100D1000CA0FDB1FFA80FC0144815581E6E0E69FA3
:100D20009001E79F300D11248A01020F131FF80173
:100D300022813381F90121813281F80104811581F9
:100D4000201B310BE8812E1B3109EC01EA81FB816C
:100D500000811181FA0140E050E04017510739F15C
:100D600046175707F9F012968C911297F8121AC08D
:100D7000808185588230E8F0C480D580828193815B
:100D8000EC0189819A81C816D90660F48C199D09F5
:100D9000CC91D0E0C817D90728F48C1B9D0B2817DD
:100DA000390738F04F5F5F4F13963696D6CF80E005
:100DB00001C081E0DF91CF911F910F91FF90DF90F3
:100DC000CF9008952091474130914841820F931F61
:100DD000809347419093484108950097D9F0411579
:100DE0005105C1F026E0629FB0011124DC01149688
:100DF000ED91FC911597E60FF71F21E020831496E3
:100E00008D919C911597FC01E60FF71F4283538348
:100E100080E008958BE008952F923F924F925F9269
:100E20006F927F928F929F92AF92BF92CF92DF92FA
:100E3000EF92FF920F931F93CF93DF93009709F4E4
:100E40007EC3EC01A12CB12C812C912C212CD12C16
:100E50005524539433E0C32E45E8642E56E8752E8E
:100E600062E0362E78E0472EEA81FB818081918115
:100E70008816990608F0A6C17501EE0CFF1CEC81DE
:100E8000FD81EE0DFF1DA281B3819C919E7109F041
:100E900050820C811D810E0D1F1DD8018C91843054
:100EA00009F49EC038F48230D1F008F045C081309A
:100EB00059F081C1853809F4BFC0863809F4F5C0FE
:100EC000873009F078C136C1911167C1F8013082CD
:100ED0008C819D81FC01EE0DFF1D41825EC1D80118
:100EE00011962C911197222329F11296ED91FC91E4
:100EF0001397253018F0818192810EC0D801149685
:100F00008D919C911597418152818417950769F0C5
:100F10004817590730F4019714968D939C931597B1
:100F200004C00196F801848395832150D80111965D
:100F30002C9333C1F8012DC1D80114962D913C9109
:100F400015971296ED91FC911397418152812417C8
:100F5000350709F430C18E819F8142175307F8F499
:100F6000EA81FB81241B350BDC01AA0DBB1D8C9192
:100F700090E0058002C0959587950A94E2F799273D
:100F80002817390708F417C18481882309F413C18D
:100F900087E0F8018083EA81FB8124811AC0FC018B
:100FA000EA0DFB1D421B530B808190E04817590747
:100FB00008F401C18281882331F0B401CE010E947E
:100FC00079068111F8C0E4E0D801EC93EA81FB8155
:100FD00022818C819D81FC01EE0DFF1D2183DDC0EE
:100FE000D80114962D913C9115971296ED91FC9194
:100FF0001397818192818217930708F4BBC0EE8119
:10100000FF81EA0DFB1D821B930B208130E0281726
:10101000390708F0C5C08281882331F0B401CE01C0
:101020000E9479068111C7C0F8018181882309F4E3
:101030006AC081508183B1C0E881F981AA81BB81F6
:1010400018968C918383EC81FD81EE0DFF1D448108
:101050005581A281B38111968D919C91129784172D
:101060009507C0F0AE81BF81AA0DBB1D6C91262FE4
:1010700030E011967C917F5F02C0359527957A9577
:10108000E2F7841B950B621B262F30E028173907E7
:1010900008F48FC07082EA81FB8122818C819D815E
:1010A000FC01EE0DFF1D218342C0D80114966D9105
:1010B0007C9115971296ED91FC91139721813281C5
:1010C0002617370758F411968C911197811102C099
:1010D000CC926FC08150F80181836BC0EE81FF819B
:1010E000EA0DFB1D8081482F50E091819F5F02C077
:1010F000559547959A95E2F7261B370B841B90E090
:101100008217930760F4D8016C92EA81FB812381F6
:101110008C819D81FC01EE0DFF1D21834AC0F801E9
:101120008181811102C0C08244C081508183222408
:10113000239433C0F801248135810280F381E02DAE
:10114000818192818217930758F5281B390BEE8114
:10115000FF81EA0DFB1D808190E0EA81FB81058023
:1011600002C0959587950A94E2F7992728173907C1
:1011700018F4D801CC9216C0F801818181110BC0FE
:1011800050828C819D81FC01EE0DFF1D0280F38158
:10119000E02DC08210C081508183DD24D3940BC028
:1011A000F801C0828C819D81FC01EE0DFF1D118232
:1011B00002C022242394FFEF8F1A9F0A83E0A80E17
:1011C000B11C52CEE881F981808187FF23C040E0C5
:1011D00050E020E030E0EA81FB8180819181281796
:1011E000390798F4EC81FD81E40FF51FA281B381EA
:1011F0008C9180FD05C09081977F11F081608C9368
:101200002F5F3F4F4A5F5F4FE6CFE881F9818081D2
:101210008F778083D11007C0E881F98121106FC0DA
:1012200080818E7F6EC0EA81FB8181858823A1F356
:10123000E881F981808180688083EA81FB818185F2
:10124000813051F740E050E020E030E096E0D92EC8
:10125000EA81FB816081718126173707E8F60C81EE
:101260001D81FA01EE0FFF1FE00FF11F8081982F03
:10127000977FA1F1853811F08330B1F5EE80FF80C2
:10128000D701A40FB51F1296BC90BB2039F180E0A6
:1012900090E0C12C86179707F8F428173907D1F08A
:1012A000D89ED001D99EB00D1124A00FB11FAC91D2
:1012B000A43011F0A63871F4DC01AA0FBB1FA80FEF
:1012C000B91FAE0DBF1D1296AC91BA1203C0CB016F
:1012D000CC24C3940196DECFC11006C00280F381F6
:1012E000E02D80818E7F05C00280F381E02D80811A
:1012F000816080832F5F3F4F4D5F5F4FA9CF80811B
:10130000816080838091474190914841E881F981D3
:1013100021813281A90148535F4F4817590738F49A
:10132000821B930BAA24A394A3E0BA2E44C0821775
:10133000930710F080E004C1821B930B0197893C56
:101340009105C0F3EFCF885C9109E881F981218193
:10135000328128533F4F218332832381211196C04C
:101360002481222311F021502483E881F9812581F1
:10137000222311F0215025838A809B80D401169668
:101380002C91169721111BC08A809B80F401278124
:10139000211148C0EA81FB812381222361F020E0F2
:1013A00030E0A0E0B0E0EA81FB8140815181A417E8
:1013B000B50708F46EC0893C910528F6BBCF0881BB
:1013C0001981F80124812111DFCFED90FC9060E0BC
:1013D00070E040E050E04E155F05F1F0EC81FD81DA
:1013E000E60FF71F2081233011F0283081F424818B
:1013F0003581C280D380D6011196CD90DC901297B2
:101400002C153D0520F42F5F3F4F248335834F5F1C
:101410005F4F6A5F7F4FDFCFF4012681D8011496BA
:101420002C93B2CF08811981D80115962C912111E6
:10143000B1CFE080F18060E070E040E050E04E1518
:101440005F05F1F0EC81FD81E60FF71F208123306D
:1014500011F0283081F424813581C280D380D601F7
:101460001196CD90DC901297C216D30620F421502D
:101470003109248335834F5F5F4F6A5F7F4FDFCF32
:10148000F4012781D80115962C9384CF2150238312
:1014900081CFA901440F551FEC81FD81E40FF51F99
:1014A0006081653809F047C06181662319F0615099
:1014B000618341C0A0826C817D81FB01E40FF51F37
:1014C0000280F381E02DB082EE81FF81E20FF31FF5
:1014D000D280DD2081F140E050E000E010E0EA81C0
:1014E000FB81608171810617170728F5EE81FF8166
:1014F000E40FF51F6281D61219C0BA01660F771F7B
:10150000EC81FD814F01860E971EF401E280F3808D
:10151000F701F080F0FE0AC0F401A082EC81FD81A9
:10152000E60FF71F0280F381E02DB0820F5F1F4F9F
:101530004D5F5F4FD4CF11962D5F3F4F34CF8BE07F
:10154000DF91CF911F910F91FF90EF90DF90CF909F
:10155000BF90AF909F908F907F906F905F904F90D3
:101560003F902F9008959C016115710509F14F5F1F
:1015700037FD06C0442321F04150220F331FF8CF1E
:1015800077FD04C04F5F660F771FFACF80E090E0D1
:10159000442381F097FD0CC0880F991F41502617F6
:1015A000370718F0261B370B019676956795F0CF15
:1015B0008FEF9FEF089526E0829FC0011124FC0168
:1015C000E65BFE4B22813381208331835481458148
:1015D0005283438364837583852F942F681779071B
:1015E000D9F082179307C1F062177307A1F086172D
:1015F000970740F42817390778F0CB0126173707EB
:1016000058F407C08217930738F0CB0162177307AD
:1016100018F4C9010895CB01089526E0269FF00132
:10162000279FF00D1124E80FF91FA281B3811196B5
:101630008D919C91129724813581821B930B089583
:101640009F92AF92BF92CF92DF92EF92FF920F9351
:101650001F93CF93DF935C016B01942E7901B90145
:101660000E940D0B1816190614F4EC0102C0C0E01C
:10167000D0E0CE14DF0458F4B70161507109C50100
:101680000E940D0B1816190614F48C0102C000E01C
:1016900010E0C90CD11C81E0C81AD108EC14FD047B
:1016A00048F4B7016F5F7F4FC5010E940D0B1816FC
:1016B000190614F080E090E08017910708F4C80143
:1016C0008C0F9D1FDF91CF911F910F91FF90EF9095
:1016D000DF90CF90BF90AF909F9008955F926F92F0
:1016E0007F928F929F92AF92BF92CF92DF92EF92B2
:1016F000FF920F931F93CF93DF934B01642EE90169
:10170000FC01A384B4847680572C52947FE0572246
:10171000B901C5010E940D0B1816190614F48C01AD
:1017200002C000E010E0C815D90559F0BE016150B3
:101730007109C5010E940D0B1816190614F47C01DD
:1017400002C0E12CF12CC62CD12CC4018C0D9D1DA6
:101750000197C817D90759F0BE016F5F7F4FC501C8
:101760000E940D0B1816190614F49C0102C020E00B
:1017700030E0C819D909DC2FCC27D295D07F4E0193
:10178000A12CB12CE216F30668F0C801821B930B62
:10179000BC01621B730B6E0D7F1D4CE00E94B30AEF
:1017A00090510EC0C701880F991FB801681B790BB3
:1017B000620F731F4CE0C9018E199F090E94B30A82
:1017C000092E000CAA0BBB0B880D991DAA1DBB1D71
:1017D000382F292FF2E0F61540F4B6016150710957
:1017E00040E00E94B30A382F292F832F922F813097
:1017F00020E1920710F080E090E1272D2F70A9F0F2
:1018000048E2249F900111248217930718F0821B4D
:10181000930B02C080E090E0220F331F60E070E184
:10182000621B730B4CE00E94B30A8115E0E19E0736
:1018300010F08FEF9FE02CE030E02519310902C055
:10184000969587952A95E2F7DF91CF911F910F9199
:10185000FF90EF90DF90CF90BF90AF909F908F90D0
:101860007F906F905F9008952F923F924F925F927A
:101870006F927F928F929F92AF92BF92CF92DF92A0
:10188000EF92FF920F931F93CF93DF93CDB7DEB705
:101890002897CDBFDEBF009709F400C1DC01129686
:1018A0000D911C911397F8012681203D08F0F4C09A
:1018B0002D913C912F833887232B09F4EFC001151C
:1018C000110509F4EBC0438454844114510409F414
:1018D000E5C032813B83C080D180C60120E0A601F3
:1018E000430F511D49835A8336E049815A81841739
:1018F000950780F4389FF001399FF00D1124E40D15
:10190000F51D6081653811F0AC0101C021E0CA010C
:101910000196EBCF222339F04601AA24AA94BA2CCF
:10192000E12CF12C34C0D80115963C9115971396F3
:101930008D919C911497AC01430F511D36E0BA0173
:101940008417950780F4389FF001399FF00D11241A
:10195000E40DF51DE081E53811F0BC0101C021E086
:10196000CB010196ECCF2111D7CFEF81F885808193
:1019700080FDD2CF1186128693C0B401C2010E94AD
:101980000D0B181619064CF0FFEF8F1A9F0A2981CC
:101990003A818216930688F306C0E816F906A4F782
:1019A00054017C01F1CFD8011596BC91BC83F8019C
:1019B00063807480130188248A94982CE12CF12C84
:1019C00093012B0F311D2D833E836D817E81261661
:1019D000370680F4B101C2010E940D0B18161906DA
:1019E0002CF4E816F90614F441017C015FEF251A86
:1019F000350AEBCF7FEF8716970621F08FEFA816F9
:101A0000B80639F4AF81B88519961D921C921A97C1
:101A100047C0AC14BD0468F0E981FA81AE16BF0678
:101A200040F495014B81B601C2010E94200B7C015C
:101A300002C0E12CF12C8614970470F02D813E81B8
:101A40008216930648F494014C81B301C2010E94AE
:101A5000200B8E0D9F1D02C080E090E0AF81B88505
:101A60002C91322F317020FF0AC0009741F0199657
:101A7000ED90FC901A978E0D9F1D96958795EF819E
:101A8000F88581879287D80119964D915C911A97B4
:101A90008417950728F00AC082E059C18BE057C12E
:101AA00080E0EF81F885808380E051C1311104C06E
:101AB00081E08093494102C010924941F80142817E
:101AC00035808091494181117BC080858370282EAB
:101AD000B1F49501B601C8010E946E0BAF81B885C3
:101AE00011968D939C9312979401432DB301C801D5
:101AF0000E946E0BEF81F8858583968399C0AF8134
:101B0000B8851196ED90FC90129715964D905C90CB
:101B100016979501B601C8010E946E0B6C019401E5
:101B2000432DB301C8010E946E0BA7014C0D5D1D32
:101B30009201280F391FB1E02B1207C0B601660FC2
:101B4000771F460F571FBC010EC0E2E02E1205C0E2
:101B5000440F551F220F331F0AC0B701660F771FAE
:101B6000460F571FB201660F771F260F371FEC1461
:101B7000FD0418F44E5F5F4F05C0CE14DF0410F46F
:101B8000415051094816590618F42E5F3F4F05C0C1
:101B90008415950510F421503109569547955695B1
:101BA0004795AF81B88511964D935C931297369502
:101BB00027953695279515962D933C93169738C003
:101BC0009501B601C8010E946E0B7C01EF81F8857A
:101BD000818392839401432DB301C8010E946E0B4F
:101BE000AF81B88515968D939C9316971396ED92B9
:101BF000FC92149717968D939C931897E0924A4104
:101C0000F0924B41E0924C41F0924D41E0924E41B6
:101C1000F0924F41809350419093514180935241B3
:101C200090935341809354419093554181E839CF2B
:101C3000D80118968C91EF81F88561817281F82F17
:101C4000F071EF2E84FD02C0FB0104C080E00E9411
:101C5000DB0AFC01AF81B88513962D913C91149756
:101C60009C91E217F307B0F493FD0BC02E1B3F0BC2
:101C7000D80117964C9150E04217530710F094701A
:101C800016C0AF81B8851396ED93FC9314979BE82B
:101C9000F92E18C092FD0EC0AF01421B530BD801A4
:101CA00017962C9130E02417350720F09870916832
:101CB000F92E08C0AF81B8851396ED93FC93149765
:101CC00087E8F82EEF81F88565817681E11002C002
:101CD000FB0104C081E00E94DB0AFC01AF81B885F2
:101CE00017962D913C9118979C91E217F307B0F449
:101CF00095FD0BC02E1B3F0BD80117964C9150E061
:101D00004217530710F0907116C0AF81B88517962F
:101D1000ED93FC9318978F2D8262C3CE94FD0EC075
:101D2000AF01421B530BD80117962C9130E02417BA
:101D3000350720F09072892F8F29B3CEAF81B885F7
:101D40001796ED93FC9318978F2D8261AACE289653
:101D5000CDBFDEBFDF91CF911F910F91FF90EF902C
:101D6000DF90CF90BF90AF909F908F907F906F90BB
:101D70005F904F903F902F900895009791F0DC0175
:101D8000ED91FC91309769F01082118212821382DA
:101D9000148215821682178210861186128680E0C0
:101DA00008958BE00895A0916D42B0916E4225E0B8
:101DB000AC01249FC001259F900D11241496ED9134
:101DC000FC911597E80FF91F81819281861797077B
:101DD00081F18617970718F4681B790B04C09C01E2
:101DE000261B370BB901ED91FC918281803411F4EF
:101DF0007695679565387105D0F466307105C8F041
:101E0000E381E073F0E083E0F695E7958A95E1F7EA
:101E1000E453FF4B80819181689F9001699F300D51
:101E2000789F300D112481E0232B21F402C081E042
:101E3000089580E0089580915B4190915C41A0916C
:101E40006D42B0916E42ED91FC91119740815181AC
:101E500025E0289FB001299F700D112420E030E07B
:101E600084179507A8F41496ED91FC911597E20F4D
:101E7000F31FE60FF71FE0812B5F3F4FE0FD02C02D
:101E80000196EECF80935B4190935C4180E0089592
:101E900010925B4110925C4181E00895AF92BF9235
:101EA000CF92DF92EF92FF920F931F93CF93DF9326
:101EB0007C01E0916D42F0916E4284E18E9DE001E3
:101EC0008F9DD00D1124A281B381AC0FBD1F189638
:101ED0002C91189719963C9119971A964C911A972C
:101EE0001B965C911B971C966C911C971D967C9180
:101EF0001D971E968C911E971F969C912093F0071C
:101F000008E00E9415152093F1070E9415152093F3
:101F1000F2070E9415152093F3070E9415152093D0
:101F2000F4070E9415152093F5071092E007A08191
:101F3000B18112968C91803809F44FC0A281B3818F
:101F4000AC0FBD1FCC9011963C91119712964C91FD
:101F5000129713965C91139714966C91149715969B
:101F60007C91159716968C91169717969C91C09216
:101F7000E8072C2D0E941515D22E2093E9070E9408
:101F80001515122F2093EA070E941515A22E2093F3
:101F9000EB070E941515B22E2093EC070E94151531
:101FA0002093ED0780819181DC0112968C9181381C
:101FB00021F481E08093E00710C0823871F4109220
:101FC000E007C092F807D092F9071093FA07A092A1
:101FD000FB07B092FC072093FD0725E02E9DC00172
:101FE0002F9D900D1124A481B581A80FB91F1396C0
:101FF0002D913C911497A90153704093E40750939D
:10200000E50737FD03C01092CA0703C021E0209303
:10201000CA07A481B581A80FB91F2C9121FF02C066
:1020200025E02C9324813581D901A80FB91F8C910B
:102030008C7169F4A281B381AC0FBD1F5296AC9133
:10204000A295AF70B0E0AC52BF4B8C9101C08FE154
:102050008093E607A281B381AC0FBD1F50968C918F
:102060008B3710F48C5F01C08FE78093C407A28187
:10207000B381AC0FBD1F53968C918093C707A2818B
:10208000B381AC0FBD1F51968C9182958F70809358
:10209000C90782819381C80FD91F89898F70806891
:1020A0008093C20781E88093C00781E08093D007C6
:1020B000DF91CF911F910F91FF90EF90DF90CF9024
:1020C000BF90AF9008952F923F924F925F926F9280
:1020D0007F928F929F92AF92BF92CF92DF92EF92B8
:1020E000FF920F931F93CF93DF93CDB7DEB7279760
:1020F000CDBFDEBF80915A41882309F446C20091CA
:102100006D4210916E4220916F42309170422A834D
:102110003B83C12CD12CA12CB12C212C312C198228
:1021200044244A945524539477247394D8010D90F1
:10213000BC91A02DAE83BF838D919C91281639064A
:1021400008F01FC2AA81BB814D915D91AA83BB8318
:10215000F801E480F580EA0CFB1CD7012C91822F5A
:102160008C7190E09695879596958795823091052C
:1021700009F4A0C128F4009759F0019701F1F7C1C3
:102180008330910509F459C1049709F4E1C0EFC106
:102190000280F381E02DEC0DFD1D92899F708389F3
:1021A000981710F4891B01C080E09A0102C036958F
:1021B00027958A95E2F7F70121833283D8C182817E
:1021C0009381FC01EC0DFD1D4A01038802C0969429
:1021D00087940A94E2F7D70111968D929C921297F8
:1021E00013968D919C911497692F661F6627661F21
:1021F0008114B2E09B0630F03FEF831A31E0930A7E
:1022000041E005C0A201481959094A0140E09694ED
:102210008794AE81BF8112963C91303429F04423DB
:1022200009F4B6C1462F06C097FF04C031E0411142
:1022300030E0432FBAE08B16910408F03FC026FD32
:102240003AC027FD94C1AE81BF8113968C918370F3
:10225000833059F4BFE7B08BD8011496ED91FC910F
:102260001597EA0DFB1DB1E10DC0823069F481893B
:10227000807F818BD8011496ED91FC911597EA0D22
:10228000FB1DB9E0B08373C18130A9F481898F70DF
:10229000818BD8011296ED91FC911397EC0DFD1DE9
:1022A00081898067818B1496ED91FC911597EA0DD9
:1022B000FB1DBDE0E7CFF701708259C19C0133706F
:1022C0002F3FF3E03F0731F4E1E8D701EC938FEFC4
:1022D00093E00BC02115310559F497FF25C0E1E8C3
:1022E000D701EC9380E090E061E0FEE0F9831FC04D
:1022F000C90141110FC0019621E0821A910831E015
:1023000083169104A1F08F3F43E09407A1F70FC01B
:10231000009769F00197AC01421B530B480D591D02
:1023200041305105A9F703C080EF90E061E0D8018A
:102330001496ED91FC911597EA0DFB1D70E077273F
:10234000669577956627862B972B838394830FC199
:10235000F801828093808C0C9D1CFA01D401539665
:102360000C90539702C0F695E7950A94E2F7EC8338
:10237000FD8350966C90FFE76F120FC0EC81FD81DA
:10238000D7011196ED93FC931297D40150968C913E
:1023900050978F7B50968C9342C0F12C262D30E0C5
:1023A000C9010F2C02C0969587950A94E2F780FF29
:1023B00003C08F2DF12C01C087E08F5F873010F4B0
:1023C000F82EEECF6C817D81C1010E94D30E88234F
:1023D00051F081E090E00F2C01C0880F0A94EAF7D9
:1023E0008629F401808BD801FF2091F01296ED919F
:1023F000FC911397EC0DFD1DFA9481E090E001C073
:10240000880FFA94EAF7809590898923808B07C01A
:102410001496ED91FC911597EA0DFB1D7082D80181
:102420001496ED91FC911597EA0DFB1D808181308A
:1024300009F09DC02C813D8183C00280F381E02D95
:10244000EC0DFD1D9A01038802C0369527950A946C
:10245000E2F72C833D83918892942FE0922237E01B
:10246000931691F06C817D81C1010E94D30E811180
:1024700004C09394D7017C9209C0911003C0F70166
:10248000708204C09A9402C096E0992ED8011296E8
:10249000ED91FC911397EC0DFD1D81898F70818B5F
:1024A0001296ED91FC911397EC0DFD1D929480EF27
:1024B000982236C00280F381E02DEC0DFD1D9A01BB
:1024C000038802C0369527950A94E2F72C833D8352
:1024D00081898F70982E91F0B901C1010E94D30EAD
:1024E000811104C09A94D7017C920AC0B7E09B1274
:1024F00003C0F701708204C0939402C0992493949E
:10250000D8011296ED91FC911397EC0DFD1D818978
:10251000807F818B1296ED91FC911397EC0DFD1D40
:102520008189982A918A1496ED91FC911597EA0D6C
:10253000FB1D2C813D812183328380818130B9F460
:10254000211542E0340728F02F5F31402C833D8372
:1025500007C0C201AC81BD818A1B9B0B8C839D830C
:102560002C813D812B30310510F035E430834FEF65
:10257000241A340A55E0A50EB11C84E1C80ED11C02
:10258000D5CD82E080935A4109C0B3E0B98306C03B
:10259000492F4095441F4427441F4CCE89812796DC
:1025A000CDBFDEBFDF91CF911F910F91FF90EF90D4
:1025B000DF90CF90BF90AF909F908F907F906F9063
:1025C0005F904F903F902F9008955F926F927F920F
:1025D0008F929F92AF92BF92CF92DF92EF92FF9233
:1025E0000F931F93CF93DF93009709F492C0DC0100
:1025F000ED91FC916081718140E050E020E030E09D
:10260000B0E010E0F12CE12C912C812C712C612C8C
:102610002617370751F1EC01EA81FB81E40FF51F22
:10262000A080A085AA2AB180A185BA2AC280A285ED
:10263000CA2AD380A385DA2AD481A485DA2BC5815E
:10264000A585CA2B5680A685A5295780E785E5294B
:10265000BA291B29FC28ED289D2A8C2A7A2A6E2A61
:102660002F5F3F4F4C5E5F4FD3CF2B2F312F4F2D1E
:102670005E2D692D782D872D962DA0E00E943115B5
:1026800009F449C081E080935A4127EEC22E20E42C
:10269000D22EC0E0D0E0AA24A394B12C4CE0542E5A
:1026A0002B2F312F4F2D5E2D692D782D872D962DB7
:1026B0000C2F0E941515217030E040E050E060E0E2
:1026C00070E080E090E0A0E00E943115C9F0F601D2
:1026D0008081E82FE295E695E770F0E0EE0FFF1FAE
:1026E000E752FF4B0190F081E02D8F71950102C000
:1026F000220F331F8A95E2F722832683538625878C
:1027000021963FEFC31AD30AC033D10549F680E0C2
:1027100003C08BE001C082E0DF91CF911F910F9148
:10272000FF90EF90DF90CF90BF90AF909F908F90F1
:102730007F906F905F900895009731F080936F4283
:102740009093704280E008958BE0089561157105C3
:1027500061F1009751F120915A41222341F1243037
:1027600041F180936D4290936E4260935841709313
:102770005941DC01ED91FC912281203419F4109231
:10278000C10707C0203811F0213831F421E020932F
:10279000C1071092CB0711C0223869F421E02093C1
:1027A000C10729E02093CB0708C08BE0089583E0A0
:1027B000089581E0089582E008951092C007DC0139
:1027C000ED91FC9184819281903451F41092C5076F
:1027D000803110F4806201C08FE28093C30708C08B
:1027E00090E29093C3078F3008F08FE08093C50785
:1027F00081E08093D3078093D2078093CB401092DF
:102800005B4110925C410E941B0F81110BC084E060
:1028100080935A4180915B4190915C410E944E0FA0
:1028200080E0089582E080935A4108950097C9F0AE
:10283000DC01ED91FC91119720813181261737073A
:1028400090F045E0469F9001479F300D112414966B
:10285000ED91FC911597E20FF31F81E0808380E0FA
:1028600008958BE0089582E00895FC01892BD1F151
:10287000A081B1818D919C91119786179707A0F146
:1028800012969C910480F581E02D903459F485E0F6
:10289000869FD001879FB00D1124AE0FBF1F80EA25
:1028A00090E00DC09058933080F485E0869FD00171
:1028B000879FB00D1124AE0FBF1F80EF90E01396DD
:1028C0008D939C93149780E001C082E095E0969FE1
:1028D0009001979F300D1124E20FF31F90819260B9
:1028E000908308958BE0089582E008952091DA079F
:1028F0003091DB0760915B4170915C41CB01880FA7
:10290000991FE0916F42F0917042E80FF91F208308
:102910003183A0916D42B0916E4244E1469FC00167
:10292000479F900D11241296ED91FC911397E80F9B
:10293000F91F92899F708389981710F4891B01C031
:1029400080E095E0969FA001979F500D112414966A
:10295000ED91FC911597E40FF51F02C03695279570
:102960008A95E2F72183328382E080935A41E09195
:102970005641F091574109941092C0078091CB4085
:10298000813009F04EC04091DA075091DB07809109
:102990005B4190915C419C01220F331FE0916F429B
:1029A000F0917042E20FF31F4083518301968093B0
:1029B0005B4190935C410E941B0F811109C084E030
:1029C00080935A4180915B4190915C410C944E0FF1
:1029D0001092E8071092E9071092EA071092EB07AD
:1029E0001092EC071092ED071092F0071092F10789
:1029F0001092F2071092F3071092F4071092F50765
:102A00001092F8071092F9071092FA071092FB073C
:102A10001092FC071092FD07E0915841F091594146
:102A200009940C94761497FB10F8169400080F93F1
:102A3000083098F00850232F342F452F562F672F3A
:102A4000782F892F902DF4CF0594979587957795BA
:102A5000679557954795379527950A95AAF70F914A
:102A600008950024A7FD00942A173005400550055D
:0E2A700060057005800590050895F894FFCF6D
:102A7E0002000030000301000303401414000000A4
:102A8E000008010D421740030003000003850313E5
:102A9E003C00494218423E4049422C401401011468
:102AAE0001011401011401011401011401010600B8
:102ABE000400050014051401C6404E401F4270006C
:102ACE000000000000008000000000000000000573
:102ADE000004700000000000000000010000000073
:102AEE00000000050004700000000000000000025D
:102AFE00000000000000000500048003000000003C
:102B0E00000010000000000000000005000480031B
:102B1E000000000000002000000000000000000582
:102B2E0000048003000000000000400000000000D0
:102B3E0000000005000406004030000107001300ED
:102B4E00350090001F0F07030100042004400460AD
:102B5E00048004A004C0040001020304050607203B
:102B6E0021222324252627606162636465666780BF
:102B7E0081828384858687A0A1A2A3A4A5A6A7C0CF
:082B8E00C1C2C3C4C5C6C700E3
:00000001FF
