:100000000C9474000C9493000C9493000C949A003C
:100010000C9493000C9493000C9493000C94930014
:100020000C9493000C9493000C9493000C94930004
:100030000C9493000C9493000C9493000C949300F4
:100040000C9493000C9493000C9493000C949300E4
:100050000C9493000C9493000C9493000C949300D4
:100060000C9493000C9493000C9493000C94A203B2
:100070000C9493000C9493000C9493000C949300B4
:100080000C9493000C9493000C9493000C949300A4
:100090000C9493000C9493000C9493000C94930094
:1000A0000C9493000C9493000C9493000C94930084
:1000B0000C9493000C9493000C9493000C94930074
:1000C0000C9493000C9493000C9493000C94930064
:1000D0000C9493000C9493000C9493000C94930054
:1000E0000C9493000C94930011241FBECFEFCDBF4E
:1000F000DFE7DEBF10E4A0E0B0E4E0E7F7E200E015
:100100000BBF02C007900D92A43DB107D9F721E4BF
:10011000A4EDB0E401C01D92A232B207E1F70E9443
:1001200018010C94B6130C9400000E941B040E944A
:100130009F0208951F920F920FB60F9211240BB6D3
:100140000F922F933F934F935F936F937F938F9370
:100150009F93AF93BF93EF93FF930E94370382E087
:1001600080934301FF91EF91BF91AF919F918F9148
:100170007F916F915F914F913F912F910F900BBEA7
:100180000F900FBE0F901F90189580E090E00E9496
:10019000700380788093D74081E090E00E947003E4
:1001A00080788093D74082E090E00E94700380784E
:1001B0008093D74080E090E00E947F038093D640F8
:1001C00080E090E00E9490038093D4409093D540CB
:1001D000BC0180E090E00E94911220E030E040E11C
:1001E00051E40E94F71220E030E040E85BE30E9417
:1001F000F7120E9462122FE0260F81E090E0A0E04B
:10020000B0E0BC01CD0104C0660F771F881F991FA5
:100210002A95D2F70E94250108950E94F20280914A
:10022000DB40813021F41092DB400E94C50008952C
:100230000E94950084E08093A004E0E4F4E08081D3
:10024000806E80830E940D01FDCFCF92DF92EF92EE
:10025000FF9220EE209346046B017C01FF2487E18E
:1002600090E0E0E4F4E030E220E8B701A601082ED7
:1002700004C076956795579547950A94D2F740FF45
:1002800002C0358301C036832583ABE2B1E011970C
:10029000F1F700C000002683ABE2B1E01197F1F75F
:1002A00000C00000019708F7E0E4F4E080E48583F3
:1002B000ABE2B1E01197F1F700C000008683FF9038
:1002C000EF90DF90CF9008950895CF93C82F0E94AC
:1002D00049048823E1F38C2F0E9457040E944F04A5
:1002E0008111FCCFCF910895EF92FF920F931F934E
:1002F000CF93DF9300D0CDB7DEB78091D8408F7019
:1003000081F400E010E40F2EF3E1EF2EF0E4FF2E75
:10031000F02DD8018D918D010E9465010E151F05EC
:10032000C1F785E50E9465018091D8400E94650172
:1003300019821A8289819A81039708F053C08981B2
:100340009A810E944903192F0E946501812F0E9402
:10035000650189819A810E945603192F0E946501C7
:10036000812F0E94650189819A810E9449038C0135
:1003700089819A810E945603081B190B802F0E94C5
:100380006501812F0E94650189819A810E94630322
:10039000192F0E946501812F0E94650189819A8130
:1003A0000E947003882324F481E00E94650103C049
:1003B00080E00E94650189819A81FC01EE0FFF1F98
:1003C0008E0F9F1FFC01E25DFF4B80810E94650143
:1003D00089819A81019689839A8389819A81039779
:1003E00008F4ADCF19821A8229813A81E091154033
:1003F000F0911640828190E02817390708F078C004
:1004000003E110E489819A81FC01EE0FFF1FEE0FDA
:10041000FF1FEE0FFF1F8E0F9F1FD8011496ED9147
:10042000FC911597E80FF91F808180FF04C081E0DF
:100430000E94650103C080E00E946501E981FA81A4
:10044000CF01880F991F880F991F880F991FE80FF8
:10045000F91FD80114968D919C911597E80FF91FFB
:10046000F08487810E9465018F2D0E946501E981DA
:10047000FA81EE0FFF1FEE0FFF1FEE0FFF1FD801D7
:1004800016968D919C911797E80FF91FF78086813A
:100490000E9465018F2D0E946501E981FA81CF01DB
:1004A000880F991F880F991F880F991FE80FF91F50
:1004B000D80114968D919C911597E80FF91FF6803D
:1004C00085810E9465018F2D0E94650189819A8135
:1004D000019689839A8329813A81D8011296ED91F8
:1004E000FC911397828190E02817390708F48ACF8E
:1004F0008091DA400E9465018091D84091E0980F88
:100500009093D8400E9465018AEA0E9465010F908D
:100510000F90DF91CF911F910F91FF90EF90089571
:1005200081E08093DC400895E0E4F1E0918192FD68
:10053000FDCF90E080934A0190934B0108950F9373
:100540001F93CF93DF9380E20E949402E1E3F4E0F3
:100550008081877F80838081887F84608083E7E1DA
:10056000F4E08081877F80838081887F84608083BE
:10057000E0E3F4E08081877F80838081887F8460EE
:10058000808381E490E40E94341086E091E40E942C
:10059000EB10C0E0D0E0BE0181E490E40E94651160
:1005A000BE0181E490E40E9484112196C330D105FC
:1005B00091F70EEE10E4C0E0A8016C2F86E290E403
:1005C0000E94D304CF5F0B5F1F4FC330A9F783E1B5
:1005D00090E40E94C1080E946401DF91CF911F91B5
:1005E0000F9108958091DD40813051F460E972E00F
:1005F00081E490E40E94F510811102C01092DD4068
:100600008091DC40813091F51092DC400E94B20D67
:10061000811117C086E290E40E94F204882329F039
:1006200082E08093DA400E94740183E190E40E94AA
:100630000109882359F083E08093DA400E94740115
:1006400005C081E08093DA400E947401E091264069
:10065000F09127408081882324F481E08093DD405D
:1006600003C081E08093DB400E9474010895809173
:10067000ED408F5F843118F48093ED40089510921F
:10068000ED4081E08093DD4084E190E00E94C80469
:1006900008959C01220F331F220F331F820F931FD7
:1006A000FC01E251FF4B8181928108959C01220F50
:1006B000331F820F931FFC01EE0FFF1FE45FFE4B01
:1006C0008481958108959C01220F331F220F331FCF
:1006D000820F931FFC01E251FF4B838194810895A7
:1006E0009C01220F331F820F931F880F991FE091E7
:1006F0002A40F0912B40E80FF91F808108959C015A
:10070000220F331F220F331F220F331F820F931F1D
:10071000E0911740F0911840E80FF91F808108958B
:100720009C01220F331F220F331F220F331F820F12
:10073000931FE0911740F0911840E80FF91F858151
:10074000968108951F920F920FB60F9211240BB647
:100750000F922F933F934F935F936F937F938F935A
:100760009F93AF93BF93EF93FF930E940B12FF9160
:10077000EF91BF91AF919F918F917F916F915F9119
:100780004F913F912F910F900BBE0F900FBE0F9086
:100790001F9018951092890080E0089544E268ED5A
:1007A00088E690E00E942A0480E00895789480E032
:1007B0000895E0E1F4E0808188608193E83184E08D
:1007C000F807C9F7E0E3F4E0808188608193E833BB
:1007D00084E0F807C9F7E0E5F4E080818860819360
:1007E000E83584E0F807C9F7E0E7F4E08081886045
:1007F0008193E83784E0F807C9F7E0E9F4E0808105
:1008000088608193E83984E0F807C9F7E0EBF4E009
:10081000808188608193E83B84E0F807C9F70895F8
:100820004198E1E5F4E08081877F80834898409A91
:100830000E943F0408950E94D9030E94CE030E94A3
:1008400010040E943D040E94D6030E942F040E94BF
:10085000CA0308951BBEFC0164BF40830895E0E411
:10086000F1E081818111FDCFE0E4F1E081E8808356
:10087000178282E0828380E0089580E00895E0E2BC
:10088000F8E084EC99E08087918780EC868380E0B3
:1008900008958091240885FB882780F90895809128
:1008A000240886FB882780F991E089270895E0E2F3
:1008B000F8E0948195FFFDCF809322080895CF92B0
:1008C000DF92FF920F931F93CF93DF93EC01AE81E2
:1008D000BF81EB01CC0FDD1FC60FD71FCA0FDB1F77
:1008E000FA80FC0144815581E6E0E69F9001E79F94
:1008F000300D11248A01020F131FF8012281338168
:10090000F90121813281F80104811581201B310B0D
:10091000E8812E1B3109EC01EA81FB810081118104
:10092000FA0140E050E04017510739F146175707E8
:10093000F9F012968C911297F8121AC0808185589E
:100940008230E8F0C480D58082819381EC01898176
:100950009A81C816D90660F48C199D09CC91D0E013
:10096000C817D90728F48C1B9D0B2817390738F0B6
:100970004F5F5F4F13963696D6CF80E001C081E07F
:10098000DF91CF911F910F91FF90DF90CF9008954D
:100990002091DE403091DF40820F931F8093DE4034
:1009A0009093DF4008950097D9F041155105C1F0AB
:1009B00026E0629FB0011124DC011496ED91FC91B8
:1009C0001597E60FF71F21E0208314968D919C91D7
:1009D0001597FC01E60FF71F4283538380E00895CB
:1009E0008BE008952F923F924F925F926F927F9289
:1009F0008F929F92AF92BF92CF92DF92EF92FF922F
:100A00000F931F93CF93DF93009709F47EC3EC01FC
:100A1000A12CB12C812C912C212CD12C5524539418
:100A200033E0C32E45E8642E56E8752E62E0362E7C
:100A300078E0472EEA81FB818081918188169906B2
:100A400008F0A6C17501EE0CFF1CEC81FD81EE0DD6
:100A5000FF1DA281B3819C919E7109F050820C818F
:100A60001D810E0D1F1DD8018C91843009F49EC08C
:100A700038F48230D1F008F045C0813059F081C19E
:100A8000853809F4BFC0863809F4F5C0873009F00D
:100A900078C136C1911167C1F80130828C819D8186
:100AA000FC01EE0DFF1D41825EC1D80111962C9113
:100AB0001197222329F11296ED91FC91139725307D
:100AC00018F0818192810EC0D80114968D919C916D
:100AD0001597418152818417950769F04817590786
:100AE00030F4019714968D939C93159704C001964A
:100AF000F801848395832150D80111962C9333C13A
:100B0000F8012DC1D80114962D913C91159712969C
:100B1000ED91FC911397418152812417350709F417
:100B200030C18E819F8142175307F8F4EA81FB811F
:100B3000241B350BDC01AA0DBB1D8C9190E00580B8
:100B400002C0959587950A94E2F7992728173907E7
:100B500008F417C18481882309F413C187E0F801E0
:100B60008083EA81FB8124811AC0FC01EA0DFB1D10
:100B7000421B530B808190E04817590708F401C1CC
:100B80008281882331F0B401CE010E945F0481117B
:100B9000F8C0E4E0D801EC93EA81FB8122818C81EA
:100BA0009D81FC01EE0DFF1D2183DDC0D80114964F
:100BB0002D913C9115971296ED91FC91139781819F
:100BC00092818217930708F4BBC0EE81FF81EA0D82
:100BD000FB1D821B930B208130E02817390708F09A
:100BE000C5C08281882331F0B401CE010E945F0428
:100BF0008111C7C0F8018181882309F46AC081503E
:100C00008183B1C0E881F981AA81BB8118968C915A
:100C10008383EC81FD81EE0DFF1D44815581A2810E
:100C2000B38111968D919C91129784179507C0F00E
:100C3000AE81BF81AA0DBB1D6C91262F30E01196AD
:100C40007C917F5F02C0359527957A95E2F7841BEA
:100C5000950B621B262F30E02817390708F48FC048
:100C60007082EA81FB8122818C819D81FC01EE0DE5
:100C7000FF1D218342C0D80114966D917C91159778
:100C80001296ED91FC911397218132812617370737
:100C900058F411968C911197811102C0CC926FC0BB
:100CA0008150F80181836BC0EE81FF81EA0DFB1D4D
:100CB0008081482F50E091819F5F02C055954795F4
:100CC0009A95E2F7261B370B841B90E08217930757
:100CD00060F4D8016C92EA81FB8123818C819D8133
:100CE000FC01EE0DFF1D21834AC0F80181818111B5
:100CF00002C0C08244C0815081832224239433C027
:100D0000F801248135810280F381E02D8181928177
:100D10008217930758F5281B390BEE81FF81EA0DE6
:100D2000FB1D808190E0EA81FB81058002C09595E2
:100D300087950A94E2F799272817390718F4D801FC
:100D4000CC9216C0F801818181110BC050828C8138
:100D50009D81FC01EE0DFF1D0280F381E02DC0821C
:100D600010C081508183DD24D3940BC0F801C08270
:100D70008C819D81FC01EE0DFF1D118202C0222499
:100D80002394FFEF8F1A9F0A83E0A80EB11C52CE66
:100D9000E881F981808187FF23C040E050E020E0B6
:100DA00030E0EA81FB81808191812817390798F42E
:100DB000EC81FD81E40FF51FA281B3818C9180FD50
:100DC00005C09081977F11F081608C932F5F3F4F1A
:100DD0004A5F5F4FE6CFE881F98180818F7780831A
:100DE000D11007C0E881F98121106FC080818E7F0A
:100DF0006EC0EA81FB8181858823A1F3E881F981B6
:100E0000808180688083EA81FB818185813051F710
:100E100040E050E020E030E096E0D92EEA81FB810E
:100E20006081718126173707E8F60C811D81FA0170
:100E3000EE0FFF1FE00FF11F8081982F977FA1F128
:100E4000853811F08330B1F5EE80FF80D701A40F13
:100E5000B51F1296BC90BB2039F180E090E0C12C08
:100E600086179707F8F428173907D1F0D89ED001D4
:100E7000D99EB00D1124A00FB11FAC91A43011F078
:100E8000A63871F4DC01AA0FBB1FA80FB91FAE0D65
:100E9000BF1D1296AC91BA1203C0CB01CC24C394EF
:100EA0000196DECFC11006C00280F381E02D808163
:100EB0008E7F05C00280F381E02D80818160808378
:100EC0002F5F3F4F4D5F5F4FA9CF8081816080834F
:100ED0008091DE409091DF40E881F981218132816B
:100EE000A90148535F4F4817590738F4821B930BE9
:100EF000AA24A394A3E0BA2E44C08217930710F04B
:100F000080E004C1821B930B0197893C9105C0F3DB
:100F1000EFCF885C9109E881F981218132812853E2
:100F20003F4F218332832381211196C024812223C4
:100F300011F021502483E881F9812581222311F0C9
:100F4000215025838A809B80D40116962C91169778
:100F500021111BC08A809B80F4012781211148C088
:100F6000EA81FB812381222361F020E030E0A0E0D0
:100F7000B0E0EA81FB8140815181A417B50708F4F4
:100F80006EC0893C910528F6BBCF08811981F80114
:100F900024812111DFCFED90FC9060E070E040E013
:100FA00050E04E155F05F1F0EC81FD81E60FF71F73
:100FB0002081233011F0283081F424813581C280D2
:100FC000D380D6011196CD90DC9012972C153D055B
:100FD00020F42F5F3F4F248335834F5F5F4F6A5F5D
:100FE0007F4FDFCFF4012681D80114962C93B2CF26
:100FF00008811981D80115962C912111B1CFE0807B
:10100000F18060E070E040E050E04E155F05F1F0E7
:10101000EC81FD81E60FF71F2081233011F028308D
:1010200081F424813581C280D380D6011196CD9080
:10103000DC901297C216D30620F421503109248384
:1010400035834F5F5F4F6A5F7F4FDFCFF4012781AA
:10105000D80115962C9384CF2150238381CFA901E9
:10106000440F551FEC81FD81E40FF51F6081653849
:1010700009F047C06181662319F06150618341C066
:10108000A0826C817D81FB01E40FF51F0280F3815A
:10109000E02DB082EE81FF81E20FF31FD280DD20D0
:1010A00081F140E050E000E010E0EA81FB816081E6
:1010B00071810617170728F5EE81FF81E40FF51FF0
:1010C0006281D61219C0BA01660F771FEC81FD81CB
:1010D0004F01860E971EF401E280F380F701F08045
:1010E000F0FE0AC0F401A082EC81FD81E60FF71F3B
:1010F0000280F381E02DB0820F5F1F4F4D5F5F4F85
:10110000D4CF11962D5F3F4F34CF8BE0DF91CF913D
:101110001F910F91FF90EF90DF90CF90BF90AF9015
:101120009F908F907F906F905F904F903F902F9007
:1011300008959C016115710509F14F5F37FD06C0E7
:10114000442321F04150220F331FF8CF77FD04C014
:101150004F5F660F771FFACF80E090E0442381F065
:1011600097FD0CC0880F991F41502617370718F0BC
:10117000261B370B019676956795F0CF8FEF9FEF83
:101180000895CF93DF93FC01892BB9F12481358138
:101190002115310591F1468157814115510569F1BC
:1011A000A081B1811C9290E0A281B38112968C91B2
:1011B000981708F5D90189E0989FA00DB11D112459
:1011C00011961C921197EA0188E0989FC00DD11DDD
:1011D00011248D8112968C93129713961D921C9256
:1011E000149715961D921C92169717961D921C9295
:1011F00018979F5FD9CF80E001C08BE0DF91CF913E
:1012000008952F923F924F925F926F927F928F92AA
:101210009F92AF92BF92CF92DF92EF92FF920F9385
:101220001F93CF93DF93CDB7DEB76197CDBFDEBFFE
:10123000FC01009709F4DCC2E480F580EA86FB86B5
:10124000EF2809F4D5C2E680F780E886F986EF2812
:1012500009F4CEC2A281B3814D905C904114510437
:1012600009F4C6C28E839F8300E01A82912C16E097
:10127000812EAE81BF811296ED91FC9113978281F0
:10128000981608F0B0C26884798428E0929E600CB9
:10129000711C1124D30111964D915C9112971396F4
:1012A000AC907A01EA0CF11CCA0160E08E159F0532
:1012B00070F4889EF001899EF00D1124E40DF51D57
:1012C0002081253811F4C70161E00196EFCF849E9B
:1012D000F001859EF00D1124EC83FD833497E40D1D
:1012E000F51D26E0A29E500111241A0170E0188A13
:1012F000198A2E143F0408F04FC086819781DC01C3
:1013000011962D913C91129780859185281B390B60
:101310001216130614F020E030E024163506A9F466
:10132000D3018C918130F9F46F01CA0CDB1CD6011A
:101330008D919C91DC0111968D919C911297D60113
:101340001296CD90DC90139709C080819181DC01C9
:1013500011968D919C911297C280D3808C199D0912
:101360001816190614F080E090E0280F391FD301F9
:1013700016968D919C9117972817390740F0888908
:1013800099898217930710F4288B398B71E09FEFAE
:10139000291A390A3696ADCF711101C060E0A9E073
:1013A0009A9E90011124EA84FB84E20EF31EEE86DD
:1013B000FF86D7018C91AE81BF811496ED91FC918F
:1013C0001597B82FB170BD8780FF1EC07F01E20E58
:1013D000F31ED7011796CD90DC901897C601880FA1
:1013E000991F8C0D9D1DA889B9898A0F9B1F969501
:1013F000879596958795D70117968D939C93189707
:10140000772361F061E00AC0CF01820F931FE88863
:10141000F988DC011796ED92FC921897D301BC91E4
:10142000B983B23008F0D4C1D30114961C91103D99
:1014300008F0CEC1611105C0E20FF31F17821086BC
:10144000C8C1F301F381FB83E12EE2949FE0E9221E
:10145000EC86AC80BD80A40CB51CF501BA01212C32
:10146000312C20E030E08B81E82EF12C6A01CE0C8B
:10147000DF1C6C157D05B0F4A281B38111968D91AE
:101480009C911297A481B5818A1B9B0B1816190693
:101490002CF42816390614F41C019B016F5F7F4F52
:1014A0003696E7CF4217530779F59981913009F0C5
:1014B000A1C18C9CF0018D9CF00D11243697E40D98
:1014C000F51DA281B38111966D917C911297848153
:1014D0009581681B790BEC81FD813696E40DF51D35
:1014E000A281B38111968D919C9112970480F58110
:1014F000E02D8E1B9F0B97FF02C080E090E08617C7
:1015000097070CF47BC112C0829EF001839EF00D00
:1015100011243697E40DF51DA281B38111966D91CA
:101520007C91129784819581681B790B90E077FFFD
:1015300002C060E070E0A1E0CA1AD1082C153D0598
:1015400081F4B981B13029F5D5011296ED91FC9164
:101550001397C180D28014960D90BC91A02DF601F6
:1015600014C0F90131968E9ED0018F9EB00D1124CA
:10157000A40DB51D1296ED91FC9113970180F28197
:10158000E02D14960D90BC91A02DEA1BFB0BF7FFEC
:1015900002C0E0E0F0E0BB81B03128F0B4E0AB2E57
:1015A00088E0B82E03C0A12CACE0BA2E913011F423
:1015B000670103C0241B350B69010B2C02C0CC0C46
:1015C000DD1C0A94E2F76E177F07A8F0C1018E1B9D
:1015D0009F0B9C012E1B3F0B620F731F4B2D0E9414
:1015E000990821E030E002C0220F331FBA94E2F7DD
:1015F000821B930B0CC0CF01861B970BF101E61BDE
:10160000F70BBF01680F791F4B2D0E9499088C0DB5
:101610009D1DFB81F33060F02981213019F44A2DA2
:10162000B70104C0B701615071094A2D0E949908A1
:10163000813030E1930710F080E090E1E980E11023
:1016400017C01F70A9F028E2129FA001112484176F
:10165000950718F0841B950B02C080E090E0440FC2
:10166000551F60E070E1641B750B4CE00E94990807
:101670002CE030E0EC842E19310961E070E002C00A
:10168000660F771FEA94E2F7FB01319702C0969547
:1016900087952A95E2F7E817F90708F4CF01FD844A
:1016A000FF20D9F1AE85BF8513964D915C911497BB
:1016B0009C01241B350BB981B130A9F4DB01B6952F
:1016C000A79537FF0AC0B195A195B1092A173B0725
:1016D0000CF096C0260F371F06C0A217B3070CF0F8
:1016E00095C0261B370B21303105C1F02F3F6FEF1E
:1016F0003607A1F037FF09C031952195310936959C
:10170000279531952195310902C036952795240FEB
:10171000351FAF014223532301C0AC01AE85BF8505
:1017200013968D939C931497F301A581EE85FF8505
:1017300065817681F3012481CA01861B970B308174
:101740003130E1F422952F70E1E0F0E002C0EE0FBD
:10175000FF1F2A95E2F79F013695279597FF09C04D
:101760003195219531098217930754F48E0F9F1FED
:1017700005C028173907ACF48E1B9F0B97FF11C0CB
:10178000919581959109EE85FF85228130E028179A
:10179000390714F080E01AC0EE85FF85A18312821C
:1017A0000BC0EE85FF85218130E02817390794F7BB
:1017B000EE85FF851182A2834617570759F3AE8540
:1017C000BF8515964D935C93169782E0816802C0A1
:1017D00002E080E0EE85FF8580838178EA80E82A58
:1017E000EA82939446CDED91FC91EA80E08213C0A9
:1017F0000BE011C060E070E090E09DCE91E09BCEE8
:101800002F3F6FEF360709F077CF88CF21303105B2
:1018100009F070CF83CF802F6196CDBFDEBFDF91FF
:10182000CF911F910F91FF90EF90DF90CF90BF90DD
:10183000AF909F908F907F906F905F904F903F9070
:101840002F900895A0911E41B0911F4125E0AC0159
:10185000249FC001259F900D11241496ED91FC91B9
:101860001597E80FF91F818192818617970781F1FB
:101870008617970718F4681B790B04C09C01261B78
:10188000370BB901ED91FC918281803411F476958A
:10189000679565387105D0F466307105C8F0E3814D
:1018A000E073F0E083E0F695E7958A95E1F7E75776
:1018B000FF4B80819181689F9001699F300D789FD7
:1018C000300D112481E0232B21F402C081E0089522
:1018D00080E008958091E5409091E640A0911E41FE
:1018E000B0911F41ED91FC9111974081518125E00C
:1018F000289FB001299F700D112420E030E084174B
:101900009507A8F41496ED91FC911597E20FF31F3B
:10191000E60FF71FE0812B5F3F4FE0FD02C001960D
:10192000EECF8093E5409093E64080E008951092DA
:10193000E5401092E64081E00895AF92BF92CF92C9
:10194000DF92EF92FF920F931F93CF93DF937C016F
:10195000E0911E41F0911F4184E18E9DE0018F9D39
:10196000D00D1124A281B381AC0FBD1F18962C910C
:10197000189719963C9119971A964C911A971B969D
:101980005C911B971C966C911C971D967C911D97E2
:101990001E968C911E971F969C912093F00708E04D
:1019A0000E948E132093F1070E948E132093F2075A
:1019B0000E948E132093F3070E948E132093F40746
:1019C0000E948E132093F5071092E007A081B18149
:1019D00012968C91803809F44FC0A281B381AC0F6C
:1019E000BD1FCC9011963C91119712964C91129775
:1019F00013965C91139714966C91149715967C919D
:101A0000159716968C91169717969C91C092E80799
:101A10002C2D0E948E13D22E2093E9070E948E1344
:101A2000122F2093EA070E948E13A22E2093EB0719
:101A30000E948E13B22E2093EC070E948E132093E7
:101A4000ED0780819181DC0112968C91813821F41F
:101A500081E08093E00710C0823871F41092E007B3
:101A6000C092F807D092F9071093FA07A092FB07EB
:101A7000B092FC072093FD0725E02E9DC0012F9D0D
:101A8000900D1124A481B581A80FB91F13962D9133
:101A90003C911497A90153704093E4075093E507D4
:101AA00037FD03C01092CA0703C021E02093CA0784
:101AB000A481B581A80FB91F2C9121FF02C025E098
:101AC0002C9324813581D901A80FB91F8C918C7179
:101AD00069F4A281B381AC0FBD1F5296AC91A2955F
:101AE000AF70B0E0AF56BF4B8C9101C08FE18093D7
:101AF000E607A281B381AC0FBD1F50968C918B3746
:101B000010F48C5F01C08FE78093C407A281B3817A
:101B1000AC0FBD1F53968C918093C707A281B381F0
:101B2000AC0FBD1F51968C9182958F708093C90721
:101B300082819381C80FD91F89898F7080688093B3
:101B4000C20781E88093C00781E08093D007DF91CE
:101B5000CF911F910F91FF90EF90DF90CF90BF90AA
:101B6000AF9008952F923F924F925F926F927F9223
:101B70008F929F92AF92BF92CF92DF92EF92FF929D
:101B80000F931F93CF93DF93CDB7DEB72797CDBFCA
:101B9000DEBF8091E440882309F446C200911E41D3
:101BA00010911F4120912041309121412A833B8394
:101BB000C12CD12CA12CB12C212C312C19824424E4
:101BC0004A945524539477247394D8010D90BC9172
:101BD000A02DAE83BF838D919C912816390608F005
:101BE0001FC2AA81BB814D915D91AA83BB83F8017D
:101BF000E480F580EA0CFB1CD7012C91822F8C71BC
:101C000090E096958795969587958230910509F491
:101C1000A0C128F4009759F0019701F1F7C1833072
:101C2000910509F459C1049709F4E1C0EFC102809C
:101C3000F381E02DEC0DFD1D92899F70838998172B
:101C400010F4891B01C080E09A0102C036952795E7
:101C50008A95E2F7F70121833283D8C1828193818B
:101C6000FC01EC0DFD1D4A01038802C09694879487
:101C70000A94E2F7D70111968D929C9212971396CF
:101C80008D919C911497692F661F6627661F81149A
:101C9000B2E09B0630F03FEF831A31E0930A41E057
:101CA00005C0A201481959094A0140E09694879459
:101CB000AE81BF8112963C91303429F0442309F45F
:101CC000B6C1462F06C097FF04C031E0411130E095
:101CD000432FBAE08B16910408F03FC026FD3AC0AE
:101CE00027FD94C1AE81BF8113968C9183708330A0
:101CF00059F4BFE7B08BD8011496ED91FC9115977C
:101D0000EA0DFB1DB1E10DC0823069F48189807F4D
:101D1000818BD8011496ED91FC911597EA0DFB1D6E
:101D2000B9E0B08373C18130A9F481898F70818B50
:101D3000D8011296ED91FC911397EC0DFD1D818950
:101D40008067818B1496ED91FC911597EA0DFB1D30
:101D5000BDE0E7CFF701708259C19C0133702F3F7E
:101D6000F3E03F0731F4E1E8D701EC938FEF93E024
:101D70000BC02115310559F497FF25C0E1E8D701C3
:101D8000EC9380E090E061E0FEE0F9831FC0C901C0
:101D900041110FC0019621E0821A910831E08316AB
:101DA0009104A1F08F3F43E09407A1F70FC0009783
:101DB00069F00197AC01421B530B480D591D41308E
:101DC0005105A9F703C080EF90E061E0D8011496B7
:101DD000ED91FC911597EA0DFB1D70E07727669554
:101DE00077956627862B972B838394830FC1F80101
:101DF000828093808C0C9D1CFA01D40153960C9028
:101E0000539702C0F695E7950A94E2F7EC83FD83B9
:101E100050966C90FFE76F120FC0EC81FD81D701E7
:101E20001196ED93FC931297D40150968C91509794
:101E30008F7B50968C9342C0F12C262D30E0C90147
:101E40000F2C02C0969587950A94E2F780FF03C095
:101E50008F2DF12C01C087E08F5F873010F4F82EB2
:101E6000EECF6C817D81C1010E94220C882351F04C
:101E700081E090E00F2C01C0880F0A94EAF78629D0
:101E8000F401808BD801FF2091F01296ED91FC9126
:101E90001397EC0DFD1DFA9481E090E001C0880FCE
:101EA000FA94EAF7809590898923808B07C014966D
:101EB000ED91FC911597EA0DFB1D7082D8011496E7
:101EC000ED91FC911597EA0DFB1D8081813009F0A1
:101ED0009DC02C813D8183C00280F381E02DEC0DFB
:101EE000FD1D9A01038802C0369527950A94E2F7F2
:101EF0002C833D83918892942FE0922237E09316B1
:101F000091F06C817D81C1010E94220C811104C07D
:101F10009394D7017C9209C0911003C0F70170829D
:101F200004C09A9402C096E0992ED8011296ED91C1
:101F3000FC911397EC0DFD1D81898F70818B12969A
:101F4000ED91FC911397EC0DFD1D929480EF98227A
:101F500036C00280F381E02DEC0DFD1D9A0103884F
:101F600002C0369527950A94E2F72C833D83818938
:101F70008F70982E91F0B901C1010E94220C81113D
:101F800004C09A94D7017C920AC0B7E09B1203C0A8
:101F9000F701708204C0939402C099249394D801ED
:101FA0001296ED91FC911397EC0DFD1D8189807FB8
:101FB000818B1296ED91FC911397EC0DFD1D81899B
:101FC000982A918A1496ED91FC911597EA0DFB1DC4
:101FD0002C813D812183328380818130B9F42115A8
:101FE00042E0340728F02F5F31402C833D8307C047
:101FF000C201AC81BD818A1B9B0B8C839D832C818C
:102000003D812B30310510F035E430834FEF241A39
:10201000340A55E0A50EB11C84E1C80ED11CD5CD03
:1020200082E08093E44009C0B3E0B98306C0492F41
:102030004095441F4427441F4CCE89812796CDBF2D
:10204000DEBFDF91CF911F910F91FF90EF90DF9056
:10205000CF90BF90AF909F908F907F906F905F9048
:102060004F903F902F9008955F926F927F928F9242
:102070009F92AF92BF92CF92DF92EF92FF920F9317
:102080001F93CF93DF93009709F492C0DC01ED9189
:10209000FC916081718140E050E020E030E0B0E0F0
:1020A00010E0F12CE12C912C812C712C612C261745
:1020B000370751F1EC01EA81FB81E40FF51FA080A5
:1020C000A085AA2AB180A185BA2AC280A285CA2A7F
:1020D000D380A385DA2AD481A485DA2BC581A5858E
:1020E000CA2B5680A685A5295780E785E529BA29F8
:1020F0001B29FC28ED289D2A8C2A7A2A6E2A2F5F1C
:102100003F4F4C5E5F4FD3CF2B2F312F4F2D5E2D86
:10211000692D782D872D962DA0E00E94AA1309F431
:1021200049C081E08093E44024EAC22E20E4D22E0C
:10213000C0E0D0E0AA24A394B12C4CE0542E2B2F65
:10214000312F4F2D5E2D692D782D872D962D0C2F3B
:102150000E948E13217030E040E050E060E070E0BB
:1021600080E090E0A0E00E94AA13C9F0F60180810F
:10217000E82FE295E695E770F0E0EE0FFF1FEA56D4
:10218000FF4B0190F081E02D8F71950102C0220F6D
:10219000331F8A95E2F7228326835386258721966B
:1021A0003FEFC31AD30AC033D10549F680E003C01C
:1021B0008BE001C082E0DF91CF911F910F91FF90E2
:1021C000EF90DF90CF90BF90AF909F908F907F90D7
:1021D0006F905F900895009731F080932041909325
:1021E000214180E008958BE008956115710561F14A
:1021F000009751F12091E440222341F1243041F134
:1022000080931E4190931F416093E2407093E3409E
:10221000DC01ED91FC912281203419F41092C10768
:1022200007C0203811F0213831F421E02093C10794
:102230001092CB0711C0223869F421E02093C10726
:1022400029E02093CB0708C08BE0089583E0089530
:1022500081E0089582E008951092C007DC01ED91BD
:10226000FC9184819281903451F41092C5078031A1
:1022700010F4806201C08FE28093C30708C090E22F
:102280009093C3078F3008F08FE08093C50781E0FB
:102290008093D3078093D207809388401092E540C3
:1022A0001092E6400E946A0C81110BC084E080937A
:1022B000E4408091E5409091E6400E949D0C80E0D2
:1022C000089582E08093E44008950097C9F0DC010E
:1022D000ED91FC911197208131812617370790F0FD
:1022E00045E0469F9001479F300D11241496ED91D3
:1022F000FC911597E20FF31F81E0808380E0089541
:102300008BE0089582E00895FC01892BD1F1A08132
:10231000B1818D919C91119786179707A0F1129624
:102320009C910480F581E02D903459F485E0869FDE
:10233000D001879FB00D1124AE0FBF1F80EA90E03F
:102340000DC09058933080F485E0869FD001879F20
:10235000B00D1124AE0FBF1F80EF90E013968D9348
:102360009C93149780E001C082E095E0969F9001D5
:10237000979F300D1124E20FF31F9081926090839C
:1023800008958BE0089582E008952091DA07309156
:10239000DB076091E5407091E640CB01880F991F03
:1023A000E0912041F0912141E80FF91F2083318312
:1023B000A0911E41B0911F4144E1469FC001479F3B
:1023C000900D11241296ED91FC911397E80FF91FCF
:1023D00092899F708389981710F4891B01C080E04F
:1023E00095E0969FA001979F500D11241496ED91B2
:1023F000FC911597E40FF51F02C0369527958A9535
:10240000E2F72183328382E08093E440E091E04070
:10241000F091E14009941092C0078091884081308A
:1024200009F04EC04091DA075091DB078091E540FA
:102430009091E6409C01220F331FE0912041F091E2
:102440002141E20FF31F4083518301968093E540C1
:102450009093E6400E946A0C811109C084E0809349
:10246000E4408091E5409091E6400C949D0C1092E0
:10247000E8071092E9071092EA071092EB07109212
:10248000EC071092ED071092F0071092F1071092EE
:10249000F2071092F3071092F4071092F5071092CA
:1024A000F8071092F9071092FA071092FB071092A2
:1024B000FC071092FD07E091E240F091E34009949F
:1024C0000C94C5110E94D61288F09F5798F0B92F2E
:1024D0009927B751B0F0E1F0660F771F881F991F59
:1024E0001AF0BA95C9F714C0B13091F00E94F012F9
:1024F000B1E008950C94F012672F782F8827B85F09
:1025000039F0B93FCCF3869577956795B395D9F7B0
:102510003EF490958095709561957F4F8F4F9F4FBA
:102520000895E89409C097FB3EF4909580957095C6
:1025300061957F4F8F4F9F4F9923A9F0F92F96E90F
:10254000BB279395F695879577956795B795F11184
:10255000F8CFFAF4BB0F11F460FF1BC06F5F7F4F21
:102560008F4F9F4F16C0882311F096E911C0772333
:1025700021F09EE8872F762F05C0662371F096E83C
:10258000862F70E060E02AF09A95660F771F881F0B
:10259000DAF7880F9695879597F9089557FD905823
:1025A000440F551F59F05F3F71F04795880F97FB17
:1025B000991F61F09F3F79F08795089512161306D1
:1025C0001406551FF2CF4695F1DF08C01616170600
:1025D0001806991FF1CF8695710561050894089535
:1025E000E894BB2766277727CB0197F908950E94C7
:1025F0000A130C947B130E946D1338F00E9474131D
:1026000020F0952311F00C9464130C946A13112498
:102610000C94F1120E94CE1270F3959FC1F3950FA6
:1026200050E0551F629FF001729FBB27F00DB11D56
:10263000639FAA27F00DB11DAA1F649F6627B00DE6
:10264000A11D661F829F2227B00DA11D621F739FCF
:10265000B00DA11D621F839FA00D611D221F749FDD
:102660003327A00D611D231F849F600D211D822F24
:10267000762F6A2F11249F5750409AF0F1F088234B
:102680004AF0EE0FFF1FBB1F661F771F881F915078
:102690005040A9F79E3F510580F00C9464130C94B0
:1026A000F1125F3FE4F3983ED4F3869577956795F2
:1026B000B795F795E7959F5FC1F7FE2B880F911DA2
:1026C0009695879597F9089597F99F6780E870E048
:1026D00060E008959FEF80EC089500240A94161698
:1026E000170618060906089500240A941216130600
:1026F000140605060895092E0394000C11F488238E
:1027000052F0BB0F40F4BF2B11F460FF04C06F5FA9
:102710007F4F8F4F9F4F089597FB10F81694000836
:102720000F93083098F00850232F342F452F562F41
:10273000672F782F892F902DF4CF05949795879543
:102740007795679557954795379527950A95AAF7F1
:102750000F9108950024A7FD00942A173005400525
:10276000500560057005800590050895F894FFCF29
:102770005FB400864A03EB00000000000000AA5589
:10278000016EA0D9402340FD401B40000000038A99
:102790000814000C4101E74037400C412E40140161
:1027A00001140101140101030004000500140514C3
:1027B0000183404740EE40000000000000000000A0
:1027C00001000000000000000530040000000000CF
:1027D0000000008000000000000000000530040040
:1027E00000000000000000000200000000000000E7
:1027F000053004030080300001070013003500900D
:10280000001F0F070301000420044004600480043B
:10281000A004C004000102030405060720212223AE
:1028200024252627606162636465666780818283F0
:1028300084858687A0A1A2A3A4A5A6A7C0C1C2C360
:04284000C4C5C6C77E
:00000001FF
