S00E0000746F756368322E73726563C1
S11300000C9474000C9493000C9493000C949A0038
S11300100C9493000C9493000C9493000C94930010
S11300200C9493000C9493000C9493000C94930000
S11300300C9493000C9493000C9493000C949300F0
S11300400C9493000C9493000C9493000C949300E0
S11300500C9493000C9493000C9493000C949300D0
S11300600C9493000C9493000C9493000C949303BD
S11300700C9493000C9493000C9493000C949300B0
S11300800C9493000C9493000C9493000C949300A0
S11300900C9493000C9493000C9493000C94930090
S11300A00C9493000C9493000C9493000C94930080
S11300B00C9493000C9493000C9493000C94930070
S11300C00C9493000C9493000C9493000C94930060
S11300D00C9493000C9493000C9493000C94930050
S11300E00C9493000C94930011241FBECFEFCDBF4A
S11300F0DFE7DEBF11E4A0E0B0E4E8EBFAE200E001
S11301000BBF02C007900D92A830B107D9F721E4C4
S1130110A8E0B1E401C01D92A235B207E1F70E9444
S1130120C5000C945A150C9400000E940C040E9403
S1130130770208951F920F920FB60F9211240BB6F7
S11301400F922F933F934F935F936F937F938F936C
S11301509F93AF93BF93EF93FF930E940F0382E0AB
S113016080934301FF91EF91BF91AF919F918F9144
S11301707F916F915F914F913F912F910F900BBEA3
S11301800F900FBE0F901F901895CF93DF93CDB7AC
S1130190DEB7E297CDBFDEBF0E9495002CE1E9E80F
S11301A0F0E4CE010196DC0101900D922A95E1F76D
S11301B0882E792E7E012CE1E20EF11C8C01F801CF
S11301C081918F010E9448040E151F05C1F784E038
S11301D08093A00480E090E00E9457030F2EF2E386
S11301E09F2EF02D9E012F5F3F4F69010F2EF5EAE0
S11301F0AF2EF0E4BF2EF02D0E94CA0280910B4175
S11302008130D1F710920B4180E090E00E9470039E
S1130210182F80E090E00E948103F601292D1192AD
S11302202A95E9F71F921F9399279F938F93BF9263
S1130230AF92DF92CF920E947D12CDBFDEBF8823A2
S1130240D9F28150E82EF12CFFEFEF1AFF0AEC0CE3
S1130250FD1C082D172D0E943A048823E1F3F801B0
S113026081918F010E9448040E9440048111FCCFB7
S11302700E151F0581F7C0CF0895CF93C82F0E9494
S11302803A048823E1F38C2F0E9448040E9440041E
S11302908111FCCFCF910895EF92FF920F931F939A
S11302A0CF93DF9300D0CDB7DEB7809108418F7034
S11302B081F400E010E40F2EF3E1EF2EF0E4FF2EC2
S11302C0F02DD8018D918D010E943D010E151F0561
S11302D0C1F785E50E943D01809108410E943D01DE
S11302E019821A8289819A81039708F053C08981FF
S11302F09A810E942103192F0E943D01812F0E949F
S11303003D0189819A810E942E03192F0E943D018B
S1130310812F0E943D0189819A810E9421038C01D1
S113032089819A810E942E03081B190B802F0E9439
S11303303D01812F0E943D0189819A810E943B03E6
S1130340192F0E943D01812F0E943D0189819A81CC
S11303500E944803882324F481E00E943D0103C0E5
S113036080E00E943D0189819A81FC01EE0FFF1F0C
S11303708E0F9F1FFC01E25DFF4B80810E943D01B7
S113038089819A81019689839A8389819A810397C5
S113039008F4ADCF19821A8229813A81E09115407F
S11303A0F0911640828190E02817390708F078C050
S11303B003E110E489819A81FC01EE0FFF1FEE0F27
S11303C0FF1FEE0FFF1F8E0F9F1FD8011496ED9194
S11303D0FC911597E80FF91F808180FF04C081E02C
S11303E00E943D0103C080E00E943D01E981FA8141
S11303F0CF01880F991F880F991F880F991FE80F45
S1130400F91FD80114968D919C911597E80FF91F47
S1130410F08487810E943D018F2D0E943D01E98176
S1130420FA81EE0FFF1FEE0FFF1FEE0FFF1FD80123
S113043016968D919C911797E80FF91FF780868186
S11304400E943D018F2D0E943D01E981FA81CF0177
S1130450880F991F880F991F880F991FE80FF91F9C
S1130460D80114968D919C911597E80FF91FF68089
S113047085810E943D018F2D0E943D0189819A81D1
S1130480019689839A8329813A81D8011296ED9144
S1130490FC911397828190E02817390708F48ACFDA
S11304A080910A410E943D018091084191E0980F9A
S11304B0909308410E943D018AEA0E943D010F90F9
S11304C00F90DF91CF911F910F91FF90EF900895BE
S11304D081E080930C410895E0E4F1E0918192FD84
S11304E0FDCF90E080934A0190934B0108950F93C0
S11304F01F93CF93DF9380E20E946C02E3E3F4E066
S11305008081877F80838081887F84608083E2E329
S1130510F4E08081877F80838081887F846080830A
S1130520E4E3F4E08081877F80838081887F846036
S1130530808381E490E40E94251086E391E40E9484
S1130540DC10C0E0D0E0BE0181E490E40E945611CA
S1130550BE0181E490E40E9475112196C330D10557
S113056091F70EE111E4C0E0A8016C2F86E290E45B
S11305700E94C404CF5F0B5F1F4FC330A9F783E110
S113058090E40E94B2080E943C01DF91CF911F9138
S11305900F91089580910D41813051F468E672E025
S11305A081E490E40E94E610811102C010920D4192
S11305B080910C41813091F510920C410E94A30D61
S11305C0811117C086E290E40E94E304882329F095
S11305D082E080930A410E944C0183E190E40E94EE
S11305E0F208882359F083E080930A410E944C0169
S11305F005C081E080930A410E944C01E0912640AD
S1130600F09127408081882324F481E080930D4178
S113061003C081E080930B410E944C0108958091B6
S11306201D418F5F843118F480931D410895109209
S11306301D4181E080930D4184E190E00E94B90462
S113064008959C01220F331F220F331F820F931F23
S1130650FC01E25EFE4B8181928108959C01220F90
S1130660331F820F931FFC01EE0FFF1FE45CFE4B50
S11306708481958108959C01220F331F220F331F1B
S1130680820F931FFC01E25EFE4B838194810895E7
S11306909C01220F331F820F931F880F991FE09133
S11306A02A40F0912B40E80FF91F80810895CF93E1
S11306B0DF93EC01BC0181E490E40E947511AE016A
S11306C0440F551F440F551F4C0F5D1F425E5E4B78
S11306D06C2F86E290E40E94C404DF91CF910895C8
S11306E09C01220F331F220F331F220F331F820F4F
S11306F0931FE0911740F0911840E80FF91F808193
S113070008959C01220F331F220F331F220F331F22
S1130710820F931FE0911740F0911840E80FF91FE2
S11307208581968108951F920F920FB60F9211241E
S11307300BB60F922F933F934F935F936F937F93D7
S11307408F939F93AF93BF93EF93FF930E94FC11FA
S1130750FF91EF91BF91AF919F918F917F916F9195
S11307605F914F913F912F910F900BBE0F900FBE51
S11307700F901F9018951092890080E0089544E22C
S113078068ED88E690E00E941B0480E00895789468
S113079080E00895E0E1F4E0808188608193E831AD
S11307A084E0F807C9F7E0E3F4E08081886081938E
S11307B0E83384E0F807C9F7E0E5F4E08081886075
S11307C08193E83584E0F807C9F7E0E7F4E0808135
S11307D088608193E83784E0F807C9F7E0E9F4E03A
S11307E0808188608193E83984E0F807C9F7E0EBF9
S11307F0F4E0808188608193E83B84E0F807C9F7DE
S113080008954198E1E5F4E08081877F80834898EA
S1130810409A0E94300408950E94CA030E94BF03B4
S11308200E9401040E942E040E94C7030E94200417
S11308300E94BB0308951BBEFC0164BF408308955E
S1130840E0E4F1E081818111FDCFE0E4F1E081E8B1
S11308508083178282E0828380E0089580E0089597
S1130860E0E2F8E084EC99E08087918780EC86836D
S113087080E008958091240885FB882780F90895F5
S11308808091240886FB882780F991E089270895C0
S1130890E0E2F8E0948195FFFDCF8093220808956B
S11308A0CF92DF92FF920F931F93CF93DF93EC01CC
S11308B0AE81BF81EB01CC0FDD1FC60FD71FCA0F5E
S11308C0DB1FFA80FC0144815581E6E0E69F90013C
S11308D0E79F300D11248A01020F131FF8012281B2
S11308E03381F90121813281F80104811581201BB2
S11308F0310BE8812E1B3109EC01EA81FB81008177
S11309001181FA0140E050E04017510739F14617D0
S11309105707F9F012968C911297F8121AC0808139
S113092085588230E8F0C480D58082819381EC01BF
S113093089819A81C816D90660F48C199D09CC91D5
S1130940D0E0C817D90728F48C1B9D0B281739074A
S113095038F04F5F5F4F13963696D6CF80E001C0D4
S113096081E0DF91CF911F910F91FF90DF90CF90A5
S1130970089520910E4130910F41820F931F80936F
S11309800E4190930F4108950097D9F041155105F8
S1130990C1F026E0629FB0011124DC011496ED91B0
S11309A0FC911597E60FF71F21E0208314968D9193
S11309B09C911597FC01E60FF71F4283538380E057
S11309C008958BE008952F923F924F925F926F9219
S11309D07F928F929F92AF92BF92CF92DF92EF92CB
S11309E0FF920F931F93CF93DF93009709F47EC375
S11309F0EC01A12CB12C812C912C212CD12C55242F
S1130A00539433E0C32E45E8642E56E8752E62E015
S1130A10362E78E0472EEA81FB8180819181881609
S1130A20990608F0A6C17501EE0CFF1CEC81FD814E
S1130A30EE0DFF1DA281B3819C919E7109F050823D
S1130A400C811D810E0D1F1DD8018C91843009F479
S1130A509EC038F48230D1F008F045C0813059F09E
S1130A6081C1853809F4BFC0863809F4F5C08730E0
S1130A7009F078C136C1911167C1F80130828C81C7
S1130A809D81FC01EE0DFF1D41825EC1D8011196CE
S1130A902C911197222329F11296ED91FC91139731
S1130AA0253018F0818192810EC0D80114968D9161
S1130AB09C911597418152818417950769F04817D5
S1130AC0590730F4019714968D939C93159704C09D
S1130AD00196F801848395832150D80111962C93B3
S1130AE033C1F8012DC1D80114962D913C9115976D
S1130AF01296ED91FC911397418152812417350789
S1130B0009F430C18E819F8142175307F8F4EA81BA
S1130B10FB81241B350BDC01AA0DBB1D8C9190E0DD
S1130B20058002C0959587950A94E2F799272817BE
S1130B30390708F417C18481882309F413C187E0B5
S1130B40F8018083EA81FB8124811AC0FC01EA0D4B
S1130B50FB1D421B530B808190E04817590708F492
S1130B6001C18281882331F0B401CE010E94500476
S1130B708111F8C0E4E0D801EC93EA81FB81228181
S1130B808C819D81FC01EE0DFF1D2183DDC0D80108
S1130B9014962D913C9115971296ED91FC91139713
S1130BA0818192818217930708F4BBC0EE81FF8193
S1130BB0EA0DFB1D821B930B208130E028173907B7
S1130BC008F0C5C08281882331F0B401CE010E94AF
S1130BD050048111C7C0F8018181882309F46AC0D7
S1130BE081508183B1C0E881F981AA81BB811896C3
S1130BF08C918383EC81FD81EE0DFF1D4481558131
S1130C00A281B38111968D919C91129784179507B7
S1130C10C0F0AE81BF81AA0DBB1D6C91262F30E0C0
S1130C2011967C917F5F02C0359527957A95E2F7FE
S1130C30841B950B621B262F30E02817390708F414
S1130C408FC07082EA81FB8122818C819D81FC01AD
S1130C50EE0DFF1D218342C0D80114966D917C9145
S1130C6015971296ED91FC911397218132812617E5
S1130C70370758F411968C911197811102C0CC92C8
S1130C806FC08150F80181836BC0EE81FF81EA0D52
S1130C90FB1D8081482F50E091819F5F02C05595D4
S1130CA047959A95E2F7261B370B841B90E0821731
S1130CB0930760F4D8016C92EA81FB8123818C81D3
S1130CC09D81FC01EE0DFF1D21834AC0F801818145
S1130CD0811102C0C08244C08150818322242394A4
S1130CE033C0F801248135810280F381E02D8181B4
S1130CF092818217930758F5281B390BEE81FF81E7
S1130D00EA0DFB1D808190E0EA81FB81058002C031
S1130D10959587950A94E2F799272817390718F4C7
S1130D20D801CC9216C0F801818181110BC0508288
S1130D308C819D81FC01EE0DFF1D0280F381E02D6D
S1130D40C08210C081508183DD24D3940BC0F8018C
S1130D50C0828C819D81FC01EE0DFF1D118202C0B9
S1130D6022242394FFEF8F1A9F0A83E0A80EB11C5C
S1130D7052CEE881F981808187FF23C040E050E0B2
S1130D8020E030E0EA81FB818081918128173907D6
S1130D9098F4EC81FD81E40FF51FA281B3818C915D
S1130DA080FD05C09081977F11F081608C932F5F47
S1130DB03F4F4A5F5F4FE6CFE881F98180818F77AB
S1130DC08083D11007C0E881F98121106FC0808130
S1130DD08E7F6EC0EA81FB8181858823A1F3E8813F
S1130DE0F981808180688083EA81FB8181858130FB
S1130DF051F740E050E020E030E096E0D92EEA815F
S1130E00FB816081718126173707E8F60C811D810B
S1130E10FA01EE0FFF1FE00FF11F8081982F977FDB
S1130E20A1F1853811F08330B1F5EE80FF80D70150
S1130E30A40FB51F1296BC90BB2039F180E090E05E
S1130E40C12C86179707F8F428173907D1F0D89ED4
S1130E50D001D99EB00D1124A00FB11FAC91A430C4
S1130E6011F0A63871F4DC01AA0FBB1FA80FB91F3B
S1130E70AE0DBF1D1296AC91BA1203C0CB01CC24A7
S1130E80C3940196DECFC11006C00280F381E02D29
S1130E9080818E7F05C00280F381E02D8081816096
S1130EA080832F5F3F4F4D5F5F4FA9CF808181606B
S1130EB0808380910E4190910F41E881F9812181D5
S1130EC03281A90148535F4F4817590738F4821BF0
S1130ED0930BAA24A394A3E0BA2E44C082179307C9
S1130EE010F080E004C1821B930B0197893C9105AB
S1130EF0C0F3EFCF885C9109E881F98121813281C7
S1130F0028533F4F218332832381211196C02481AA
S1130F10222311F021502483E881F98125812223A1
S1130F2011F0215025838A809B80D40116962C9140
S1130F30169721111BC08A809B80F40127812111FF
S1130F4048C0EA81FB812381222361F020E030E064
S1130F50A0E0B0E0EA81FB8140815181A417B5078C
S1130F6008F46EC0893C910528F6BBCF088119812D
S1130F70F80124812111DFCFED90FC9060E070E056
S1130F8040E050E04E155F05F1F0EC81FD81E60F85
S1130F90F71F2081233011F0283081F4248135811A
S1130FA0C280D380D6011196CD90DC9012972C1577
S1130FB03D0520F42F5F3F4F248335834F5F5F4F00
S1130FC06A5F7F4FDFCFF4012681D80114962C93FA
S1130FD0B2CF08811981D80115962C912111B1CF76
S1130FE0E080F18060E070E040E050E04E155F0585
S1130FF0F1F0EC81FD81E60FF71F2081233011F021
S1131000283081F424813581C280D380D6011196A1
S1131010CD90DC901297C216D30620F421503109EA
S1131020248335834F5F5F4F6A5F7F4FDFCFF401C7
S11310302781D80115962C9384CF2150238381CF07
S1131040A901440F551FEC81FD81E40FF51F608158
S1131050653809F047C06181662319F061506183E6
S113106041C0A0826C817D81FB01E40FF51F0280E9
S1131070F381E02DB082EE81FF81E20FF31FD28075
S1131080DD2081F140E050E000E010E0EA81FB81E6
S1131090608171810617170728F5EE81FF81E40F3F
S11310A0F51F6281D61219C0BA01660F771FEC8151
S11310B0FD814F01860E971EF401E280F380F70153
S11310C0F080F0FE0AC0F401A082EC81FD81E60FFD
S11310D0F71F0280F381E02DB0820F5F1F4F4D5F39
S11310E05F4FD4CF11962D5F3F4F34CF8BE0DF910C
S11310F0CF911F910F91FF90EF90DF90CF90BF9011
S1131100AF909F908F907F906F905F904F903F90A3
S11311102F9008959C016115710509F14F5F37FD0A
S113112006C0442321F04150220F331FF8CF77FD2E
S113113004C04F5F660F771FFACF80E090E044232E
S113114081F097FD0CC0880F991F4150261737076F
S113115018F0261B370B019676956795F0CF8FEF25
S11311609FEF0895CF93DF93FC01892BB9F124817C
S113117035812115310591F146815781411551057C
S113118069F1A081B1811C9290E0A281B381129691
S11311908C91981708F5D90189E0989FA00DB11D8D
S11311A0112411961C921197EA0188E0989FC00DB2
S11311B0D11D11248D8112968C93129713961D9232
S11311C01C92149715961D921C92169717961D92B1
S11311D01C9218979F5FD9CF80E001C08BE0DF910C
S11311E0CF9108952F923F924F925F926F927F9288
S11311F08F929F92AF92BF92CF92DF92EF92FF9223
S11312000F931F93CF93DF93CDB7DEB76197CDBF15
S1131210DEBFFC01009709F4DCC2E480F580EA86B5
S1131220FB86EF2809F4D5C2E680F780E886F986C4
S1131230EF2809F4CEC2A281B3814D905C90411491
S1131240510409F4C6C28E839F8300E01A82912C54
S113125016E0812EAE81BF811296ED91FC91139719
S11312608281981608F0B0C26884798428E0929E3E
S1131270600C711C1124D30111964D915C9112974D
S11312801396AC907A01EA0CF11CCA0160E08E1549
S11312909F0570F4889EF001899EF00D1124E40DE1
S11312A0F51D2081253811F4C70161E00196EFCFC7
S11312B0849EF001859EF00D1124EC83FD83349708
S11312C0E40DF51D26E0A29E500111241A0170E0E0
S11312D0188A198A2E143F0408F04FC0868197811A
S11312E0DC0111962D913C91129780859185281BE4
S11312F0390B1216130614F020E030E024163506DC
S1131300A9F4D3018C918130F9F46F01CA0CDB1C70
S1131310D6018D919C91DC0111968D919C9112972F
S1131320D6011296CD90DC90139709C080819181EB
S1131330DC0111968D919C911297C280D3808C19F7
S11313409D091816190614F080E090E0280F391F43
S1131350D30116968D919C9117972817390740F061
S1131360888999898217930710F4288B398B71E047
S11313709FEF291A390A3696ADCF711101C060E08A
S1131380A9E09A9E90011124EA84FB84E20EF31EE4
S1131390EE86FF86D7018C91AE81BF811496ED91C4
S11313A0FC911597B82FB170BD8780FF1EC07F01D7
S11313B0E20EF31ED7011796CD90DC901897C60164
S11313C0880F991F8C0D9D1DA889B9898A0F9B1FB1
S11313D09695879596958795D70117968D939C93A7
S11313E01897772361F061E00AC0CF01820F931F41
S11313F0E888F988DC011796ED92FC921897D301DE
S1131400BC91B983B23008F0D4C1D30114961C91B5
S1131410103D08F0CEC1611105C0E20FF31F178221
S11314201086C8C1F301F381FB83E12EE2949FE0AF
S1131430E922EC86AC80BD80A40CB51CF501BA0190
S1131440212C312C20E030E08B81E82EF12C6A0134
S1131450CE0CDF1C6C157D05B0F4A281B38111960E
S11314608D919C911297A481B5818A1B9B0B1816B0
S113147019062CF42816390614F41C019B016F5F1D
S11314807F4F3696E7CF4217530779F5998191300C
S113149009F0A1C18C9CF0018D9CF00D11243697AC
S11314A0E40DF51DA281B38111966D917C91129783
S11314B084819581681B790BEC81FD813696E40D5E
S11314C0F51DA281B38111968D919C911297048090
S11314D0F581E02D8E1B9F0B97FF02C080E090E00A
S11314E0861797070CF47BC112C0829EF001839E7D
S11314F0F00D11243697E40DF51DA281B3811196E8
S11315006D917C91129784819581681B790B90E091
S113151077FF02C060E070E0A1E0CA1AD1082C1580
S11315203D0581F4B981B13029F5D5011296ED91CB
S1131530FC911397C180D28014960D90BC91A02D7C
S1131540F60114C0F90131968E9ED0018F9EB00D24
S11315501124A40DB51D1296ED91FC9113970180F1
S1131560F281E02D14960D90BC91A02DEA1BFB0B8B
S1131570F7FF02C0E0E0F0E0BB81B03128F0B4E056
S1131580AB2E88E0B82E03C0A12CACE0BA2E91306B
S113159011F4670103C0241B350B69010B2C02C035
S11315A0CC0CDD1C0A94E2F76E177F07A8F0C1018A
S11315B08E1B9F0B9C012E1B3F0B620F731F4B2D29
S11315C00E948A0821E030E002C0220F331FBA943F
S11315D0E2F7821B930B0CC0CF01861B970BF10122
S11315E0E61BF70BBF01680F791F4B2D0E948A0879
S11315F08C0D9D1DFB81F33060F02981213019F49D
S11316004A2DB70104C0B701615071094A2D0E94E7
S11316108A08813030E1930710F080E090E1E9809E
S1131620E11017C01F70A9F028E2129FA001112435
S11316308417950718F0841B950B02C080E090E096
S1131640440F551F60E070E1641B750B4CE00E9471
S11316508A082CE030E0EC842E19310961E070E056
S113166002C0660F771FEA94E2F7FB01319702C0CC
S1131670969587952A95E2F7E817F90708F4CF01BC
S1131680FD84FF20D9F1AE85BF8513964D915C9101
S113169014979C01241B350BB981B130A9F4DB01EB
S11316A0B695A79537FF0AC0B195A195B1092A1738
S11316B03B070CF096C0260F371F06C0A217B307CE
S11316C00CF095C0261B370B21303105C1F02F3F9C
S11316D06FEF3607A1F037FF09C031952195310925
S11316E03695279531952195310902C03695279570
S11316F0240F351FAF014223532301C0AC01AE8533
S1131700BF8513968D939C931497F301A581EE8561
S1131710FF8565817681F3012481CA01861B970BBD
S113172030813130E1F422952F70E1E0F0E002C025
S1131730EE0FFF1F2A95E2F79F013695279597FF35
S113174009C03195219531098217930754F48E0FFE
S11317509F1F05C028173907ACF48E1B9F0B97FFFA
S113176011C0919581959109EE85FF85228130E024
S11317702817390714F080E01AC0EE85FF85A1838D
S113178012820BC0EE85FF85218130E028173907CE
S113179094F7EE85FF851182A2834617570759F304
S11317A0AE85BF8515964D935C93169782E081684C
S11317B002C002E080E0EE85FF8580838178EA80C4
S11317C0E82AEA82939446CDED91FC91EA80E08286
S11317D013C00BE011C060E070E090E09DCE91E09A
S11317E09BCE2F3F6FEF360709F077CF88CF21309C
S11317F0310509F070CF83CF802F6196CDBFDEBF56
S1131800DF91CF911F910F91FF90EF90DF90CF90D8
S1131810BF90AF909F908F907F906F905F904F900C
S11318203F902F900895A0914E41B0914F4125E0F3
S1131830AC01249FC001259F900D11241496ED91B5
S1131840FC911597E80FF91F8181928186179707FC
S113185081F18617970718F4681B790B04C09C0163
S1131860261B370BB901ED91FC918281803411F470
S11318707695679565387105D0F466307105C8F0C2
S1131880E381E073F0E083E0F695E7958A95E1F76C
S1131890E354FF4B80819181689F9001699F300DD3
S11318A0789F300D112481E0232B21F402C081E0C4
S11318B0089580E008958091154190911641A0917A
S11318C04E41B0914F41ED91FC911197408151816E
S11318D025E0289FB001299F700D112420E030E0FD
S11318E084179507A8F41496ED91FC911597E20FCF
S11318F0F31FE60FF71FE0812B5F3F4FE0FD02C0AF
S11319000196EECF809315419093164180E008959F
S1131910109215411092164181E00895AF92BF9242
S1131920CF92DF92EF92FF920F931F93CF93DF93A7
S11319307C01E0914E41F0914F4184E18E9DE001A4
S11319408F9DD00D1124A281B381AC0FBD1F1896B9
S11319502C91189719963C9119971A964C911A97AD
S11319601B965C911B971C966C911C971D967C9101
S11319701D971E968C911E971F969C912093F0079D
S113198008E00E9455122093F1070E9455122093FB
S1131990F2070E9455122093F3070E9455122093D8
S11319A0F4070E9455122093F5071092E007A081D6
S11319B0B18112968C91803809F44FC0A281B38111
S11319C0AC0FBD1FCC9011963C91119712964C917F
S11319D0129713965C91139714966C91149715961D
S11319E07C91159716968C91169717969C91C09298
S11319F0E8072C2D0E945512D22E2093E9070E944D
S1131A005512122F2093EA070E945512A22E2093FA
S1131A10EB070E945512B22E2093EC070E94551238
S1131A202093ED0780819181DC0112968C9181389D
S1131A3021F481E08093E00710C0823871F41092A1
S1131A40E007C092F807D092F9071093FA07A09222
S1131A50FB07B092FC072093FD0725E02E9DC001F3
S1131A602F9D900D1124A481B581A80FB91F139641
S1131A702D913C911497A90153704093E40750931E
S1131A80E50737FD03C01092CA0703C021E0209385
S1131A90CA07A481B581A80FB91F2C9121FF02C0E8
S1131AA025E02C9324813581D901A80FB91F8C918D
S1131AB08C7169F4A281B381AC0FBD1F5296AC91B5
S1131AC0A295AF70B0E0AB53BF4B8C9101C08FE1D6
S1131AD08093E607A281B381AC0FBD1F50968C9111
S1131AE08B3710F48C5F01C08FE78093C407A28109
S1131AF0B381AC0FBD1F53968C918093C707A2810D
S1131B00B381AC0FBD1F51968C9182958F708093D9
S1131B10C90782819381C80FD91F89898F70806812
S1131B208093C20781E88093C00781E08093D00747
S1131B30DF91CF911F910F91FF90EF90DF90CF90A5
S1131B40BF90AF9008952F923F924F925F926F9201
S1131B507F928F929F92AF92BF92CF92DF92EF9239
S1131B60FF920F931F93CF93DF93CDB7DEB72797E1
S1131B70CDBFDEBF80911441882309F446C2009191
S1131B804E4110914F4120915041309151412A834F
S1131B903B83C12CD12CA12CB12C212C312C1982AA
S1131BA044244A945524539477247394D8010D9073
S1131BB0BC91A02DAE83BF838D919C9128163906CC
S1131BC008F01FC2AA81BB814D915D91AA83BB839A
S1131BD0F801E480F580EA0CFB1CD7012C91822FDC
S1131BE08C7190E0969587959695879582309105AE
S1131BF009F4A0C128F4009759F0019701F1F7C145
S1131C008330910509F459C1049709F4E1C0EFC187
S1131C100280F381E02DEC0DFD1D92899F70838974
S1131C20981710F4891B01C080E09A0102C0369510
S1131C3027958A95E2F7F70121833283D8C18281FF
S1131C409381FC01EC0DFD1D4A01038802C09694AA
S1131C5087940A94E2F7D70111968D929C92129779
S1131C6013968D919C911497692F661F6627661FA2
S1131C708114B2E09B0630F03FEF831A31E0930AFF
S1131C8041E005C0A201481959094A0140E096946F
S1131C908794AE81BF8112963C91303429F044235D
S1131CA009F4B6C1462F06C097FF04C031E04111C4
S1131CB030E0432FBAE08B16910408F03FC026FDB4
S1131CC03AC027FD94C1AE81BF8113968C91837075
S1131CD0833059F4BFE7B08BD8011496ED91FC9191
S1131CE01597EA0DFB1DB1E10DC0823069F48189BD
S1131CF0807F818BD8011496ED91FC911597EA0DA4
S1131D00FB1DB9E0B08373C18130A9F481898F7060
S1131D10818BD8011296ED91FC911397EC0DFD1D6A
S1131D2081898067818B1496ED91FC911597EA0D5A
S1131D30FB1DBDE0E7CFF701708259C19C013370F0
S1131D402F3FF3E03F0731F4E1E8D701EC938FEF45
S1131D5093E00BC02115310559F497FF25C0E1E844
S1131D60D701EC9380E090E061E0FEE0F9831FC0CE
S1131D70C90141110FC0019621E0821A910831E096
S1131D8083169104A1F08F3F43E09407A1F70FC09D
S1131D90009769F00197AC01421B530B480D591D84
S1131DA041305105A9F703C080EF90E061E0D8010C
S1131DB01496ED91FC911597EA0DFB1D70E07727C1
S1131DC0669577956627862B972B838394830FC11B
S1131DD0F801828093808C0C9D1CFA01D4015396E7
S1131DE00C90539702C0F695E7950A94E2F7EC83BA
S1131DF0FD8350966C90FFE76F120FC0EC81FD815C
S1131E00D7011196ED93FC931297D40150968C91BF
S1131E1050978F7B50968C9342C0F12C262D30E046
S1131E20C9010F2C02C0969587950A94E2F780FFAA
S1131E3003C08F2DF12C01C087E08F5F873010F431
S1131E40F82EEECF6C817D81C1010E94130C882392
S1131E5051F081E090E00F2C01C0880F0A94EAF75A
S1131E608629F401808BD801FF2091F01296ED9120
S1131E70FC911397EC0DFD1DFA9481E090E001C0F4
S1131E80880FFA94EAF7809590898923808B07C09C
S1131E901496ED91FC911597EA0DFB1D7082D80103
S1131EA01496ED91FC911597EA0DFB1D808181300C
S1131EB009F09DC02C813D8183C00280F381E02D17
S1131EC0EC0DFD1D9A01038802C0369527950A94EE
S1131ED0E2F72C833D83918892942FE0922237E09D
S1131EE0931691F06C817D81C1010E94130C8111C4
S1131EF004C09394D7017C9209C0911003C0F701E8
S1131F00708204C09A9402C096E0992ED801129669
S1131F10ED91FC911397EC0DFD1D81898F70818BE0
S1131F201296ED91FC911397EC0DFD1D929480EFA8
S1131F30982236C00280F381E02DEC0DFD1D9A013C
S1131F40038802C0369527950A94E2F72C833D83D3
S1131F5081898F70982E91F0B901C1010E94130CF0
S1131F60811104C09A94D7017C920AC0B7E09B12F5
S1131F7003C0F701708204C0939402C0992493941F
S1131F80D8011296ED91FC911397EC0DFD1D8189FA
S1131F90807F818B1296ED91FC911397EC0DFD1DC2
S1131FA08189982A918A1496ED91FC911597EA0DEE
S1131FB0FB1D2C813D812183328380818130B9F4E2
S1131FC0211542E0340728F02F5F31402C833D83F4
S1131FD007C0C201AC81BD818A1B9B0B8C839D838E
S1131FE02C813D812B30310510F035E430834FEFE7
S1131FF0241A340A55E0A50EB11C84E1C80ED11C84
S1132000D5CD82E08093144109C0B3E0B98306C002
S1132010492F4095441F4427441F4CCE898127965D
S1132020CDBFDEBFDF91CF911F910F91FF90EF9055
S1132030DF90CF90BF90AF909F908F907F906F90E4
S11320405F904F903F902F9008955F926F927F9290
S11320508F929F92AF92BF92CF92DF92EF92FF92B4
S11320600F931F93CF93DF93009709F492C0DC0181
S1132070ED91FC916081718140E050E020E030E01E
S1132080B0E010E0F12CE12C912C812C712C612C0E
S11320902617370751F1EC01EA81FB81E40FF51FA4
S11320A0A080A085AA2AB180A185BA2AC280A2856F
S11320B0CA2AD380A385DA2AD481A485DA2BC581E0
S11320C0A585CA2B5680A685A5295780E785E529CD
S11320D0BA291B29FC28ED289D2A8C2A7A2A6E2AE3
S11320E02F5F3F4F4C5E5F4FD3CF2B2F312F4F2DA0
S11320F05E2D692D782D872D962DA0E00E947112FA
S113210009F449C081E08093144128EDC22E20E4F3
S1132110D22EC0E0D0E0AA24A394B12C4CE0542EDB
S11321202B2F312F4F2D5E2D692D782D872D962D38
S11321300C2F0E945512217030E040E050E060E026
S113214070E080E090E0A0E00E947112C9F0F60116
S11321508081E82FE295E695E770F0E0EE0FFF1F2F
S1132160E653FF4B0190F081E02D8F71950102C081
S1132170220F331F8A95E2F722832683538625870D
S113218021963FEFC31AD30AC033D10549F680E044
S113219003C08BE001C082E0DF91CF911F910F91CA
S11321A0FF90EF90DF90CF90BF90AF909F908F9073
S11321B07F906F905F900895009731F08093504125
S11321C09093514180E008958BE008956115710565
S11321D061F1009751F120911441222341F12430FF
S11321E041F180934E4190934F416093124170931B
S11321F01341DC01ED91FC912281203419F41092F9
S1132200C10707C0203811F0213831F421E02093B0
S1132210C1071092CB0711C0223869F421E0209342
S1132220C10729E02093CB0708C08BE0089583E021
S1132230089581E0089582E008951092C007DC01BA
S1132240ED91FC9184819281903451F41092C507F0
S1132250803110F4806201C08FE28093C30708C00C
S113226090E29093C3078F3008F08FE08093C50706
S113227081E08093D3078093D207809388401092A3
S11322801541109216410E945B0C81110BC084E031
S11322908093144180911541909116410E948E0CB7
S11322A080E0089582E08093144108950097C9F076
S11322B0DC01ED91FC9111972081318126173707BC
S11322C090F045E0469F9001479F300D11241496ED
S11322D0ED91FC911597E20FF31F81E0808380E07C
S11322E008958BE0089582E00895FC01892BD1F1D3
S11322F0A081B1818D919C91119786179707A0F1C8
S113230012969C910480F581E02D903459F485E077
S1132310869FD001879FB00D1124AE0FBF1F80EAA6
S113232090E00DC09058933080F485E0869FD001F2
S1132330879FB00D1124AE0FBF1F80EF90E013965E
S11323408D939C93149780E001C082E095E0969F62
S11323509001979F300D1124E20FF31F908192603A
S1132360908308958BE0089582E008952091DA0720
S11323703091DB076091154170911641CB01880FB4
S1132380991FE0915041F0915141E80FF91F2083CA
S11323903183A0914E41B0914F4144E1469FC00129
S11323A0479F900D11241296ED91FC911397E80F1D
S11323B0F91F92899F708389981710F4891B01C0B3
S11323C080E095E0969FA001979F500D11241496EC
S11323D0ED91FC911597E40FF51F02C036952795F2
S11323E08A95E2F72183328382E080931441E0915D
S11323F01041F091114109941092C00780918840D6
S1132400813009F04EC04091DA075091DB0780918A
S11324101541909116419C01220F331FE0915041C8
S1132420F0915141E20FF31F408351830196809351
S11324301541909316410E945B0C811109C084E000
S11324408093144180911541909116410C948E0C07
S11324501092E8071092E9071092EA071092EB072E
S11324601092EC071092ED071092F0071092F1070A
S11324701092F2071092F3071092F4071092F507E6
S11324801092F8071092F9071092FA071092FB07BE
S11324901092FC071092FD07E0911241F091134154
S11324A009940C94B61197FB10F8169400080F9336
S11324B0083098F00850232F342F452F562F672FBC
S11324C0782F892F902DF4CF05949795879577953C
S11324D0679557954795379527950A95AAF70F91CC
S11324E008950024A7FD00942A17300540055005DF
S11324F0600570058005900508950F931F93CF9391
S1132500DF93CDB7DEB72E97CDBFDEBF0D891E8911
S113251086E08C8309831A838FEF9FE78D839E83E4
S1132520AE01475E5F4F6F89788DCE0101960E94A0
S1132530A612EF81F885E00FF11F10822E96CDBF11
S1132540DEBFDF91CF911F910F9108952F923F929B
S11325504F925F926F927F928F929F92AF92BF92AF
S1132560CF92DF92EF92FF920F931F93CF93DF935B
S1132570CDB7DEB72B97CDBFDEBF6C017B018A01DF
S1132580FC0116821782838181FFCCC1CE010196A2
S11325903C01F6019381F70193FD859193FF8191AD
S11325A07F01882309F4BAC1853239F493FD8591FA
S11325B093FF81917F01853229F4B60190E00E9456
S11325C0C014E7CF912C212C312CFFE1F315D8F066
S11325D08B3279F038F4803279F08332A1F4232DF0
S11325E020611DC08D3261F0803369F4232D216098
S11325F016C0832D8260382EE32DE4603E2E2AC05F
S1132600F32DF8601DC037FC2DC020ED280F2A30B3
S113261040F08E32B9F436FC81C1232D2064322E71
S113262019C036FE06C08AE0989E200D1124922E11
S113263011C0EAE02E9E200D1124222EF32DF0620B
S11326403F2E08C08C3621F4832D8068382E02C0BA
S1132650883641F4F70193FD859193FF81917F01C1
S11326608111B3CF982F9F7D9554933028F40C5F3C
S11326701F4F9FE399830DC0833631F0833771F088
S1132680833509F059C021C0F801808189830E5F28
S11326901F4F88248394912C530113C02801F2E026
S11326A04F0E511CF801A080B18036FE03C0692D85
S11326B070E002C06FEF7FEFC5010E94B5144C01BA
S11326C08201F32DFF773F2E16C0280122E0420E2F
S11326D0511CF801A080B18036FE03C0692D70E062
S11326E002C06FEF7FEFC5010E94AA144C01F32DC5
S11326F0F0683F2E820133FC1BC0822D90E08816C7
S11327009906B0F4B60180E290E00E94C0142A94C5
S1132710F4CFF50137FC859137FE81915F01B60155
S113272090E00E94C01421102A9421E0821A91089A
S11327308114910471F7E8C0843611F0893641F5AB
S1132740F80137FE07C060817181828193810C5F3B
S11327501F4F08C060817181072E000C880B990BF4
S11327600E5F1F4FF32DFF763F2E97FF09C0909504
S11327708095709561957F4F8F4F9F4FF0683F2EE6
S11327802AE030E0A3010E94FC14882E861845C07C
S1132790853731F4232D2F7EB22E2AE030E025C078
S11327A0932D997FB92E8F36C1F018F4883579F0BE
S11327B0B5C0803719F0883721F0B0C0E92FE06147
S11327C0BE2EB4FE0DC0FB2DF460BF2E09C034FE36
S11327D00AC0292F2660B22E06C028E030E005C0CA
S11327E020E130E002C020E132E0F801B7FE07C08A
S11327F060817181828193810C5F1F4F06C060816B
S1132800718180E090E00E5F1F4FA3010E94FC14D1
S1132810882E8618FB2DFF773F2E36FE0DC0232D04
S11328202E7FA22E891458F434FE0BC032FC09C04A
S1132830832D8E7EA82E05C0B82CA32C03C0B82CE3
S113284001C0B92CA4FE0FC0FE01E80DF11D80816A
S1132850803321F49A2D997EA92E09C0A2FE06C0C8
S1132860B394B39404C08A2D867809F0B394A3FC7E
S113287011C0A0FE06C0B21488F4280C922C9B1838
S11328800EC0B21460F4B60180E290E00E94C0145D
S1132890B394F7CFB21418F42B1802C0982C212C3F
S11328A0A4FE10C0B60180E390E00E94C014A2FE12
S11328B017C0A1FC03C088E790E002C088E590E05F
S11328C0B6010CC08A2D867859F0A1FE02C08BE2B5
S11328D001C080E2A7FC8DE2B60190E00E94C01422
S11328E0891438F4B60180E390E00E94C0149A94ED
S11328F0F7CF8A94F301E80DF11D8081B60190E0D1
S11329000E94C0148110F5CF222009F442CEB601F2
S113291080E290E00E94C0142A94F6CFF6018681EA
S1132920978102C08FEF9FEF2B96CDBFDEBFDF9163
S1132930CF911F910F91FF90EF90DF90CF90BF90B8
S1132940AF909F908F907F906F905F904F903F904B
S11329502F900895FC010590615070400110D8F744
S1132960809590958E0F9F1F0895FC0161507040D3
S113297001900110D8F7809590958E0F9F1F0895B0
S11329800F931F93CF93DF93FB01238121FD03C09A
S11329908FEF9FEF2CC022FF16C046815781248100
S11329A035814217530744F4A081B1819D012F5F03
S11329B03F4F208331838C93268137812F5F3F4F94
S11329C02683378314C08B01EC01FB010084F1855D
S11329D0E02D0995892BE1F6D80116968D919C91ED
S11329E01797019616968D939C931797CE01DF91B6
S11329F0CF911F910F910895FA01AA27283051F120
S1132A00203181F1E8946F936E7F6E5F7F4F8F4F1B
S1132A109F4FAF4FB1E03ED0B4E03CD0670F781F7A
S1132A20891F9A1FA11D680F791F8A1F911DA11D5F
S1132A306A0F711D811D911DA11D20D009F4689498
S1132A403F912AE0269F11243019305D3193DEF640
S1132A50CF010895462F4770405D4193B3E00FD0F6
S1132A60C9F7F6CF462F4F70405D4A3318F0495DE1
S1132A7031FD4052419302D0A9F7EACFB4E0A695C4
S1132A809795879577956795BA95C9F700976105E6
S1132A90710508959B01AC010A2E0694579547953C
S1132AA037952795BA95C9F7620F731F841F951F31
S10B2AB0A01D0895F894FFCF66
S1132AB85FB400864A03EB00000000000000AA553A
S1132AC8016EA0094123402D411B40010000038AE7
S1132AD80814003C4101174137403C412E40140181
S1132AE80114010114010103000400050014051474
S1132AF801834047401E4100000000000000000020
S1132B0808000000000000000500040000000000A8
S1132B18000000000400000000000000050004009C
S1132B280000000000000000100000000000000089
S1132B3805000403008030000148656C6C6F206D4B
S1132B4861736F7564207465737420746F7563683A
S1132B583221210A007363726F6C6C65723D2564BF
S1132B682C736174747573653D25640A000700133A
S1132B7800350090001F0F070301000420044004DF
S1132B8860048004A004C0040001020304050607CD
S1132B9820212223242526276061626364656667F1
S1132BA88081828384858687A0A1A2A3A4A5A6A7E1
S10B2BB8C0C1C2C3C4C5C6C7F5
S9030000FC
