:100000000C9474000C9493000C9493000C949A003C
:100010000C9493000C9493000C9493000C94930014
:100020000C9493000C9493000C9493000C94930004
:100030000C9493000C9493000C9493000C949300F4
:100040000C9493000C9493000C9493000C949300E4
:100050000C9493000C9493000C9493000C949300D4
:100060000C9493000C9493000C9493000C94AB02AA
:100070000C9493000C9493000C9493000C949300B4
:100080000C9493000C9493000C9493000C949300A4
:100090000C9493000C9493000C9493000C94930094
:1000A0000C9493000C9493000C9493000C94930084
:1000B0000C9493000C9493000C9493000C94930074
:1000C0000C9493000C9493000C9493000C94930064
:1000D0000C9493000C9493000C9493000C94930054
:1000E0000C9493000C94930011241FBECFEFCDBF4E
:1000F000DFE7DEBF10E4A0E0B0E4ECE1FCE100E00B
:100100000BBF02C007900D92A439B107D9F720E4C4
:10011000A4E9B0E401C01D92AC3BB207E1F70E9434
:1001200004010C940C0E0C9400000E9424030E9405
:10013000FF0108951F920F920FB60F9211240BB674
:100140000F922F933F934F935F936F937F938F9370
:100150009F93AF93BF93EF93FF930E94630282E05C
:1001600080934301FF91EF91BF91AF919F918F9148
:100170007F916F915F914F913F912F910F900BBEA7
:100180000F900FBE0F901F901895CF92DF92EF92B5
:10019000FF9220EE209346046B017C01FF2487E14F
:1001A00090E0E0E4F4E030E220E8B701A601082E98
:1001B00004C076956795579547950A94D2F740FF06
:1001C00002C0358301C036832583ABE2B1E01197CD
:1001D000F1F700C000002683ABE2B1E01197F1F720
:1001E00000C00000019708F7E0E4F4E080E48583B4
:1001F000ABE2B1E01197F1F700C000008683FF90F9
:10020000EF90DF90CF9008950E94950084E0809356
:10021000A004E0E4F4E08081806E808300E010E0E0
:10022000C12CD12C7601C394C701B601002E04C0A5
:10023000660F771F881F991F0A94D2F70E94C50086
:100240002FEF82E597E0215080409040E1F700C019
:1002500000000F5F1F4F0831110531F700EA14E06D
:10026000C4E00E942902809198408130D1F7109219
:10027000984080E090E00E949C02807880939440B7
:10028000882319F0F801C58302C0F801C683809362
:100290009540E7CF0895CF93C82F0E94520388233B
:1002A000E1F38C2F0E9460030E9458038111FCCF60
:1002B000CF910895EF92FF920F931F93CF93DF9307
:1002C00000D0CDB7DEB7809196408F7081F400E00A
:1002D00010E40F2EF3E1EF2EF0E4FF2EF02DF801E5
:1002E00081918F010E944B01E016F106C1F785E56F
:1002F0000E944B01809196400E944B0119821A8204
:1003000089819A81892B09F053C089819A810E9441
:100310007502192F0E944B01812F0E944B01898188
:100320009A810E948202192F0E944B01812F0E9404
:100330004B0189819A810E9475028C0189819A8181
:100340000E948202081B190B802F0E944B01812FF3
:100350000E944B0189819A810E948F02192F0E946D
:100360004B01812F0E944B0189819A810E949C023E
:10037000882324F481E00E944B0103C080E00E94A6
:100380004B0189819A81FC01EE0FFF1F8E0F9F1F89
:10039000FC01E55EFF4B80810E944B0189819A81BF
:1003A000019689839A8389819A81892B09F4ADCF3B
:1003B000809197400E944B018091964091E0980F68
:1003C000909396400E944B018AEA0E944B010F9045
:1003D0000F90DF91CF911F910F91FF90EF900895B3
:1003E00081E0809399400895E0E4F1E0918192FDED
:1003F000FDCF90E080934A0190934B01089580E2F5
:100400000E94F401E6E1F4E08081877F80838081AF
:10041000887F8460808388E290E40E94B40B80EB44
:1004200090E40E946B0C60E070E088E290E40E942F
:10043000E50C60E070E088E290E40E94040D4BEA75
:1004400050E460E083E190E40E94DC030E944A01F2
:10045000089580919A40813051F460EF71E088E214
:1004600090E40E94750C811102C010929A40809114
:100470009940813039F5109299400E9432098111DA
:100480000CC083E190E40E94FB03882359F082E0D2
:10049000809397400E945A0105C081E08093974065
:1004A0000E945A01E0911340F0911440808188230A
:1004B00024F481E080939A4003C081E080939840C7
:1004C0000E945A0108958091AA408F5F843118F4E8
:1004D0008093AA4008951092AA4081E080939A40A8
:1004E00084E190E00E94D10308959C01220F331F04
:1004F000220F331F820F931FFC01E555FF4B8181B3
:10050000928108959C01220F331F820F931FFC01DB
:10051000EE0FFF1FEE54FF4B8481958108959C01DF
:10052000220F331F220F331F820F931FFC01E5554B
:10053000FF4B8381948108959C01220F331F820F0A
:10054000931F880F991FE0911740F0911840E80F12
:10055000F91F808108951F920F920FB60F921124F8
:100560000BB60F922F933F934F935F936F937F93AD
:100570008F939F93AF93BF93EF93FF930E948B0D45
:10058000FF91EF91BF91AF919F918F917F916F916B
:100590005F914F913F912F910F900BBE0F900FBE27
:1005A0000F901F9018951092890080E0089544E202
:1005B00068ED88E690E00E94330380E00895789427
:1005C00080E00895E0E1F4E0808188608193E83183
:1005D00084E0F807C9F7E0E3F4E080818860819364
:1005E000E83384E0F807C9F7E0E5F4E0808188604B
:1005F0008193E83584E0F807C9F7E0E7F4E080810B
:1006000088608193E83784E0F807C9F7E0E9F4E00F
:10061000808188608193E83984E0F807C9F7E0EBCE
:10062000F4E0808188608193E83B84E0F807C9F7B3
:1006300008954198E1E5F4E08081877F80834898C0
:10064000409A0E94480308950E94E2020E94D70245
:100650000E9419030E9446030E94DF020E94380391
:100660000E94D30208951BBEFC0164BF408308951D
:10067000E0E4F1E081818111FDCFE0E4F1E081E887
:100680008083178282E0828380E0089580E008956D
:10069000E0E2F8E083E896E08087918780EC86834B
:1006A00080E008958091240885FB882780F90895CB
:1006B0008091240886FB882780F991E08927089596
:1006C000E0E2F8E0948195FFFDCF80932208089541
:1006D000CF92DF92FF920F931F93CF93DF93EC01A2
:1006E000AE81BF81EB01CC0FDD1FC60FD71FCA0F34
:1006F000DB1FFA80FC0144815581E6E0E69F900112
:10070000E79F300D11248A01020F131FF801228187
:100710003381F90121813281F80104811581201B87
:10072000310BE8812E1B3109EC01EA81FB8100814C
:100730001181FA0140E050E04017510739F14617A6
:100740005707F9F012968C911297F8121AC080810F
:1007500085588230E8F0C480D58082819381EC0195
:1007600089819A81C816D90660F48C199D09CC91AB
:10077000D0E0C817D90728F48C1B9D0B2817390720
:1007800038F04F5F5F4F13963696D6CF80E001C0AA
:1007900081E0DF91CF911F910F91FF90DF90CF907B
:1007A000089520919B4030919C40820F931F80932D
:1007B0009B4090939C4008950097D9F041155105B6
:1007C000C1F026E0629FB0011124DC011496ED9186
:1007D000FC911597E60FF71F21E0208314968D9169
:1007E0009C911597FC01E60FF71F4283538380E02D
:1007F00008958BE008952F923F924F925F926F92EF
:100800007F928F929F92AF92BF92CF92DF92EF92A0
:10081000FF920F931F93CF93DF93009709F47EC34A
:10082000EC01A12CB12C812C912C212CD12C552404
:10083000539433E0C32E45E8642E56E8752E62E0EB
:10084000362E78E0472EEA81FB81808191818816DF
:10085000990608F0A6C17501EE0CFF1CEC81FD8124
:10086000EE0DFF1DA281B3819C919E7109F0508213
:100870000C811D810E0D1F1DD8018C91843009F44F
:100880009EC038F48230D1F008F045C0813059F074
:1008900081C1853809F4BFC0863809F4F5C08730B6
:1008A00009F078C136C1911167C1F80130828C819D
:1008B0009D81FC01EE0DFF1D41825EC1D8011196A4
:1008C0002C911197222329F11296ED91FC91139707
:1008D000253018F0818192810EC0D80114968D9137
:1008E0009C911597418152818417950769F04817AB
:1008F000590730F4019714968D939C93159704C073
:100900000196F801848395832150D80111962C9388
:1009100033C1F8012DC1D80114962D913C91159742
:100920001296ED91FC91139741815281241735075E
:1009300009F430C18E819F8142175307F8F4EA8190
:10094000FB81241B350BDC01AA0DBB1D8C9190E0B3
:10095000058002C0959587950A94E2F79927281794
:10096000390708F417C18481882309F413C187E08B
:10097000F8018083EA81FB8124811AC0FC01EA0D21
:10098000FB1D421B530B808190E04817590708F468
:1009900001C18281882331F0B401CE010E94680335
:1009A0008111F8C0E4E0D801EC93EA81FB81228157
:1009B0008C819D81FC01EE0DFF1D2183DDC0D801DE
:1009C00014962D913C9115971296ED91FC911397E9
:1009D000818192818217930708F4BBC0EE81FF8169
:1009E000EA0DFB1D821B930B208130E0281739078D
:1009F00008F0C5C08281882331F0B401CE010E9485
:100A000068038111C7C0F8018181882309F46AC095
:100A100081508183B1C0E881F981AA81BB81189698
:100A20008C918383EC81FD81EE0DFF1D4481558106
:100A3000A281B38111968D919C911297841795078D
:100A4000C0F0AE81BF81AA0DBB1D6C91262F30E096
:100A500011967C917F5F02C0359527957A95E2F7D4
:100A6000841B950B621B262F30E02817390708F4EA
:100A70008FC07082EA81FB8122818C819D81FC0183
:100A8000EE0DFF1D218342C0D80114966D917C911B
:100A900015971296ED91FC911397218132812617BB
:100AA000370758F411968C911197811102C0CC929E
:100AB0006FC08150F80181836BC0EE81FF81EA0D28
:100AC000FB1D8081482F50E091819F5F02C05595AA
:100AD00047959A95E2F7261B370B841B90E0821707
:100AE000930760F4D8016C92EA81FB8123818C81A9
:100AF0009D81FC01EE0DFF1D21834AC0F80181811B
:100B0000811102C0C08244C0815081832224239479
:100B100033C0F801248135810280F381E02D818189
:100B200092818217930758F5281B390BEE81FF81BC
:100B3000EA0DFB1D808190E0EA81FB81058002C007
:100B4000959587950A94E2F799272817390718F49D
:100B5000D801CC9216C0F801818181110BC050825E
:100B60008C819D81FC01EE0DFF1D0280F381E02D43
:100B7000C08210C081508183DD24D3940BC0F80162
:100B8000C0828C819D81FC01EE0DFF1D118202C08F
:100B900022242394FFEF8F1A9F0A83E0A80EB11C32
:100BA00052CEE881F981808187FF23C040E050E088
:100BB00020E030E0EA81FB818081918128173907AC
:100BC00098F4EC81FD81E40FF51FA281B3818C9133
:100BD00080FD05C09081977F11F081608C932F5F1D
:100BE0003F4F4A5F5F4FE6CFE881F98180818F7781
:100BF0008083D11007C0E881F98121106FC0808106
:100C00008E7F6EC0EA81FB8181858823A1F3E88114
:100C1000F981808180688083EA81FB8181858130D0
:100C200051F740E050E020E030E096E0D92EEA8134
:100C3000FB816081718126173707E8F60C811D81E1
:100C4000FA01EE0FFF1FE00FF11F8081982F977FB1
:100C5000A1F1853811F08330B1F5EE80FF80D70126
:100C6000A40FB51F1296BC90BB2039F180E090E034
:100C7000C12C86179707F8F428173907D1F0D89EAA
:100C8000D001D99EB00D1124A00FB11FAC91A4309A
:100C900011F0A63871F4DC01AA0FBB1FA80FB91F11
:100CA000AE0DBF1D1296AC91BA1203C0CB01CC247D
:100CB000C3940196DECFC11006C00280F381E02DFF
:100CC00080818E7F05C00280F381E02D808181606C
:100CD00080832F5F3F4F4D5F5F4FA9CF8081816041
:100CE000808380919B4090919C40E881F981218193
:100CF0003281A90148535F4F4817590738F4821BC6
:100D0000930BAA24A394A3E0BA2E44C0821793079E
:100D100010F080E004C1821B930B0197893C910580
:100D2000C0F3EFCF885C9109E881F981218132819C
:100D300028533F4F218332832381211196C0248180
:100D4000222311F021502483E881F9812581222377
:100D500011F0215025838A809B80D40116962C9116
:100D6000169721111BC08A809B80F40127812111D5
:100D700048C0EA81FB812381222361F020E030E03A
:100D8000A0E0B0E0EA81FB8140815181A417B50762
:100D900008F46EC0893C910528F6BBCF0881198103
:100DA000F80124812111DFCFED90FC9060E070E02C
:100DB00040E050E04E155F05F1F0EC81FD81E60F5B
:100DC000F71F2081233011F0283081F424813581F0
:100DD000C280D380D6011196CD90DC9012972C154D
:100DE0003D0520F42F5F3F4F248335834F5F5F4FD6
:100DF0006A5F7F4FDFCFF4012681D80114962C93D0
:100E0000B2CF08811981D80115962C912111B1CF4B
:100E1000E080F18060E070E040E050E04E155F055A
:100E2000F1F0EC81FD81E60FF71F2081233011F0F6
:100E3000283081F424813581C280D380D601119677
:100E4000CD90DC901297C216D30620F421503109C0
:100E5000248335834F5F5F4F6A5F7F4FDFCFF4019D
:100E60002781D80115962C9384CF2150238381CFDD
:100E7000A901440F551FEC81FD81E40FF51F60812E
:100E8000653809F047C06181662319F061506183BC
:100E900041C0A0826C817D81FB01E40FF51F0280BF
:100EA000F381E02DB082EE81FF81E20FF31FD2804B
:100EB000DD2081F140E050E000E010E0EA81FB81BC
:100EC000608171810617170728F5EE81FF81E40F15
:100ED000F51F6281D61219C0BA01660F771FEC8127
:100EE000FD814F01860E971EF401E280F380F70129
:100EF000F080F0FE0AC0F401A082EC81FD81E60FD3
:100F0000F71F0280F381E02DB0820F5F1F4F4D5F0E
:100F10005F4FD4CF11962D5F3F4F34CF8BE0DF91E1
:100F2000CF911F910F91FF90EF90DF90CF90BF90E6
:100F3000AF909F908F907F906F905F904F903F9079
:100F40002F900895A091B840B091B94025E0AC0130
:100F5000249FC001259F900D11241496ED91FC91C2
:100F60001597E80FF91F818192818617970781F104
:100F70008617970718F4681B790B04C09C01261B81
:100F8000370BB901ED91FC918281803411F4769593
:100F9000679565387105D0F466307105C8F0E38156
:100FA000E073F0E083E0F695E7958A95E1F7E85B7A
:100FB000FF4B80819181689F9001699F300D789FE0
:100FC000300D112481E0232B21F402C081E008952B
:100FD00080E008958091A2409091A340A091B840F4
:100FE000B091B940ED91FC9111974081518125E07C
:100FF000289FB001299F700D112420E030E0841754
:101000009507A8F41496ED91FC911597E20FF31F44
:10101000E60FF71FE0812B5F3F4FE0FD02C0019616
:10102000EECF8093A2409093A34080E00895109269
:10103000A2401092A34081E00895AF92BF92CF9258
:10104000DF92EF92FF920F931F93CF93DF937C0178
:10105000E091B840F091B94084E18E9DE0018F9D10
:10106000D00D1124A281B381AC0FBD1F18962C9115
:10107000189719963C9119971A964C911A971B96A6
:101080005C911B971C966C911C971D967C911D97EB
:101090001E968C911E971F969C912093F00708E056
:1010A0000E94E40D2093F1070E94E40D2093F207C3
:1010B0000E94E40D2093F3070E94E40D2093F407AF
:1010C0000E94E40D2093F5071092E007A081B18102
:1010D00012968C91803809F44FC0A281B381AC0F75
:1010E000BD1FCC9011963C91119712964C9112977E
:1010F00013965C91139714966C91149715967C91A6
:10110000159716968C91169717969C91C092E807A2
:101110002C2D0E94E40DD22E2093E9070E94E40DAD
:10112000122F2093EA070E94E40DA22E2093EB07D2
:101130000E94E40DB22E2093EC070E94E40D209350
:10114000ED0780819181DC0112968C91813821F428
:1011500081E08093E00710C0823871F41092E007BC
:10116000C092F807D092F9071093FA07A092FB07F4
:10117000B092FC072093FD0725E02E9DC0012F9D16
:10118000900D1124A481B581A80FB91F13962D913C
:101190003C911497A90153704093E4075093E507DD
:1011A00037FD03C01092CA0703C021E02093CA078D
:1011B000A481B581A80FB91F2C9121FF02C025E0A1
:1011C0002C9324813581D901A80FB91F8C918C7182
:1011D00069F4A281B381AC0FBD1F5296AC91A29568
:1011E000AF70B0E0A05BBF4B8C9101C08FE18093EA
:1011F000E607A281B381AC0FBD1F50968C918B374F
:1012000010F48C5F01C08FE78093C407A281B38183
:10121000AC0FBD1F53968C918093C707A281B381F9
:10122000AC0FBD1F51968C9182958F708093C9072A
:1012300082819381C80FD91F89898F7080688093BC
:10124000C20781E88093C00781E08093D007DF91D7
:10125000CF911F910F91FF90EF90DF90CF90BF90B3
:10126000AF9008952F923F924F925F926F927F922C
:101270008F929F92AF92BF92CF92DF92EF92FF92A6
:101280000F931F93CF93DF93CDB7DEB72797CDBFD3
:10129000DEBF8091A140882309F446C20091B84086
:1012A0001091B9402091BA403091BB402A833B83D2
:1012B000C12CD12CA12CB12C212C312C19824424ED
:1012C0004A945524539477247394D8010D90BC917B
:1012D000A02DAE83BF838D919C912816390608F00E
:1012E0001FC2AA81BB814D915D91AA83BB83F80186
:1012F000E480F580EA0CFB1CD7012C91822F8C71C5
:1013000090E096958795969587958230910509F49A
:10131000A0C128F4009759F0019701F1F7C183307B
:10132000910509F459C1049709F4E1C0EFC10280A5
:10133000F381E02DEC0DFD1D92899F708389981734
:1013400010F4891B01C080E09A0102C036952795F0
:101350008A95E2F7F70121833283D8C18281938194
:10136000FC01EC0DFD1D4A01038802C09694879490
:101370000A94E2F7D70111968D929C9212971396D8
:101380008D919C911497692F661F6627661F8114A3
:10139000B2E09B0630F03FEF831A31E0930A41E060
:1013A00005C0A201481959094A0140E09694879462
:1013B000AE81BF8112963C91303429F0442309F468
:1013C000B6C1462F06C097FF04C031E0411130E09E
:1013D000432FBAE08B16910408F03FC026FD3AC0B7
:1013E00027FD94C1AE81BF8113968C9183708330A9
:1013F00059F4BFE7B08BD8011496ED91FC91159785
:10140000EA0DFB1DB1E10DC0823069F48189807F56
:10141000818BD8011496ED91FC911597EA0DFB1D77
:10142000B9E0B08373C18130A9F481898F70818B59
:10143000D8011296ED91FC911397EC0DFD1D818959
:101440008067818B1496ED91FC911597EA0DFB1D39
:10145000BDE0E7CFF701708259C19C0133702F3F87
:10146000F3E03F0731F4E1E8D701EC938FEF93E02D
:101470000BC02115310559F497FF25C0E1E8D701CC
:10148000EC9380E090E061E0FEE0F9831FC0C901C9
:1014900041110FC0019621E0821A910831E08316B4
:1014A0009104A1F08F3F43E09407A1F70FC000978C
:1014B00069F00197AC01421B530B480D591D413097
:1014C0005105A9F703C080EF90E061E0D8011496C0
:1014D000ED91FC911597EA0DFB1D70E0772766955D
:1014E00077956627862B972B838394830FC1F8010A
:1014F000828093808C0C9D1CFA01D40153960C9031
:10150000539702C0F695E7950A94E2F7EC83FD83C2
:1015100050966C90FFE76F120FC0EC81FD81D701F0
:101520001196ED93FC931297D40150968C9150979D
:101530008F7B50968C9342C0F12C262D30E0C90150
:101540000F2C02C0969587950A94E2F780FF03C09E
:101550008F2DF12C01C087E08F5F873010F4F82EBB
:10156000EECF6C817D81C1010E94A207882351F0DA
:1015700081E090E00F2C01C0880F0A94EAF78629D9
:10158000F401808BD801FF2091F01296ED91FC912F
:101590001397EC0DFD1DFA9481E090E001C0880FD7
:1015A000FA94EAF7809590898923808B07C0149676
:1015B000ED91FC911597EA0DFB1D7082D8011496F0
:1015C000ED91FC911597EA0DFB1D8081813009F0AA
:1015D0009DC02C813D8183C00280F381E02DEC0D04
:1015E000FD1D9A01038802C0369527950A94E2F7FB
:1015F0002C833D83918892942FE0922237E09316BA
:1016000091F06C817D81C1010E94A207811104C00B
:101610009394D7017C9209C0911003C0F7017082A6
:1016200004C09A9402C096E0992ED8011296ED91CA
:10163000FC911397EC0DFD1D81898F70818B1296A3
:10164000ED91FC911397EC0DFD1D929480EF982283
:1016500036C00280F381E02DEC0DFD1D9A01038858
:1016600002C0369527950A94E2F72C833D83818941
:101670008F70982E91F0B901C1010E94A2078111CB
:1016800004C09A94D7017C920AC0B7E09B1203C0B1
:10169000F701708204C0939402C099249394D801F6
:1016A0001296ED91FC911397EC0DFD1D8189807FC1
:1016B000818B1296ED91FC911397EC0DFD1D8189A4
:1016C000982A918A1496ED91FC911597EA0DFB1DCD
:1016D0002C813D812183328380818130B9F42115B1
:1016E00042E0340728F02F5F31402C833D8307C050
:1016F000C201AC81BD818A1B9B0B8C839D832C8195
:101700003D812B30310510F035E430834FEF241A42
:10171000340A55E0A50EB11C84E1C80ED11CD5CD0C
:1017200082E08093A14009C0B3E0B98306C0492F8D
:101730004095441F4427441F4CCE89812796CDBF36
:10174000DEBFDF91CF911F910F91FF90EF90DF905F
:10175000CF90BF90AF909F908F907F906F905F9051
:101760004F903F902F9008955F926F927F928F924B
:101770009F92AF92BF92CF92DF92EF92FF920F9320
:101780001F93CF93DF93009709F492C0DC01ED9192
:10179000FC916081718140E050E020E030E0B0E0F9
:1017A00010E0F12CE12C912C812C712C612C26174E
:1017B000370751F1EC01EA81FB81E40FF51FA080AE
:1017C000A085AA2AB180A185BA2AC280A285CA2A88
:1017D000D380A385DA2AD481A485DA2BC581A58597
:1017E000CA2B5680A685A5295780E785E529BA2901
:1017F0001B29FC28ED289D2A8C2A7A2A6E2A2F5F25
:101800003F4F4C5E5F4FD3CF2B2F312F4F2D5E2D8F
:10181000692D782D872D962DA0E00E94000E09F4E9
:1018200049C081E08093A14023E6C22E20E4D22E5D
:10183000C0E0D0E0AA24A394B12C4CE0542E2B2F6E
:10184000312F4F2D5E2D692D782D872D962D0C2F44
:101850000E94E40D217030E040E050E060E070E074
:1018600080E090E0A0E00E94000EC9F0F6018081C7
:10187000E82FE295E695E770F0E0EE0FFF1FEB5AD8
:10188000FF4B0190F081E02D8F71950102C0220F76
:10189000331F8A95E2F72283268353862587219674
:1018A0003FEFC31AD30AC033D10549F680E003C025
:1018B0008BE001C082E0DF91CF911F910F91FF90EB
:1018C000EF90DF90CF90BF90AF909F908F907F90E0
:1018D0006F905F900895009731F08093BA40909395
:1018E000BB4080E008958BE008956115710561F1BA
:1018F000009751F12091A140222341F1243041F180
:101900008093B8409093B94060939F407093A040FB
:10191000DC01ED91FC912281203419F41092C10771
:1019200007C0203811F0213831F421E02093C1079D
:101930001092CB0711C0223869F421E02093C1072F
:1019400029E02093CB0708C08BE0089583E0089539
:1019500081E0089582E008951092C007DC01ED91C6
:10196000FC9184819281903451F41092C5078031AA
:1019700010F4806201C08FE28093C30708C090E238
:101980009093C3078F3008F08FE08093C50781E004
:101990008093D3078093D207809347401092A24050
:1019A0001092A3400E94EA0781110BC084E080934B
:1019B000A1408091A2409091A3400E941D0880E028
:1019C000089582E08093A14008950097C9F0DC015A
:1019D000ED91FC911197208131812617370790F006
:1019E00045E0469F9001479F300D11241496ED91DC
:1019F000FC911597E20FF31F81E0808380E008954A
:101A00008BE0089582E00895FC01892BD1F1A0813B
:101A1000B1818D919C91119786179707A0F112962D
:101A20009C910480F581E02D903459F485E0869FE7
:101A3000D001879FB00D1124AE0FBF1F80EA90E048
:101A40000DC09058933080F485E0869FD001879F29
:101A5000B00D1124AE0FBF1F80EF90E013968D9351
:101A60009C93149780E001C082E095E0969F9001DE
:101A7000979F300D1124E20FF31F908192609083A5
:101A800008958BE0089582E008952091DA0730915F
:101A9000DB076091A2407091A340CB01880F991F92
:101AA000E091BA40F091BB40E80FF91F20833183E9
:101AB000A091B840B091B94044E1469FC001479F12
:101AC000900D11241296ED91FC911397E80FF91FD8
:101AD00092899F708389981710F4891B01C080E058
:101AE00095E0969FA001979F500D11241496ED91BB
:101AF000FC911597E40FF51F02C0369527958A953E
:101B0000E2F72183328382E08093A140E0919D40FF
:101B1000F0919E4009941092C00780914740813017
:101B200009F04EC04091DA075091DB078091A24046
:101B30009091A3409C01220F331FE091BA40F09195
:101B4000BB40E20FF31F4083518301968093A24074
:101B50009093A3400E94EA07811109C084E080931A
:101B6000A1408091A2409091A3400C941D08109236
:101B7000E8071092E9071092EA071092EB0710921B
:101B8000EC071092ED071092F0071092F1071092F7
:101B9000F2071092F3071092F4071092F5071092D3
:101BA000F8071092F9071092FA071092FB071092AB
:101BB000FC071092FD07E0919F40F091A04009942E
:101BC0000C94450D97FB10F8169400080F930830FD
:101BD00098F00850232F342F452F562F672F782F3A
:101BE000892F902DF4CF05949795879577956795D4
:101BF00057954795379527950A95AAF70F91089518
:101C00000024A7FD00942A17300540055005600503
:0C1C10007005800590050895F894FFCF42
:101C1C005FB400864A03EB00000000000000AA55E8
:101C2C00016EA0A4401E40B2401B401401000100F4
:101C3C00040005001405140142402E40AB40000086
:101C4C000000000000004000000000000000000543
:101C5C0020040100803000010700130035009000C3
:101C6C001F0F07030100042004400460048004A03B
:101C7C0004C00400010203040506072021222324CA
:101C8C002526276061626364656667808182838430
:101C9C00858687A0A1A2A3A4A5A6A7C0C1C2C3C4C0
:041CAC00C5C6C700E2
:00000001FF
