S00F0000737572666163652E737265632C
S11300000C9474000C9493000C9493000C949A0038
S11300100C9493000C9493000C9493000C94930010
S11300200C9493000C9493000C9493000C94930000
S11300300C9493000C9493000C9493000C949300F0
S11300400C9493000C9493000C9493000C949300E0
S11300500C9493000C9493000C9493000C949300D0
S11300600C9493000C9493000C9493000C94D2037E
S11300700C9493000C9493000C9493000C949300B0
S11300800C9493000C9493000C9493000C949300A0
S11300900C9493000C9493000C9493000C94930090
S11300A00C9493000C9493000C9493000C94930080
S11300B00C9493000C9493000C9493000C94930070
S11300C00C9493000C9493000C9493000C94930060
S11300D00C9493000C9493000C9493000C94930050
S11300E00C9493000C94930011241FBECFEFCDBF4A
S11300F0DFE7DEBF12E4A0E0B0E4EAE3FBE300E004
S11301000BBF02C007900D92A632B107D9F723E4C2
S1130110A6E2B2E401C01D92AA30B207E1F70E9440
S11301203A010C949B1D0C9400000E944B040E9405
S1130130890208951F920F920FB60F9211240BB6E5
S11301400F922F933F934F935F936F937F938F936C
S11301509F93AF93BF93EF93FF930E94490382E071
S113016080934301FF91EF91BF91AF919F918F9144
S11301707F916F915F914F913F912F910F900BBEA3
S11301800F900FBE0F901F90189580E090E00E9492
S1130190C30380788093264281E090E00E94C303E9
S11301A080788093264282E090E00E94C3038078A6
S11301B08093264283E090E00E94C303807880937A
S11301C0264284E090E00E94C30380788093264214
S11301D085E090E00E94C3038078809326420895CE
S11301E00E94F90280912B42813021F410922B421B
S11301F00E94C5000895CF92DF92EF92FF9220EE05
S1130200209346046B017C01FF2487E190E0E0E445
S1130210F4E030E220E8B701A601082E04C0769588
S11302206795579547950A94D2F740FF02C03583E6
S113023001C036832583ABE2B1E01197F1F700C02A
S113024000002683ABE2B1E01197F1F700C0000093
S1130250019708F7E0E4F4E080E48583ABE2B1E0E1
S11302601197F1F700C000008683FF90EF90DF90B4
S1130270CF9008950E94950084E08093A004E0E468
S1130280F4E08081806E8083C0E0D0E0C12CD12C6A
S11302907601C394C701B6010C2E04C0660F771F04
S11302A0881F991F0A94D2F70E94FB008FEF92E5F2
S11302B027E0815090402040E1F700C000002196E3
S11302C0C931D10539F70E94F000FDCF0895CF93CD
S11302D0C82F0E9479048823E1F38C2F0E9487049D
S11302E00E947F048111FCCFCF910895EF92FF9279
S11302F00F931F93CF93DF9300D0CDB7DEB78091D8
S113030027428F7081F400E010E40F2EF3E1EF2E0A
S1130310F0E4FF2EF02DD8018D918D010E9467012C
S11303200E151F05C1F785E50E94670180912742DC
S11303300E94670119821A8289819A81069708F0BE
S113034053C089819A810E949C03192F0E946701DE
S1130350812F0E94670189819A810E94A903192F24
S11303600E946701812F0E94670189819A810E94FE
S11303709C038C0189819A810E94A903081B190B93
S1130380802F0E946701812F0E94670189819A81D1
S11303900E94B603192F0E946701812F0E946701F2
S11303A089819A810E94C303882324F481E00E94F6
S11303B0670103C080E00E94670189819A81FC0182
S11303C0EE0FFF1F8E0F9F1FFC01E45BFF4B80812C
S11303D00E94670189819A81019689839A83898120
S11303E09A81069708F4ADCF19821A8289819A817D
S11303F0029708F060C001E310E40F2EFBE0FF2E2B
S1130400F02D29813A81F29EC001F39E900D1124B2
S1130410D8011296ED91FC911397E80FF91F808192
S11304200E94670129813A81F29EC001F39E900DDA
S11304301124D8011296ED91FC911397E80FF91F3E
S1130440E48083810E9467018E2D0E9467012981C7
S11304503A81F29EC001F39E900D1124D8011296A8
S1130460ED91FC911397E80FF91FE08487810E94B6
S113047067018E2D0E94670129813A81F29EC00195
S1130480F39E900D1124D8011296ED91FC911397CF
S1130490E80FF91FE28481850E9467018E2D0E9476
S11304A0670189819A81019689839A8389819A81D6
S11304B0029708F4A6CFE0913140F0913240808158
S11304C00E94670180912A420E946701809127421D
S11304D091E0980F909327420E9467018AEA0E9454
S11304E067010F900F90DF91CF911F910F91FF90B3
S11304F0EF90089581E080932C420895E0E4F1E0C8
S1130500918192FDFDCF90E080934A0190934B013D
S113051008950F931F93CF93DF9380E20E947E028E
S1130520E0E1F4E08081877F80838081887F84603C
S11305308083E1E1F4E08081877F80838081887F0C
S113054084608083E2E1F4E08081877F808380811E
S1130550887F84608083E3E1F4E08081877F808307
S11305608081887F84608083E4E1F4E08081877FF8
S113057080838081887F84608083E5E1F4E08081EA
S1130580877F80838081887F8460808388E690E48D
S11305900E94341B89EB92E40E94EB1BC0E0D0E084
S11305A0BE0188E690E40E94651CBE0188E690E4E2
S11305B00E94841C2196C630D10591F70BE912E400
S11305C0C0E0A8016C2F84E490E40E940305CF5F8F
S11305D00B5F1F4FC630A9F781E390E40E94FF161A
S11305E00E948F0A0E946601DF91CF911F910F91A3
S11305F0089580912D42813051F46AE772E088E6D3
S113060090E40E94F51B811102C010922D4280914A
S11306102C428130E9F510922C420E94B2188111CB
S113062022C084E490E40E942205882329F082E019
S113063080932A420E94760181E390E40E9409108B
S1130640882329F083E080932A420E94760183E183
S113065090E40E94B20A882359F084E080932A42ED
S11306600E94760105C081E080932A420E947601AF
S1130670E0914440F09145408081882324F481E056
S113068080932D4203C081E080932B420E94760127
S1130690089580919A428F5F80939A428091284274
S11306A09091294201968093284290932942809107
S11306B02842909129420A9788F12091284230914A
S11306C02942ADECBCEC0E94621D969587959695E7
S11306D08795969587950E94A50A40912842509146
S11306E029429A01ADECBCEC0E94621D9695879557
S11306F096958795969587959C01220F331F880FB1
S1130700991F880F991F880F991F820F931F9A01B1
S1130710281B390B209328423093294280919A4216
S1130720843148F010929A4281E080932D4284E112
S113073090E00E94F80408959C01220F331F220FB9
S1130740331F820F931FFC01E556FD4B818192817B
S113075008959C01220F331F820F931FFC01EE0F9B
S1130760FF1FE252FD4B8481958108959C01220F65
S1130770331F220F331F820F931FFC01E556FD4BDD
S11307808381948108959C01220F331F820F931F4C
S1130790880F991FE0914840F0914940E80FF91FF4
S11307A0808108951F920F920FB60F9211240BB6F9
S11307B00F922F933F934F935F936F937F938F93F6
S11307C09F93AF93BF93EF93FF930E940B1DFF91F1
S11307D0EF91BF91AF919F918F917F916F915F91B5
S11307E04F913F912F910F900BBE0F900FBE0F9022
S11307F01F9018951092890080E0089544E268EDF6
S113080088E690E00E945A0480E00895789480E09D
S11308100895E0E1F4E0808188608193E83184E028
S1130820F807C9F7E0E3F4E0808188608193E83356
S113083084E0F807C9F7E0E5F4E0808188608193FB
S1130840E83584E0F807C9F7E0E7F4E080818860E0
S11308508193E83784E0F807C9F7E0E9F4E08081A0
S113086088608193E83984E0F807C9F7E0EBF4E0A5
S1130870808188608193E83B84E0F807C9F7089594
S11308804198E1E5F4E08081877F80834898409A2D
S11308900E946F0408950E9409040E94FE030E94AE
S11308A040040E946D040E9406040E945F040E949A
S11308B0FA0308951BBEFC0164BF40830895E0E47D
S11308C0F1E081818111FDCFE0E4F1E081E88083F2
S11308D0178282E0828380E0089580E00895E0E258
S11308E0F8E084EC99E08087918780EC868380E04F
S11308F008958091240885FB882780F908958091C4
S1130900240886FB882780F991E089270895E0E28E
S1130910F8E0948195FFFDCF809322080895CF924B
S1130920DF92FF920F931F93CF93DF93EC01AE817D
S1130930BF81EB01CC0FDD1FC60FD71FCA0FDB1F12
S1130940FA80FC0144815581E6E0E69F9001E79F2F
S1130950300D11248A01020F131FF8012281338103
S1130960F90121813281F80104811581201B310BA9
S1130970E8812E1B3109EC01EA81FB8100811181A0
S1130980FA0140E050E04017510739F14617570784
S1130990F9F012968C911297F8121AC0808185583A
S11309A08230E8F0C480D58082819381EC01898112
S11309B09A81C816D90660F48C199D09CC91D0E0AF
S11309C0C817D90728F48C1B9D0B2817390738F052
S11309D04F5F5F4F13963696D6CF80E001C081E01B
S11309E0DF91CF911F910F91FF90DF90CF900895E9
S11309F020912E4230912F42820F931F80932E42DA
S1130A0090932F4208950097D9F041155105C1F0F4
S1130A1026E0629FB0011124DC011496ED91FC9153
S1130A201597E60FF71F21E0208314968D919C9172
S1130A301597FC01E60FF71F4283538380E0089566
S1130A408BE008952F923F924F925F926F927F9224
S1130A508F929F92AF92BF92CF92DF92EF92FF92CA
S1130A600F931F93CF93DF93009709F47EC3EC0198
S1130A70A12CB12C812C912C212CD12C55245394B4
S1130A8033E0C32E45E8642E56E8752E62E0362E18
S1130A9078E0472EEA81FB8180819181881699064E
S1130AA008F0A6C17501EE0CFF1CEC81FD81EE0D72
S1130AB0FF1DA281B3819C919E7109F050820C812B
S1130AC01D810E0D1F1DD8018C91843009F49EC028
S1130AD038F48230D1F008F045C0813059F081C13A
S1130AE0853809F4BFC0863809F4F5C0873009F0A9
S1130AF078C136C1911167C1F80130828C819D8122
S1130B00FC01EE0DFF1D41825EC1D80111962C91AE
S1130B101197222329F11296ED91FC911397253018
S1130B2018F0818192810EC0D80114968D919C9108
S1130B301597418152818417950769F04817590721
S1130B4030F4019714968D939C93159704C00196E5
S1130B50F801848395832150D80111962C9333C1D5
S1130B60F8012DC1D80114962D913C911597129638
S1130B70ED91FC911397418152812417350709F4B3
S1130B8030C18E819F8142175307F8F4EA81FB81BB
S1130B90241B350BDC01AA0DBB1D8C9190E0058054
S1130BA002C0959587950A94E2F799272817390783
S1130BB008F417C18481882309F413C187E0F8017C
S1130BC08083EA81FB8124811AC0FC01EA0DFB1DAC
S1130BD0421B530B808190E04817590708F401C168
S1130BE08281882331F0B401CE010E948F048111E7
S1130BF0F8C0E4E0D801EC93EA81FB8122818C8186
S1130C009D81FC01EE0DFF1D2183DDC0D8011496EA
S1130C102D913C9115971296ED91FC91139781813A
S1130C2092818217930708F4BBC0EE81FF81EA0D1D
S1130C30FB1D821B930B208130E02817390708F035
S1130C40C5C08281882331F0B401CE010E948F0493
S1130C508111C7C0F8018181882309F46AC08150D9
S1130C608183B1C0E881F981AA81BB8118968C91F6
S1130C708383EC81FD81EE0DFF1D44815581A281AA
S1130C80B38111968D919C91129784179507C0F0AA
S1130C90AE81BF81AA0DBB1D6C91262F30E0119649
S1130CA07C917F5F02C0359527957A95E2F7841B86
S1130CB0950B621B262F30E02817390708F48FC0E4
S1130CC07082EA81FB8122818C819D81FC01EE0D81
S1130CD0FF1D218342C0D80114966D917C91159714
S1130CE01296ED91FC9113972181328126173707D3
S1130CF058F411968C911197811102C0CC926FC057
S1130D008150F80181836BC0EE81FF81EA0DFB1DE8
S1130D108081482F50E091819F5F02C0559547958F
S1130D209A95E2F7261B370B841B90E082179307F2
S1130D3060F4D8016C92EA81FB8123818C819D81CE
S1130D40FC01EE0DFF1D21834AC0F8018181811150
S1130D5002C0C08244C0815081832224239433C0C2
S1130D60F801248135810280F381E02D8181928113
S1130D708217930758F5281B390BEE81FF81EA0D82
S1130D80FB1D808190E0EA81FB81058002C095957E
S1130D9087950A94E2F799272817390718F4D80198
S1130DA0CC9216C0F801818181110BC050828C81D4
S1130DB09D81FC01EE0DFF1D0280F381E02DC082B8
S1130DC010C081508183DD24D3940BC0F801C0820C
S1130DD08C819D81FC01EE0DFF1D118202C0222435
S1130DE02394FFEF8F1A9F0A83E0A80EB11C52CE02
S1130DF0E881F981808187FF23C040E050E020E052
S1130E0030E0EA81FB81808191812817390798F4C9
S1130E10EC81FD81E40FF51FA281B3818C9180FDEB
S1130E2005C09081977F11F081608C932F5F3F4FB5
S1130E304A5F5F4FE6CFE881F98180818F778083B5
S1130E40D11007C0E881F98121106FC080818E7FA5
S1130E506EC0EA81FB8181858823A1F3E881F98151
S1130E60808180688083EA81FB818185813051F7AC
S1130E7040E050E020E030E096E0D92EEA81FB81AA
S1130E806081718126173707E8F60C811D81FA010C
S1130E90EE0FFF1FE00FF11F8081982F977FA1F1C4
S1130EA0853811F08330B1F5EE80FF80D701A40FAF
S1130EB0B51F1296BC90BB2039F180E090E0C12CA4
S1130EC086179707F8F428173907D1F0D89ED00170
S1130ED0D99EB00D1124A00FB11FAC91A43011F014
S1130EE0A63871F4DC01AA0FBB1FA80FB91FAE0D01
S1130EF0BF1D1296AC91BA1203C0CB01CC24C3948B
S1130F000196DECFC11006C00280F381E02D8081FE
S1130F108E7F05C00280F381E02D80818160808313
S1130F202F5F3F4F4D5F5F4FA9CF808181608083EA
S1130F3080912E4290912F42E881F9812181328162
S1130F40A90148535F4F4817590738F4821B930B84
S1130F50AA24A394A3E0BA2E44C08217930710F0E6
S1130F6080E004C1821B930B0197893C9105C0F377
S1130F70EFCF885C9109E881F9812181328128537E
S1130F803F4F218332832381211196C02481222360
S1130F9011F021502483E881F9812581222311F065
S1130FA0215025838A809B80D40116962C91169714
S1130FB021111BC08A809B80F4012781211148C024
S1130FC0EA81FB812381222361F020E030E0A0E06C
S1130FD0B0E0EA81FB8140815181A417B50708F490
S1130FE06EC0893C910528F6BBCF08811981F801B0
S1130FF024812111DFCFED90FC9060E070E040E0AF
S113100050E04E155F05F1F0EC81FD81E60FF71F0E
S11310102081233011F0283081F424813581C2806D
S1131020D380D6011196CD90DC9012972C153D05F6
S113103020F42F5F3F4F248335834F5F5F4F6A5FF8
S11310407F4FDFCFF4012681D80114962C93B2CFC1
S113105008811981D80115962C912111B1CFE08016
S1131060F18060E070E040E050E04E155F05F1F083
S1131070EC81FD81E60FF71F2081233011F0283029
S113108081F424813581C280D380D6011196CD901C
S1131090DC901297C216D30620F421503109248320
S11310A035834F5F5F4F6A5F7F4FDFCFF401278146
S11310B0D80115962C9384CF2150238381CFA90185
S11310C0440F551FEC81FD81E40FF51F60816538E5
S11310D009F047C06181662319F06150618341C002
S11310E0A0826C817D81FB01E40FF51F0280F381F6
S11310F0E02DB082EE81FF81E20FF31FD280DD206C
S113110081F140E050E000E010E0EA81FB81608181
S113111071810617170728F5EE81FF81E40FF51F8B
S11311206281D61219C0BA01660F771FEC81FD8166
S11311304F01860E971EF401E280F380F701F080E0
S1131140F0FE0AC0F401A082EC81FD81E60FF71FD6
S11311500280F381E02DB0820F5F1F4F4D5F5F4F20
S1131160D4CF11962D5F3F4F34CF8BE0DF91CF91D9
S11311701F910F91FF90EF90DF90CF90BF90AF90B1
S11311809F908F907F906F905F904F903F902F90A3
S11311900895209160423091614280915C42909127
S11311A05D42281B390B80916242909163424091C9
S11311B05E4250915F42841B950BB90137FF04C016
S11311C066277727621B730BAC0197FF04C0442783
S11311D05527481B590B641775072CF01216130674
S11311E03CF080E008951816190624F083E0089571
S11311F082E0089581E008954F925F926F927F920A
S11312008F929F92AF92BF92CF92DF92EF92FF9212
S1131210C82ED12CE12CF12C909156429430B8F088
S11312209150909356424091524250915342609152
S1131230544270915542452F562F672F772740937C
S1131240524250935342609354427093554240919A
S11312505642942F990F990F990F04C0CC0CDD1CA2
S1131260EE1CFF1C9A95D2F7809052429090534204
S1131270A0905442B0905542C828D928EA28FB28A7
S1131280C0925242D0925342E0925442F09255425C
S113129090914542903F09F440C0EEEEF0E420E026
S11312A030E080809180A280B3808C249D24AE2481
S11312B0BF24448055806680778084209520A620B2
S11312C0B72089288A288B2811F55BE0529FF0010A
S11312D0539FF00D1124E251FF4B9085A7E4B2E433
S11312E001900D925A95E1F7903931F4909157425B
S11312F0992399F0906908C09F3831F4909157422E
S11313009F5F9093574209C09093454206C02F5F58
S11313103F4F3B962431310521F690914142911182
S1131320E7C0982F907F903509F0C6C0582F5370AE
S11313302091EC4090913442222361F091110AC033
S1131340E0910443F09105439789909333421092BE
S1131350EC4002C091113AC0E52FF0E09091EB40CF
S1131360292F30E0B9016F5F7F4F63707727E6174D
S1131370F70721F4909132429F5F0AC0215031094E
S113138023703327E217F30741F4909132429150CE
S1131390909332421092314203C059131092324258
S11313A06091324220913342621302C091E00CC03A
S11313B0062E000C770B332721950CF43095621719
S11313C0730709F076C09FEF9093344260913442E2
S11313D0613019F06F3F09F06CC02FEF3FEF20939D
S11313E00243309303439091EB40E0910443F09126
S11313F00543591749F0A52FB0E0262F290F237074
S113140030E0A217B307C9F420913142613029F4C6
S113141036892317ECF42F5F0DC066897727619511
S11314200CF47095A22F022E000CBB0B6A177B07DD
S11314307CF42150209331420BC01092344210921C
S11314403242208D20933342109202431092034380
S1131450268960913142261307C020EF209345422C
S1131460209130422F5F10C0062E000C770B3327DB
S113147021950CF4309562177307D9F421EF20936A
S113148045422091304221502F7020933042990FD1
S1131490990F91602295207F292B91E0309134425D
S11314A013160CF090E0990F292B209344421092CC
S11314B031425093EB401CC0282F2F77203299F4EF
S11314C0109234421092324210923142909145422D
S11314D09E7F903F11F41092454290EF9093EB4021
S11314E01092304205C0903119F491E09093EC4091
S11314F04F5F40935642FF90EF90DF90CF90BF90A4
S1131500AF909F908F907F906F905F904F900895D1
S113151081E090914642911101C080E008951092BB
S113152057421092564210925242109253421092D5
S11315305442109255428FEF9FEF80930243909351
S113154003431092424280E0089520910243309177
S1131550034337FD06C0280F391F209302433093FD
S113156003430895AF92BF92CF92DF92EF92FF921E
S11315700F931F93CF93DF93EC01892B09F4ECC2F3
S1131580EA81FB81E0930443F0930543A481B58190
S11315902C91A285B385109711F09C9101C090E025
S11315A021709170392F330F322B809138422813D8
S11315B004C0222331F0A3E007C0222321F0A1E0DC
S11315C003C0A0E001C0A2E02093384280913942D8
S11315D0981304C0992331F083E007C0992321F0C4
S11315E081E003C080E001C082E09093394224E0AE
S11315F0A29FD0011124A653BE4BA80FB11D8C91FC
S1131600333051F490914142911115C091E090937F
S11316104142909343420BC0109243424091024393
S1131620509103434F3F5F4F11F410924142909108
S11316304142992319F1A081B1812D913C91A901D5
S113164056954795A681B7812D913C91369527955E
S1131650240F351F20933F4230934042A281B3812F
S11316602D913C91A90156954795A085B1852D9161
S11316703C9136952795240F351F1BC0313059F402
S1131680A081B1812D913C9120933F4230934042FF
S1131690A281B3810CC0323081F4A681B7812D912F
S11316A03C9120933F4230934042A085B1852D91D7
S11316B03C9120933D4230933E42813049F008F4FE
S11316C0EDC1823009F479C0833009F4A1C0FCC1B2
S11316D01092564210925242109253421092544227
S11316E01092554210923B428BE027E432E4D90138
S11316F01D928A95E9F710923A421092454210924F
S11317004442E0903F42F0904042E0926042F092C6
S1131710614200913D4210913E4200936242109317
S11317206342258930E0E216F30610F482E101C039
S113173080E140E051E0421B530B4E155F0508F475
S113174081600217130708F488604017510708F4F2
S113175084600E94FC0880933C4280915742882315
S113176009F451C08091584290915942E816F90603
S113177020F09701281B390B03C09C012E193F0947
S113178080915A4290915B420817190728F0F8019A
S1131790E81BF90BCF0102C0801B910BE0910443BD
S11317A0F0910543448950E04217530718F0481755
S11317B0590748F51092574226C080913F429091B4
S11317C04042809358429093594280913D42909177
S11317D03E4280935A4290935B42109242428091DF
S11317E05042882321F088EA8093454205C080E274
S11317F00E94FC0880933C428BE0E7E4F2E4DF01C2
S11318001D928A95E9F710920243109203435CC13A
S1131810992309F466C0A281B3812D913C91A085DE
S1131820B1858D919C912817390728F0A901481B8F
S1131830590BCA0102C0821B930BA081B1812D9167
S11318403C91A681B7814D915C912417350718F01E
S1131850241B350B04C0BA01621B730B9B0140911E
S11318604342423060F410923742280F391F2093CC
S113187035423093364282E08093434229C042305D
S113188039F5280F391F818D90E0409135425091F0
S11318903642BC01640F751F6217730738F0820F5C
S11318A0931F8417950708F459C112C091E08091E1
S11318B03742890F80933742209335423093364222
S11318C0913009F04DC191EC90934542809344428C
S11318D080914542882329F080EC0E94FC08809383
S11318E03C42E0910443F09105432091024330913E
S11318F00343858590E0281739077CF080913A42AC
S113190081110BC01091424210FD07C080E80E9473
S1131910FC0880933C4211600FC0878590E0281733
S113192039076CF01091424211FD09C080EA0E940F
S1131930FC0880933C421260109342421AC0868590
S113194090E028173907ACF080913A42811111C018
S113195080914242833069F480E90E94FC088093BC
S11319603C42109242428FEF9FEF80930243909348
S11319700343A0903F42B0904042A0925C42B09298
S11319805D42C0903D42D0903E42C0925E42D092B1
S11319905F42E0906042F0906142AE14BF0428F0D0
S11319A0C5018E199F097C0102C0EA18FB08009149
S11319B0624210916342C016D10628F0D601A01BE2
S11319C0B10B8D0102C00C191D09E0910443F09183
S11319D00543838990E08E159F0518F080179107C1
S11319E070F480913A4281110AC00E94C908806350
S11319F00E94FC0880933C4281E080933A428091AB
S1131A003A42882309F460C0E0910443F09105430D
S1131A10878590E0209102433091034328173907CA
S1131A200CF052C0808990E08E159F0530F08189BA
S1131A3090E08017910708F047C00E94C908803FD2
S1131A40D1F090913B428065992361F020913C4212
S1131A50821308C02091564221502093564291503F
S1131A6090933B420E94FC0880933C4280913B420D
S1131A708F5F80933B428091024390910343019690
S1131A8021F01092024310920343A0926042B0925C
S1131A906142C0926242D092634216C0858590E052
S1131AA02091024330910343821793076CF480E83A
S1131AB00E94FC0880933C42109257428FEF9FEFA4
S1131AC0809302439093034380915142813021F4E7
S1131AD080914F428093454280914542982F9E7F4A
S1131AE010914442903F31F410FF06C091E090936E
S1131AF0464202C08111FACF909141429923E1F00C
S1131B00909146429923C1F09FEF980F933410F4BB
S1131B108C5F09C0982F907F903911F4805F03C0C7
S1131B20803D19F484ED8093454280914542807C48
S1131B30803C11F010924142E880F9800E94880AAA
S1131B40F7018083E881F981809145428183E881AE
S1131B50F981128380E006C08BE004C09FEFA7CE1A
S1131B6090ECB2CEDF91CF911F910F91FF90EF9047
S1131B70DF90CF90BF90AF9008959C0161157105DF
S1131B8009F14F5F37FD06C0442321F04150220F75
S1131B90331FF8CF77FD04C04F5F660F771FFACF6E
S1131BA080E090E0442381F097FD0CC0880F991FDA
S1131BB041502617370718F0261B370B01967695E8
S1131BC06795F0CF8FEF9FEF08952CE0829FC001BF
S1131BD01124FC0126E0629FE00DF11D1124EC5854
S1131BE0FD4B22813381208331837481658172832B
S1131BF0638344835583872F962F48175907D9F059
S1131C0082179307C1F042175307A1F08417950771
S1131C1040F42817390778F0CA012417350758F417
S1131C2007C08217930738F0CA014217530718F404
S1131C30C9010895CA01089526E0269FF001279F4F
S1131C40F00D1124E80FF91FA281B38111968D9133
S1131C509C911297248135812817390718F4821B27
S1131C60930B089580E090E008959F92AF92BF9205
S1131C70CF92DF92EF92FF920F931F93CF93DF9354
S1131C806C018B01942EE901B9010E941C0E7C01A8
S1131C900C171D0740F4BE0161507109C6010E9472
S1131CA01C0E5C0102C0A12CB12C090D111D0150A8
S1131CB01109C017D107D0F4BE016F5F7F4F86E0D2
S1131CC0869FF001879FF00D1124EC0DFD1DA2816C
S1131CD0B38111962D913C9112978481958182173D
S1131CE0930720F4C6010E941C0E02C080E090E01D
S1131CF08A159B0508F4C5018E0D9F1DDF91CF91B8
S1131D001F910F91FF90EF90DF90CF90BF90AF9015
S1131D109F900895442371F19B012F5F3F4F8217D9
S1131D20930741F1225031098217930719F19C015D
S1131D30260F371F413011F4AC0106C0423019F4AC
S1131D40220F331F05C0AB01440F551F240F351F4D
S1131D506817790718F42E5F3F4F05C08617970759
S1131D6010F4225031092E5F3F4FC9019695879593
S1131D709695879508959F92AF92BF92CF92DF92E6
S1131D80EF92FF920F931F93CF93DF93EB018A019E
S1131D90922EFC01C384D484C6010E941C0E5C01F3
S1131DA0B801C6010E941C0E75018A159B0508F432
S1131DB07C010C171D0798F40F5F1F4FAA24AA94E7
S1131DC0BA2CC017D107E1F0B801C6010E941C0E5D
S1131DD08A159B0508F45C010F5F1F4FF2CF219613
S1131DE0AA24AA94BA2CC017D10750F4BE01C60184
S1131DF00E941C0E8A159B0508F45C012196F3CF02
S1131E00992041F0C70123E0969587952A95E1F73B
S1131E10E81AF90A81E0AE14BF0408F080E0DF910B
S1131E20CF911F910F91FF90EF90DF90CF90BF90D3
S1131E30AF909F900895CF93FC012681C22FC29545
S1131E40CF70CB016130704110F080E090E12F70D1
S1131E50D9F0215030E02F5F3F4F68E2629FA0012C
S1131E60639F500D11248417950718F0841B950B5C
S1131E7002C080E090E0440F551F60E070E1641BF5
S1131E80750B4CE00E94BD0D811520E1920710F006
S1131E908FEF9FE02CE030E02C1B310902C09695B7
S1131EA087952A95E2F7CF9108952F923F924F920A
S1131EB05F926F927F928F929F92AF92BF92CF92D6
S1131EC0DF92EF92FF920F931F93CF93DF93CDB7DF
S1131ED0DEB72597CDBFDEBF89839A832B014B8361
S1131EE08901FC01C384D484B901C6010E941C0E7B
S1131EF08C839D8397FF02C01C821D8204151505E7
S1131F0049F0B80161507109C6010E941C0E7C01A0
S1131F1097FF02C0E12CF12CFB812F2E312CC20142
S1131F20820D931D01974801A12CB12C612C712CB9
S1131F300817190709F45FC0B8016F5F7F4FC60126
S1131F400E941C0E84189508A608B7082CE0880C7B
S1131F50991CAA1CBB1C2A95D1F797FF02C080E0EC
S1131F6090E0E816F90688F02C813D81281B390B96
S1131F702C833D83B901681B790B6E0D7F1D4CE0EA
S1131F80C9010E94BD0D90510BC08E199F096C812F
S1131F907D816E197F09680F791F4CE00E94BD0D89
S1131FA0A5019401280F391F411D511DDA01C901F2
S1131FB03B81333030F0B1016150710940E00E943F
S1131FC0BD0DBC0189819A812596CDBFDEBFDF910D
S1131FD0CF911F910F91FF90EF90DF90CF90BF9022
S1131FE0AF909F908F907F906F905F904F903F90B5
S1131FF02F900C941B0F84189508A608B7088CE042
S1132000880C991CAA1CBB1C8A95D1F780E090E02F
S1132010ABCF2F923F924F925F926F927F928F92AB
S11320209F92AF92BF92CF92DF92EF92FF920F9363
S11320301F93CF93DF93CDB7DEB76B97CDBFDEBFD2
S1132040FC01892B09F4EAC020813181288B398B6A
S11320504481558149835A83628173816A8F7B8F5E
S1132060672B09F4C5C04115510509F4C1C0DA0153
S11320701B962D903C901C972114310409F4B8C090
S11320801696BC91B88FB03D08F0B4C0F901F08148
S1132090FF83DA0112965C9012970D911C91F170F6
S11320A0F98FBF81B0FD36C0C80120E0A801450DFD
S11320B0511D36E08417950770F4389FF001399F5D
S11320C0F00D1124E20DF31D6081653811F4CA018D
S11320D021E00196EFCF21111DC0E981FA813581FC
S11320E083819481AC01430F511D36E08417950719
S11320F070F4389FF001399FF00D1124E20DF31DA7
S11321006081653811F4CA0121E00196EFCF2223E2
S113211009F486C038017801A12CB12C9801250D51
S1132120311D2E873F874E855F85E416F50680F4C2
S1132130B701C1010E941C0E181619062CF4A8162A
S1132140B90614F437015C013FEFE31AF30AEBCF4D
S1132150A981BA811596BC91BB87E981FA81038074
S1132160F481E02DEB83FC83ED83FE837F01A12CBE
S1132170B12C9F012B0F311D2C8B3D8B6C897D89DC
S1132180E616F70688F4B701C1010E941C0E181662
S1132190190634F4A816B9061CF4ED82FE825C011B
S11321A05FEFE51AF50AEACF9301452DB801C101A5
S11321B00E94350E89879A872D813E814B856B81DC
S11321C07C81C1010E94350EA981BA8119960D90B6
S11321D0BC91A02DAA8BBB8B29853A85281739077A
S11321E008F49C01EA89FB892E173F07C8F02BC02D
S11321F08BE001C082E0212C20FE04C091E8E88934
S1132200F9899083922D967009F4E3C5922D907309
S1132210A889B9892C90292A2C92DBC58BE0D9C5D1
S1132220E889F9891082AA8DBB8D1C9219961D929A
S11322301C921A971B961C921B9754961D921C92E3
S1132240559780E0D8CF9301452DB80189819A81B3
S11322500E94550F6C01BF81B4FB442440F8C801AF
S113226001968615970508F48BC518861D86812C62
S1132270912C8E859F8501976816790618F5730150
S113228032E0E30EF11C6E857F85E616F706D0F486
S11322909701452DB801C1010E94350E5C018816D5
S11322A0990660F4242DA701B30189819A810E94C3
S11322B0BB0E882319F0E886FD8645014FEFE41A2A
S11322C0F40AE1CF8A899B898816990660F02885EB
S11322D03D85452DB80189819A810E94550F2C01B5
S11322E093E09D8705C02601812C912CA1E1AD8747
S11322F02D813E814B856B817C8189819A810E94ED
S1132300550F3C01BF81B5FBBB27B0F9BE878B815C
S11323109C810196ED81FE818E179F0748F50B8104
S11323201C811F821886A12CB12C3297EE8BFF8B57
S11323302E893F8902171307F8F498014B856B81A6
S11323407C81C1010E94350E7C01A816B90668F48F
S11323502E85A8016D817E8189819A810E94BB0EA0
S1132360882319F00F83188757010F5F1F4FE0CFA1
S11323701F821886A12CB12C8C899D8901974D81CF
S11323805E814817590718F58A010E5F1F4F6C8943
S11323907D8906171707D8F498014B856B817C81DA
S11323A0C1010E94350E7C01A816B90668F42E8579
S11323B0A8016D817E8189819A810E94BB0E882348
S11323C019F00F83188757010F5F1F4FE0CF8A89D9
S11323D09B89A816B90690F02F8138854B856B81AF
S11323E07C8189819A810E94550F7C018A149B0407
S11323F008F445019D859460292E04C0AD85A06232
S11324002A2E7301B98DB11169C081E0EA8DFB8D6B
S11324108083C182D282C382D482C0927042D0921D
S11324207142658276826782708660926C42709295
S11324306D4229853A8521873287C0927442D092B1
S11324407542C0927642D0927742C0927842D0923E
S1132450794260927A4270927B4260927C4270929E
S11324607D4260927E4270927F42922D967021F45A
S11324701386148A158A60C4AA8DBB8D54968D92D6
S11324809C9255971B968C931B971C964D925C922D
S11324901D971E964D925C921F975096ED92FC925A
S11324A051975296ED92FC925397409280425092EB
S11324B0814240928242509283424092844250929E
S11324C08542E0928642F0928742E0928842F092FE
S11324D08942E0928A42F0928B422EC4E981FA81C9
S11324E03084888D82958F7061E070E002C0660F41
S11324F0771F8A95E2F7615071090A8D1B8D88E672
S1132500A82E82E4B82E24E632E42E873F874CE6D8
S113251052E44D835E8380E792E48B839C83D801ED
S11325205696AB87BC87F801808180FD0AC02FEFE7
S11325303FEFD5012D933C93AE85BF852D933C93FE
S11325404FC083819481AB81BC814D915C91841790
S1132550950720F09C01241B350B03C09A01281B0E
S1132560390B4817590740F4820F931FAB018617A4
S1132570970758F4AC0109C02817390720F4AC01B7
S1132580421B530B02C040E050E0D5014D935C93D5
S113259087819085AD81BE814D915C9184179507AB
S11325A020F09C01241B350B03C09A01281B390B16
S11325B04817590740F4820F931FAB0186179707FA
S11325C058F4AC0109C02817390720F4AC01421BA8
S11325D0530B02C040E050E0AE85BF854D935C9341
S11325E03B96B2E0AB0EB11C2E853F852E5F3F4F6C
S11325F02E873F874D815E814E5F5F4F4D835E83A3
S11326008B819C8102968B839C83AB85BC85EA1766
S1132610FB0709F089CFB32DB3703B2EEA8DFB8DF8
S11326209385822D867009F413C229853A85218702
S11326303287848A958A9111A7C0809168429091CB
S113264069428C159D0520F09C012C193D0903C09D
S11326509601281B390B8415950518F084199509E2
S113266004C0A201481B590BCA01AA8DBB8D119647
S11326706D917C911297432D8217930750F4C201F8
S11326800E948A0EEA8DFB8D81839283C486D5864F
S11326900DC0C6010E948A0EAA8DBB8D11968D9322
S11326A09C9312971C964D925C921D978091644264
S11326B0909165428615970520F09C0126193709EB
S11326C003C09301281B390B8E159F0518F08E1932
S11326D09F0904C0F701E81BF90BCF01AA8DBB8D3C
S11326E015966D917C911697432D8217930750F49C
S11326F0C7010E948A0EEA8DFB8D85839683608ACA
S1132700718A0DC0C3010E948A0EAA8DBB8D1596D5
S11327108D939C9316975096ED92FC92519781E07D
S1132720EA8DFB8D8387248535852093724230930F
S1132730734220936A4230936B422687378780899D
S1132740918980936E4290936F42809366429093F6
S11327506742828B938B20938042309381422093F3
S11327608242309383422093844230938542809303
S113277086429093874280938842909389428093C3
S11327808A4290938B42B1C0AA8DBB8D2C911C962A
S1132790AD90BC901D975096ED91FC915197EB83B1
S11327A0FC8380916A4290916B4280906642909043
S11327B0674221119CC08415950520F09C012419C1
S11327C0350903C09201281B390B8C159D0518F09F
S11327D08C199D0904C0A601481B590BCA01AA8D76
S11327E0BB8D8217930740F411964D925C92129719
S11327F0432DB501C60107C01196CD92DC92129704
S1132800432DB501C2010E948A0EEA8DFB8D848797
S113281095878E149F0420F0C4018E199F0903C06C
S1132820C701881999098614970418F0861897081F
S113283004C09301281939094901AA8DBB8D881652
S1132840990648F41596ED92FC921697432D6B81E8
S11328507C81C30108C015966D927C921697432D16
S11328606B817C81C7010E948A0EEA8DFB8D808B6F
S1132870918B81E0AA8DBB8D8C9311962D913C9107
S11328801297209370423093714213962D933C9388
S11328901497209368423093694215968D919C91C8
S11328A0169780936C4290936D4217968D939C93E8
S11328B018978093644290936542209374423093B6
S11328C07542209376423093774220937842309336
S11328D0794280937A4290937B4280937C42909396
S11328E07D4280937E4290937F42B12CD0C140912F
S11328F06842509169424C155D0520F0BA016C198B
S11329007D0903C0B601641B750B8415950520F081
S11329109C012419350903C09201281B390B260F89
S1132920371F4415550518F04419550904C0F20120
S1132930E41BF50BAF018C159D0518F08C199D094E
S113294004C0B601681B790BCB01840F951FAA8DB7
S1132950BB8D11966D917C911297432D821793072D
S113296058F4C2010E948A0EEA8DFB8D8183928302
S1132970432DB501C6010AC0C6010E948A0EEA8D24
S1132980FB8D81839283432DB501C2010E948A0E7F
S1132990AA8DBB8D1C968D939C931D978091644248
S11329A0909165428615970520F0AC0146195709A8
S11329B003C0A301481B590B8E149F0420F09401FB
S11329C02E193F0903C0970128193909240F351F0F
S11329D08E159F0518F08E199F0904C0F701E81B96
S11329E0F90BCF018614970418F08618970804C0D1
S11329F0A301481959094A01880E991EAA8DBB8D55
S1132A0015966D917C911697432D8216930660F46A
S1132A10C7010E948A0EEA8DFB8D85839683432D20
S1132A206B817C81C3010BC0C3010E948A0EEA8DB5
S1132A30FB8D85839683432D6B817C81C7010E9426
S1132A408A0EAA8DBB8D50968D939C9351974DCF32
S1132A5091111FC029853A85EA8DFB8D2187328724
S1132A60618172814B2FC6010E948A0EAA8DBB8D93
S1132A7011968D939C93129715966D917C91169750
S1132A80432DC3010E948A0EEA8DFB8D85839683B4
S1132A902CCFAA8DBB8D8C91811121C0E985FA853B
S1132AA05496ED93FC9355971C966D917C911D97CC
S1132AB0432DC6010E948A0EAA8DBB8D1C968D9350
S1132AC09C931D9750966D917C915197432DC30112
S1132AD00E948A0EEA8DFB8D808B918B06CF20910C
S1132AE06842309169422C153D0518F02C193D09B6
S1132AF004C0A601421B530B9A0180916442909139
S1132B0065428615970518F08619970904C0B30124
S1132B10681B790BCB01280F391F80916A42909171
S1132B206B428C159D0520F0AC014C195D0903C066
S1132B30A601481B590B8091664290916742861505
S1132B40970518F08619970904C0D301A81BB90B7F
S1132B50CD01840F951F8217930700F5EA8DFB8D35
S1132B6064857585432DC6010E948A0EAA8DBB8D8E
S1132B701C968D939C931D9750966D917C915197C3
S1132B80432DC3010E948A0EEA8DFB8D808B918BAD
S1132B9029853A85248B358B1082A7CEAA8DBB8DCF
S1132BA011966D917C911297432DC6010E948A0E55
S1132BB0EA8DFB8D8183928365817681432DC301E8
S1132BC00E948A0EAA8DBB8D15968D939C931697A1
S1132BD0E985FA851996ED93FC931A971B961C9236
S1132BE084CEF801C380D480E780F084418152818F
S1132BF0A981BA8118968C9184FF05C060E08B2D61
S1132C000E94E50DAC01F8012381348190814217C3
S1132C10530708F04CC093FD43C0241B350BA98116
S1132C20BA8117966C9170E062177307D0F1F801BE
S1132C3045815681A981BA8118968C9184FF05C07B
S1132C4061E08B2D0E94E50DAC01F80127813085F0
S1132C5090814217530708F04BC095FD42C0241BD6
S1132C60350BA981BA8117966C9170E062177307CE
S1132C70C8F1F80183819481C816D90609F452C0B9
S1132C80B394055F1F4FF2E0BF1609F455C0D80195
S1132C908C9180FDA6CF19961D921C921A97F0CFA5
S1132CA0F801438354839B7F9A609083C0CF92FD45
S1132CB012C0BA01621B730BA981BA8117962C91B9
S1132CC030E02617370708F0B2CFF8014383548366
S1132CD0977F9660EACF43835483977F966090836F
S1132CE0A6CFF801478350879F7E92629083C1CF1D
S1132CF094FD12C0BA01621B730BA981BA811796A5
S1132D002C9130E02617370708F0B3CFF80147833A
S1132D1050879F7D9261EACF478350879F7D926160
S1132D209083A7CF87819085E816F90609F0A8CF8C
S1132D3080818D7F8083A4CFAA8DBB8D13968D91C6
S1132D409C91149780937042909371421E968D913A
S1132D509C911F97809372429093734217968D9122
S1132D609C91189780936C4290936D4252968D91EA
S1132D709C91539780936E4290936F4280E03CCA3B
S1132D80780118861D86812C912CF3013197EE8BE6
S1132D90FF8B2E893F89E216F30608F06ACA970171
S1132DA0452DB801C1010E94350E5C0188169906B3
S1132DB060F4242DA701B30189819A810E94BB0E7E
S1132DC0882319F0E886FD864501FFEFEF1AFF0A14
S1132DD0E0CF6B96CDBFDEBFDF91CF911F910F91F6
S1132DE0FF90EF90DF90CF90BF90AF909F908F9027
S1132DF07F906F905F904F903F902F900895009731
S1132E00F9F0DC011296ED91FC9113973097C1F023
S1132E101082118212821382148215821682178202
S1132E2010861186128613861486158616861786D2
S1132E30108A118A128A138A148A158A80E00895E6
S1132E408BE00895A0910643B091074325E0AC01BF
S1132E50249FC001259F900D11241496ED91FC919F
S1132E601597E80FF91F818192818617970781F1E1
S1132E708617970718F4681B790B04C09C01261B5E
S1132E80370BB901ED91FC918281803411F4769570
S1132E90679565387105D0F466307105C8F0E38133
S1132EA0E073F0E083E0F695E7958A95E1F7E65262
S1132EB0FE4B80819181689F9001699F300D789FBE
S1132EC0300D112481E0232B21F402C081E0089508
S1132ED080E008958091914290919242A09106439E
S1132EE0B0910743ED91FC9111974081518125E008
S1132EF0289FB001299F700D112420E030E0841731
S1132F009507A8F41496ED91FC911597E20FF31F21
S1132F10E60FF71FE0812B5F3F4FE0FD02C00196F3
S1132F20EECF809391429093924280E00895109264
S1132F3091421092924281E00895AF92BF92CF9253
S1132F40DF92EF92FF920F931F93CF93DF937C0155
S1132F50E0910643F091074384E18E9DE0018F9D4B
S1132F60D00D1124A281B381AC0FBD1F18962C91F2
S1132F70189719963C9119971A964C911A971B9683
S1132F805C911B971C966C911C971D967C911D97C8
S1132F901E968C911E971F969C912093F00708E033
S1132FA00E94731D2093F1070E94731D2093F20762
S1132FB00E94731D2093F3070E94731D2093F4074E
S1132FC00E94731D2093F5071092E007A081B18140
S1132FD012968C91803809F44FC0A281B381AC0F52
S1132FE0BD1FCC9011963C91119712964C9112975B
S1132FF013965C91139714966C91149715967C9183
S1133000159716968C91169717969C91C092E8077F
S11330102C2D0E94731DD22E2093E9070E94731D4C
S1133020122F2093EA070E94731DA22E2093EB0710
S11330300E94731DB22E2093EC070E94731D2093EF
S1133040ED0780819181DC0112968C91813821F405
S113305081E08093E00710C0823871F41092E00799
S1133060C092F807D092F9071093FA07A092FB07D1
S1133070B092FC072093FD0725E02E9DC0012F9DF3
S1133080900D1124A481B581A80FB91F13962D9119
S11330903C911497A90153704093E4075093E507BA
S11330A037FD03C01092CA0703C021E02093CA076A
S11330B0A481B581A80FB91F2C9121FF02C025E07E
S11330C02C9324813581D901A80FB91F8C918C715F
S11330D069F4A281B381AC0FBD1F5296AC91A29545
S11330E0AF70B0E0AE51BE4B8C9101C08FE18093C4
S11330F0E607A281B381AC0FBD1F50968C918B372C
S113310010F48C5F01C08FE78093C407A281B38160
S1133110AC0FBD1F53968C918093C707A281B381D6
S1133120AC0FBD1F51968C9182958F708093C90707
S113313082819381C80FD91F89898F708068809399
S1133140C20781E88093C00781E08093D007DF91B4
S1133150CF911F910F91FF90EF90DF90CF90BF9090
S1133160AF9008952F923F924F925F926F927F9209
S11331708F929F92AF92BF92CF92DF92EF92FF9283
S11331800F931F93CF93DF93CDB7DEB72797CDBFB0
S1133190DEBF80919042882309F446C20091064321
S11331A01091074320910843309109432A833B83BC
S11331B0C12CD12CA12CB12C212C312C19824424CA
S11331C04A945524539477247394D8010D90BC9158
S11331D0A02DAE83BF838D919C912816390608F0EB
S11331E01FC2AA81BB814D915D91AA83BB83F80163
S11331F0E480F580EA0CFB1CD7012C91822F8C71A2
S113320090E096958795969587958230910509F477
S1133210A0C128F4009759F0019701F1F7C1833058
S1133220910509F459C1049709F4E1C0EFC1028082
S1133230F381E02DEC0DFD1D92899F708389981711
S113324010F4891B01C080E09A0102C036952795CD
S11332508A95E2F7F70121833283D8C18281938171
S1133260FC01EC0DFD1D4A01038802C0969487946D
S11332700A94E2F7D70111968D929C9212971396B5
S11332808D919C911497692F661F6627661F811480
S1133290B2E09B0630F03FEF831A31E0930A41E03D
S11332A005C0A201481959094A0140E0969487943F
S11332B0AE81BF8112963C91303429F0442309F445
S11332C0B6C1462F06C097FF04C031E0411130E07B
S11332D0432FBAE08B16910408F03FC026FD3AC094
S11332E027FD94C1AE81BF8113968C918370833086
S11332F059F4BFE7B08BD8011496ED91FC91159762
S1133300EA0DFB1DB1E10DC0823069F48189807F33
S1133310818BD8011496ED91FC911597EA0DFB1D54
S1133320B9E0B08373C18130A9F481898F70818B36
S1133330D8011296ED91FC911397EC0DFD1D818936
S11333408067818B1496ED91FC911597EA0DFB1D16
S1133350BDE0E7CFF701708259C19C0133702F3F64
S1133360F3E03F0731F4E1E8D701EC938FEF93E00A
S11333700BC02115310559F497FF25C0E1E8D701A9
S1133380EC9380E090E061E0FEE0F9831FC0C901A6
S113339041110FC0019621E0821A910831E0831691
S11333A09104A1F08F3F43E09407A1F70FC0009769
S11333B069F00197AC01421B530B480D591D413074
S11333C05105A9F703C080EF90E061E0D80114969D
S11333D0ED91FC911597EA0DFB1D70E0772766953A
S11333E077956627862B972B838394830FC1F801E7
S11333F0828093808C0C9D1CFA01D40153960C900E
S1133400539702C0F695E7950A94E2F7EC83FD839F
S113341050966C90FFE76F120FC0EC81FD81D701CD
S11334201196ED93FC931297D40150968C9150977A
S11334308F7B50968C9342C0F12C262D30E0C9012D
S11334400F2C02C0969587950A94E2F780FF03C07B
S11334508F2DF12C01C087E08F5F873010F4F82E98
S1133460EECF6C817D81C1010E942217882351F027
S113347081E090E00F2C01C0880F0A94EAF78629B6
S1133480F401808BD801FF2091F01296ED91FC910C
S11334901397EC0DFD1DFA9481E090E001C0880FB4
S11334A0FA94EAF7809590898923808B07C0149653
S11334B0ED91FC911597EA0DFB1D7082D8011496CD
S11334C0ED91FC911597EA0DFB1D8081813009F087
S11334D09DC02C813D8183C00280F381E02DEC0DE1
S11334E0FD1D9A01038802C0369527950A94E2F7D8
S11334F02C833D83918892942FE0922237E0931697
S113350091F06C817D81C1010E942217811104C058
S11335109394D7017C9209C0911003C0F701708283
S113352004C09A9402C096E0992ED8011296ED91A7
S1133530FC911397EC0DFD1D81898F70818B129680
S1133540ED91FC911397EC0DFD1D929480EF982260
S113355036C00280F381E02DEC0DFD1D9A01038835
S113356002C0369527950A94E2F72C833D8381891E
S11335708F70982E91F0B901C1010E942217811118
S113358004C09A94D7017C920AC0B7E09B1203C08E
S1133590F701708204C0939402C099249394D801D3
S11335A01296ED91FC911397EC0DFD1D8189807F9E
S11335B0818B1296ED91FC911397EC0DFD1D818981
S11335C0982A918A1496ED91FC911597EA0DFB1DAA
S11335D02C813D812183328380818130B9F421158E
S11335E042E0340728F02F5F31402C833D8307C02D
S11335F0C201AC81BD818A1B9B0B8C839D832C8172
S11336003D812B30310510F035E430834FEF241A1F
S1133610340A55E0A50EB11C84E1C80ED11CD5CDE9
S113362082E08093904209C0B3E0B98306C0492F79
S11336304095441F4427441F4CCE89812796CDBF13
S1133640DEBFDF91CF911F910F91FF90EF90DF903C
S1133650CF90BF90AF909F908F907F906F905F902E
S11336604F903F902F9008955F926F927F928F9228
S11336709F92AF92BF92CF92DF92EF92FF920F93FD
S11336801F93CF93DF93009709F492C0DC01ED916F
S1133690FC916081718140E050E020E030E0B0E0D6
S11336A010E0F12CE12C912C812C712C612C26172B
S11336B0370751F1EC01EA81FB81E40FF51FA0808B
S11336C0A085AA2AB180A185BA2AC280A285CA2A65
S11336D0D380A385DA2AD481A485DA2BC581A58574
S11336E0CA2B5680A685A5295780E785E529BA29DE
S11336F01B29FC28ED289D2A8C2A7A2A6E2A2F5F02
S11337003F4F4C5E5F4FD3CF2B2F312F4F2D5E2D6C
S1133710692D782D872D962DA0E00E948F1D09F428
S113372049C081E08093904225EFC22E21E4D22E3D
S1133730C0E0D0E0AA24A394B12C4CE0542E2B2F4B
S1133740312F4F2D5E2D692D782D872D962D0C2F21
S11337500E94731D217030E040E050E060E070E0B2
S113376080E090E0A0E00E948F1DC9F0F601808106
S1133770E82FE295E695E770F0E0EE0FFF1FE951C0
S1133780FE4B0190F081E02D8F71950102C0220F54
S1133790331F8A95E2F72283268353862587219651
S11337A03FEFC31AD30AC033D10549F680E003C002
S11337B08BE001C082E0DF91CF911F910F91FF90C8
S11337C0EF90DF90CF90BF90AF909F908F907F90BD
S11337D06F905F900895009731F080930843909321
S11337E0094380E008958BE008956115710561F146
S11337F0009751F120919042222341F1243041F16C
S1133800809306439093074360938E4270938F4254
S1133810DC01ED91FC912281203419F41092C1074E
S113382007C0203811F0213831F421E02093C1077A
S11338301092CB0711C0223869F421E02093C1070C
S113384029E02093CB0708C08BE0089583E0089516
S113385081E0089582E008951092C007DC01ED91A3
S1133860FC9184819281903451F41092C507803187
S113387010F4806201C08FE28093C30708C090E215
S11338809093C3078F3008F08FE08093C50781E0E1
S11338908093D3078093D2078093ED401092914296
S11338A0109292420E946A1781110BC084E08093A7
S11338B0904280919142909192420E949D1780E0A3
S11338C0089582E08093904208950097C9F0DC0146
S11338D0ED91FC911197208131812617370790F0E3
S11338E045E0469F9001479F300D11241496ED91B9
S11338F0FC911597E20FF31F81E0808380E0089527
S11339008BE0089582E00895FC01892BD1F1A08118
S1133910B1818D919C91119786179707A0F112960A
S11339209C910480F581E02D903459F485E0869FC4
S1133930D001879FB00D1124AE0FBF1F80EA90E025
S11339400DC09058933080F485E0869FD001879F06
S1133950B00D1124AE0FBF1F80EF90E013968D932E
S11339609C93149780E001C082E095E0969F9001BB
S1133970979F300D1124E20FF31F90819260908382
S113398008958BE0089582E008952091DA0730913C
S1133990DB076091914270919242CB01880F991F8D
S11339A0E0910843F0910943E80FF91F2083318324
S11339B0A0910643B091074344E1469FC001479F4D
S11339C0900D11241296ED91FC911397E80FF91FB5
S11339D092899F708389981710F4891B01C080E035
S11339E095E0969FA001979F500D11241496ED9198
S11339F0FC911597E40FF51F02C0369527958A951B
S1133A00E2F72183328382E080939042E0918C42FA
S1133A10F0918D4209941092C0078091ED4081305D
S1133A2009F04EC04091DA075091DB078091914232
S1133A30909192429C01220F331FE0910843F09130
S1133A400943E20FF31F408351830196809391420F
S1133A50909392420E946A17811109C084E0809376
S1133A60904280919142909192420C949D171092B1
S1133A70E8071092E9071092EA071092EB071092F8
S1133A80EC071092ED071092F0071092F1071092D4
S1133A90F2071092F3071092F4071092F5071092B0
S1133AA0F8071092F9071092FA071092FB07109288
S1133AB0FC071092FD07E0918E42F0918F42099429
S1133AC00C94C51CA29FB001B39FC001A39F700DAD
S1133AD0811D1124911DB29F700D811D1124911D12
S1133AE0089597FB10F8169400080F93083098F087
S1133AF00850232F342F452F562F672F782F892FC7
S1133B00902DF4CF0594979587957795679557955C
S1133B104795379527950A95AAF70F91089500249C
S1133B20A7FD00942A17300540055005600570056F
S10D3B30800590050895F894FFCF76
S1133B3A5FB400864A03EB00000000000000AA55A7
S1133B4A016EA0DB421740C842CC42C542D342D7D9
S1133B5A42D042081464461E2800143200010202AC
S1133B6A969342C5423740030003000003810313BE
S1133B7A3C00DE4294425E40DE424C401401011491
S1133B8A01011401011401011401011401010600C7
S1133B9A0400050014051401E6406E409B42070028
S1133BAA00000000000008000000000000000005FA
S1133BBA00040700000000000000100000000000DC
S1133BCA00000005000407000000000000002000B7
S1133BDA0000000000000005000438000000000096
S1133BEA0000010000000000000000050004380085
S1133BFA00000000000002000000000000000005B0
S1133C0A0004380000000000000004000000000066
S1133C1A0000000500040600403000F001011020F5
S1133C2A0000F0FFFFFF8F000010208000F0FFFF6C
S1133C3AFF90000010202080F0FFFFFF900000108A
S1133C4A80A090F0FFFFFFD0010012305020F2FF55
S1133C5AFFFF110000123050A0F2FFFFFF13010111
S1133C6A10305020F0FFFFFF100000103050A0F079
S1133C7AFFFFFF12010111325220F1FFFFFF210061
S1133C8A00113252A0F1FFFFFF230101103252202A
S1133C9AF0FFFFFF200000103252A0F0FFFFFF22C6
S1133CAA010118335320F8FFFFFF31000018335382
S1133CBAA0F8FFFFFF33010110335320F0FFFFFF89
S1133CCA300000103353A0F0FFFFFF32010114311A
S1133CDA5120F4FFFFFF410000143151A0F4FFFF0B
S1133CEAFF43010110315120F0FFFFFF4000001093
S1133CFA3151A0F0FFFFFF4201010001020301015B
S1133D0A0101020102020301020307001300350044
S1133D1A90001F0F0703010004200440046004807C
S1133D2A04A004C00400010203040506072021229A
S1133D3A232425262760616263646566678081821D
S1133D4A8384858687A0A1A2A3A4A5A6A7C0C1C26D
S1093D5AC3C4C5C6C70086
S9030000FC
