S01100007375726661636532442E73726563B4
S11300000C9474000C9493000C9493000C94EA00E8
S11300100C9493000C9493000C9493000C94930010
S11300200C9493000C9493000C9493000C94930000
S11300300C9493000C9493000C9493000C949300F0
S11300400C9493000C9493000C9493000C949300E0
S11300500C9493000C9493000C9493000C949300D0
S11300600C9493000C9493000C9493000C946206EB
S11300700C9493000C9493000C9493000C949A00A9
S11300800C9493000C94C2000C9493000C94930071
S11300900C9493000C9493000C9493000C94930090
S11300A00C9493000C9493000C9493000C94930080
S11300B00C9493000C9493000C9493000C94930070
S11300C00C9493000C9493000C9493000C94930060
S11300D00C9493000C9493000C9493000C94930050
S11300E00C9493000C94930011241FBECFEFCDBF4A
S11300F0DFE7DEBF12E4A0E0B0E4EAE3F0E400E00E
S11301000BBF02C007900D92A433B107D9F723E4C3
S1130110A4E3B2E401C01D92A13FB207E1F70E943B
S11301204B010C941B200C9400000E94DB060E94DF
S1130130460508951F920F920FB60F9211240BB625
S11301400F922F933F934F935F936F937F938F936C
S11301509F93AF93BF93EF93FF930E942505FF9165
S1130160EF91BF91AF919F918F917F916F915F912B
S11301704F913F912F910F900BBE0F900FBE0F9098
S11301801F9018951F920F920FB60F9211240BB661
S11301900F922F933F934F935F936F937F938F931C
S11301A09F93AF93BF93EF93FF930E940705FF9133
S11301B0EF91BF91AF919F918F917F916F915F91DB
S11301C04F913F912F910F900BBE0F900FBE0F9048
S11301D01F9018951F920F920FB60F9211240BB611
S11301E00F922F933F934F935F936F937F938F93CC
S11301F09F93AF93BF93EF93FF930E94000682E017
S113020080934301FF91EF91BF91AF919F918F91A3
S11302107F916F915F914F913F912F910F900BBE02
S11302200F900FBE0F901F90189580E090E00E94F1
S1130230530680788093344281E090E00E94530614
S113024080788093344282E090E00E945306807864
S11302508093344283E090E00E9453068078809338
S1130260344284E090E00E945306807880933442C4
S113027085E090E00E94530680788093344208958C
S11302800E94B40580916242813021F4109262424E
S11302900E94150108950E9495000E944001FDCF1F
S11302A00F931F93CF93DF9380913742811118C02E
S11302B0E6E1F0E481E090E00090CB4002C0880FDA
S11302C0991F0A94E2F78283AAE5B0E419968C9107
S11302D0199783838C91848381E080933742A6C0ED
S11302E080915C42882309F4A1C020911840422FD8
S11302F050E081E090E00090CB4002C0880F991F4D
S11303000A94E2F799274817590709F473C147E09B
S113031050E030E061E070E0CB01042E02C0880FB1
S1130320991F0A94E2F7822319F027E0231B05C0E2
S11303303F5F41505109383079F7273008F026E003
S1130340C6E1D0E481E0022E01C0880F0A94EAF7E6
S11303508A83ECE7F0E42093CB402093DF402093A2
S1130360F340238B27A323AF0E9446058B819091F2
S11303706340891709F445C1EAE5F0E4818784877D
S1130380878780911A4090915A40891729F0EAE5AD
S1130390F0E480838383868380911F40E09143400F
S11303A0F09144409681292F22952F70821729F0CD
S11303B09F708295807F892B8683E0912340F09102
S11303C02440A8E0B0E48C91858711968C91119714
S11303D0868712968C911297878713968C91139720
S11303E0808B14968C911497818B15968C9115970C
S11303F0828B16968C911697838B17968C911797F0
S1130400848B18968C911897858B19968C911997D3
S1130410868B1A968C911A97878B1B968C911B97B7
S1130420808F1C968C91818F10925C42A6E5B2E479
S1130430E2ECF3E4828115968C93159781811496EE
S11304408C9314971C928081882319F082E0809306
S1130450564280917A4380FF16C0E0914140F0916A
S11304604240808180FF09C0838580FF06C0E6E5A5
S1130470F2E48081846080830BC0E6E5F2E480814D
S11304808160808305C0E6E5F2E480818E7F80830D
S113049090913642E6E5F2E48081892B8083905F77
S11304A09093364282FF37C0E5E2F0E4A081B18147
S11304B04D915C9156954795A681B7818D919C91FC
S11304C096958795480F591FA281B3818D919C9170
S11304D0969587950084F185E02D208131813695AC
S11304E02795820F931FE6E5F2E49A01329522954F
S11304F02F7023273F70232721839C013295229557
S11305002F7023273F70232722834295407F8F70CB
S1130510842B83837DC0A5E2B0E4ED91FC91119717
S113052020813181E6E5F2E4C901929582958F70CC
S113053089279F708927818312960D90BC91A02DE5
S11305408D919C91AC01529542954F7045275F70F7
S1130550452742832295207F8F70822B838358C046
S11305608330B8F444A155A1DA0111964D915C9100
S113057012974883598366A177A1D8016D937C9320
S11305806417750710F4461B01C040E0D9014C9371
S113059016C040815181DA0111964D915C911297F8
S11305A04883598362817381D8016D937C93641766
S11305B0750710F4461B01C040E0D9014C938F5FCE
S11305C02F5F3F4F369622960E5F1F4F863041F6BF
S11305D08091044080FF07C00E944605E0E0F0E4FB
S11305E084818E7F84830E94D40380917A43809394
S11305F0354218C080911940909163409813BCCE45
S1130600C0CE80911A4090915A409813C0CEC4CE67
S113061020E532E4E5EBF3E4C4E4D2E408E312E4D5
S113062080E09ECFDF91CF911F910F910895883084
S113063030F4E82FF0E0E050F04C8081089590EF22
S1130640980F963030F4E82FF0E0EA5BFD4B8081A0
S1130650089590EE980F9A3030F4E82FF0E0EA50C5
S1130660F04C8081089599EC980F9E3030F4E82F77
S1130670F0E0EF52F04C8081089594E7980F9630A3
S113068030F4E82FF0E0EC53FE4B808108959DE5B3
S1130690980F9C3068F4E92FE695F0E0EE0FFF1F09
S11306A0EC5BFD4B2081818190FD15C0822F089564
S11306B0EFE2E80FEC3070F4AE2FA695B0E0AA0F8D
S11306C0BB1FA85CBD4B9C9111968C91E0FD03C0AF
S11306D0892F089580E00895843019F460930440CC
S11306E016C09EED980F983030F4E82FF0E0EA50F1
S11306F0F04C60830CC099EC980F9E3030F4E82FD6
S1130700F0E0EF52F04C608302C081E0089581E094
S113071080935C4280E008959091E742E92FF0E0F5
S1130720ED52FD4B80819F5F943119F09093E74225
S113073008951092E742089591E090934C4380937A
S1130740220880914C438130E1F3089580914C4319
S1130750811109C081E080934C438093CB42809106
S11307604D43809322080895EDE4F3E42DEA2083B9
S11307703AE03183128281E08383148240E145832D
S11307809AED9487258746878787808B118A43EA69
S1130790428B978F20A331A325E022A383A314A225
S11307A08CE885A394A70895EF92FF920F931F936B
S11307B0CF9380914D43811102C00E94B403809174
S11307C020408130C1F580914C43811134C003E550
S11307D013E4C0E18C2F0E941703F80181938F0169
S11307E0CF5FC631B9F700E613E40F2EFCE6EF2E17
S11307F0F3E4FF2EF02DC3EA8C2F0E941703F801B7
S113080081938F01CF5FEE16FF06B1F703E713E480
S1130810CCE88C2F0E941703F80181938F01CF5FDE
S1130820C239B9F78091CC42813019F081E08093CC
S11308305E420E940A0DCF911F910F91FF90EF909D
S113084008958091CA429091E742891710F0891B5C
S113085008958C5E891B08951F93CF93DF93C82F4F
S1130860162FD42F1092D24285E08C0F80935D42D4
S11308708DEA0E949C0384E08C0F0E949C03812FCC
S11308800E949C0381E00E949C0380E00E949C03E0
S11308908D2F0E949C03DF91CF911F910895EF92B9
S11308A0FF921F93CF93DF9380915E42813021F4B6
S11308B010925E420E94A6030E942104853008F42F
S11308C0A0C00E948C038D3A09F09BC08091CC4259
S11308D081111CC00E942104843008F492C00E943B
S11308E08C03182F0E948C030F2EFCECEF2EF2E4E5
S11308F0FF2EF02DF70182830E948C03C82F0E94E3
S11309008C03D82F81E0F701808306C0813009F081
S113091078C0D0E0C0E010E01092CA421092E742E2
S11309208091CE42803809F46AC08138E9F480911C
S11309304C438130E1F3109220404C2F612F8D2FD6
S11309400E942C04DD2349F0DC0F8C2F0E94170336
S11309500E949C03CF5FDC13F8CF8AED0E949C03B6
S113096081E08093204048C0813061F580914C4300
S11309708130E1F3109220404C2F612F8D2F0E9483
S11309802C04CC2361F0DD23B1F0DC0F8C2F0E940A
S113099017030E949C03CF5FCD13F8CF0CC080E0F7
S11309A00E949C0380E00E949C0380E00E949C03C0
S11309B080E50E949C038AED0E949C0381E0809361
S11309C020401AC0811118C080914C438130E1F35A
S11309D0109220406D2F8C2F0E946C034C2F612F9E
S11309E081E00E942C048D2F0E949C038AED0E94BA
S11309F09C0381E0809320401092CC4202C010926C
S1130A00CC42DF91CF911F91FF90EF900895E0E2E7
S1130A10F8E084818064848380912040813019F0DF
S1130A2010924C4308958091CB428D3258F4E82FB4
S1130A30F0E0E35BFC4B9081909322088F5F8093FE
S1130A40CB42089510924C4308958091CA429091EC
S1130A502008E82FF0E0ED52FD4B90838F5F843146
S1130A6019F08093CA4208951092CA42089581E011
S1130A70809363420895E0E4F1E0918192FDFDCF1B
S1130A8090E080934A0190934B0108950F931F9334
S1130A90CF93DF9380E20E943B05E2E1F4E08081A2
S1130AA0877F80838081887F84608083E1E1F4E0B4
S1130AB08081877F80838081887F84608083E0E178
S1130AC0F4E08081877F80838081887F8460808355
S1130AD0E5E1F4E08081877F80838081887F846082
S1130AE08083E4E1F4E08081877F80838081887F54
S1130AF084608083E3E1F4E08081877F8083808168
S1130B00887F8460808386E790E40E94B41D80EA35
S1130B1093E40E946B1EC0E0D0E0BE0186E790E43F
S1130B200E94E51EBE0186E790E40E94041F219600
S1130B30C630D10591F702E813E4C0E0A8016C2F98
S1130B4082E590E40E947E07CF5F0B5F1F4FC630A3
S1130B50A9F78FE390E40E947F190E940F0DDF91A3
S1130B60CF911F910F91089580916442813051F487
S1130B7067E375E086E790E40E94751E811102C068
S1130B8010926442809163428130B9F510926342BD
S1130B900E94321B81111CC082E590E40E949D07D3
S1130BA0882319F082E0809361428FE390E40E94ED
S1130BB08912882319F083E08093614281E290E4F2
S1130BC00E94320D882339F084E08093614203C08F
S1130BD081E080936142E0915240F09153408081E2
S1130BE0882324F481E08093644203C081E08093ED
S1130BF06242F8940E94500178940E944F04089530
S1130C00809181438F5F8093814380915F42909173
S1130C106042019680935F429093604280915F426C
S1130C20909160420A9788F120915F42309160422E
S1130C30ADECBCEC0E94E21F96958795969587953E
S1130C40969587950E94250D40915F425091604290
S1130C509A01ADECBCEC0E94E21F9695879596959F
S1130C608795969587959C01220F331F880F991FAE
S1130C70880F991F880F991F820F931F9A01281BB1
S1130C80390B20935F4230936042809181438431D9
S1130C9048F01092814381E08093644284E190E0C3
S1130CA00E94730708959C01220F331F820F931F24
S1130CB0880F991FE0915640F0915740E80FF91FB3
S1130CC0808108951F920F920FB60F9211240BB6D4
S1130CD00F922F933F934F935F936F937F938F93D1
S1130CE09F93AF93BF93EF93FF930E948B1FFF914A
S1130CF0EF91BF91AF919F918F917F916F915F9190
S1130D004F913F912F910F900BBE0F900FBE0F90FC
S1130D101F9018951092890080E0089544E268EDD0
S1130D2088E690E00E94EA0680E00895789480E0E6
S1130D300895E0E1F4E0808188608193E83184E003
S1130D40F807C9F7E0E3F4E0808188608193E83331
S1130D5084E0F807C9F7E0E5F4E0808188608193D6
S1130D60E83584E0F807C9F7E0E7F4E080818860BB
S1130D708193E83784E0F807C9F7E0E9F4E080817B
S1130D8088608193E83984E0F807C9F7E0EBF4E080
S1130D90808188608193E83B84E0F807C9F708956F
S1130DA04198E1E5F4E08081877F80834898409A08
S1130DB00E94FF0608950E9499060E948E060E94D2
S1130DC0D0060E94FD060E9496060E94EF060E942D
S1130DD08A0608951BBEFC0164BF40830895E0E4C5
S1130DE0F1E081818111FDCFE0E4F1E081E88083CD
S1130DF0178282E0828380E0089580E00895E0E233
S1130E00F8E084EC99E08087918780EC8583868381
S1130E1080E00895CF92DF92FF920F931F93CF93B8
S1130E20DF93EC01AE81BF81EB01CC0FDD1FC60F58
S1130E30D71FCA0FDB1FFA80FC0144815581E6E00D
S1130E40E69F9001E79F300D11248A01020F131FC2
S1130E50F80122813381F90121813281F801048171
S1130E601581201B310BE8812E1B3109EC01EA812D
S1130E70FB8100811181FA0140E050E040175107E5
S1130E8039F146175707F9F012968C911297F81218
S1130E901AC0808185588230E8F0C480D580828170
S1130EA09381EC0189819A81C816D90660F48C1962
S1130EB09D09CC91D0E0C817D90728F48C1B9D0B51
S1130EC02817390738F04F5F5F4F13963696D6CF01
S1130ED080E001C081E0DF91CF911F910F91FF90DD
S1130EE0DF90CF9008952091654230916642820F41
S1130EF0931F809365429093664208950097D9F0BA
S1130F0041155105C1F026E0629FB0011124DC01B6
S1130F101496ED91FC911597E60FF71F21E02083BD
S1130F2014968D919C911597FC01E60FF71F42834F
S1130F30538380E008958BE008952F923F924F925F
S1130F405F926F927F928F929F92AF92BF92CF9255
S1130F50DF92EF92FF920F931F93CF93DF9300974B
S1130F6009F47EC3EC01A12CB12C812C912C212CF1
S1130F70D12C5524539433E0C32E45E8642E56E80F
S1130F80752E62E0362E78E0472EEA81FB8180815F
S1130F9091818816990608F0A6C17501EE0CFF1C14
S1130FA0EC81FD81EE0DFF1DA281B3819C919E71A8
S1130FB009F050820C811D810E0D1F1DD8018C91EA
S1130FC0843009F49EC038F48230D1F008F045C072
S1130FD0813059F081C1853809F4BFC0863809F4DD
S1130FE0F5C0873009F078C136C1911167C1F801A5
S1130FF030828C819D81FC01EE0DFF1D41825EC11A
S1131000D80111962C911197222329F11296ED9172
S1131010FC911397253018F0818192810EC0D8017C
S113102014968D919C91159741815281841795074F
S113103069F04817590730F4019714968D939C93DF
S1131040159704C00196F801848395832150D80133
S113105011962C9333C1F8012DC1D80114962D910A
S11310603C9115971296ED91FC9113974181528111
S11310702417350709F430C18E819F814217530725
S1131080F8F4EA81FB81241B350BDC01AA0DBB1D9E
S11310908C9190E0058002C0959587950A94E2F7BB
S11310A099272817390708F417C18481882309F47C
S11310B013C187E0F8018083EA81FB8124811AC08F
S11310C0FC01EA0DFB1D421B530B808190E0481785
S11310D0590708F401C18281882331F0B401CE019B
S11310E00E940A078111F8C0E4E0D801EC93EA8178
S11310F0FB8122818C819D81FC01EE0DFF1D2183EA
S1131100DDC0D80114962D913C9115971296ED915E
S1131110FC911397818192818217930708F4BBC0D5
S1131120EE81FF81EA0DFB1D821B930B208130E0D1
S11311302817390708F0C5C08281882331F0B4012B
S1131140CE010E940A078111C7C0F801818188235A
S113115009F46AC081508183B1C0E881F981AA8110
S1131160BB8118968C918383EC81FD81EE0DFF1D6C
S113117044815581A281B38111968D919C911297DE
S113118084179507C0F0AE81BF81AA0DBB1D6C9179
S1131190262F30E011967C917F5F02C0359527950C
S11311A07A95E2F7841B950B621B262F30E02817F3
S11311B0390708F48FC07082EA81FB8122818C8117
S11311C09D81FC01EE0DFF1D218342C0D8011496C0
S11311D06D917C9115971296ED91FC911397218155
S11311E032812617370758F411968C911197811183
S11311F002C0CC926FC08150F80181836BC0EE8134
S1131200FF81EA0DFB1D8081482F50E091819F5F93
S113121002C0559547959A95E2F7261B370B841B18
S113122090E08217930760F4D8016C92EA81FB8105
S113123023818C819D81FC01EE0DFF1D21834AC019
S1131240F8018181811102C0C08244C08150818330
S11312502224239433C0F801248135810280F38150
S1131260E02D818192818217930758F5281B390B51
S1131270EE81FF81EA0DFB1D808190E0EA81FB8114
S1131280058002C0959587950A94E2F79927281757
S1131290390718F4D801CC9216C0F8018181811164
S11312A00BC050828C819D81FC01EE0DFF1D0280DC
S11312B0F381E02DC08210C081508183DD24D3945A
S11312C00BC0F801C0828C819D81FC01EE0DFF1DD5
S11312D0118202C022242394FFEF8F1A9F0A83E015
S11312E0A80EB11C52CEE881F981808187FF23C00A
S11312F040E050E020E030E0EA81FB818081918190
S11313002817390798F4EC81FD81E40FF51FA281B9
S1131310B3818C9180FD05C09081977F11F081602D
S11313208C932F5F3F4F4A5F5F4FE6CFE881F9818F
S113133080818F778083D11007C0E881F9812110E3
S11313406FC080818E7F6EC0EA81FB818185882396
S1131350A1F3E881F981808180688083EA81FB813F
S11313608185813051F740E050E020E030E096E0A4
S1131370D92EEA81FB816081718126173707E8F64F
S11313800C811D81FA01EE0FFF1FE00FF11F808118
S1131390982F977FA1F1853811F08330B1F5EE8055
S11313A0FF80D701A40FB51F1296BC90BB2039F162
S11313B080E090E0C12C86179707F8F428173907C6
S11313C0D1F0D89ED001D99EB00D1124A00FB11F29
S11313D0AC91A43011F0A63871F4DC01AA0FBB1F44
S11313E0A80FB91FAE0DBF1D1296AC91BA1203C05F
S11313F0CB01CC24C3940196DECFC11006C0028079
S1131400F381E02D80818E7F05C00280F381E02D81
S11314108081816080832F5F3F4F4D5F5F4FA9CFF5
S11314208081816080838091654290916642E881E9
S1131430F98121813281A90148535F4F4817590727
S113144038F4821B930BAA24A394A3E0BA2E44C0BD
S11314508217930710F080E004C1821B930B01975D
S1131460893C9105C0F3EFCF885C9109E881F9814B
S11314702181328128533F4F2183328323812111DB
S113148096C02481222311F021502483E881F9811C
S11314902581222311F0215025838A809B80D40149
S11314A016962C91169721111BC08A809B80F401FB
S11314B02781211148C0EA81FB812381222361F025
S11314C020E030E0A0E0B0E0EA81FB81408151817E
S11314D0A417B50708F46EC0893C910528F6BBCF64
S11314E008811981F80124812111DFCFED90FC904E
S11314F060E070E040E050E04E155F05F1F0EC81F3
S1131500FD81E60FF71F2081233011F0283081F48C
S113151024813581C280D380D6011196CD90DC9090
S113152012972C153D0520F42F5F3F4F24833583FC
S11315304F5F5F4F6A5F7F4FDFCFF4012681D80191
S113154014962C93B2CF08811981D80115962C9149
S11315502111B1CFE080F18060E070E040E050E024
S11315604E155F05F1F0EC81FD81E60FF71F208138
S1131570233011F0283081F424813581C280D38056
S1131580D6011196CD90DC901297C216D30620F4A2
S113159021503109248335834F5F5F4F6A5F7F4F4A
S11315A0DFCFF4012781D80115962C9384CF2150E5
S11315B0238381CFA901440F551FEC81FD81E40FE2
S11315C0F51F6081653809F047C06181662319F011
S11315D06150618341C0A0826C817D81FB01E40F75
S11315E0F51F0280F381E02DB082EE81FF81E20FCE
S11315F0F31FD280DD2081F140E050E000E010E0F4
S1131600EA81FB81608171810617170728F5EE8155
S1131610FF81E40FF51F6281D61219C0BA01660F6B
S1131620771FEC81FD814F01860E971EF401E28045
S1131630F380F701F080F0FE0AC0F401A082EC818F
S1131640FD81E60FF71F0280F381E02DB0820F5F6A
S11316501F4F4D5F5F4FD4CF11962D5F3F4F34CF57
S11316608BE0DF91CF911F910F91FF90EF90DF906E
S1131670CF90BF90AF909F908F907F906F905F902E
S11316804F903F902F900895209197423091984227
S11316908091934290919442281B390B80919942F6
S11316A090919A424091954250919642841B950B99
S11316B0B90137FF04C066277727621B730BAC019F
S11316C097FF04C044275527481B590B6417750717
S11316D02CF0121613063CF080E008951816190633
S11316E024F083E0089582E0089581E008954F9204
S11316F05F926F927F928F929F92AF92BF92CF929E
S1131700DF92EF92FF92C82ED12CE12CF12C909114
S11317108D429430B8F0915090938D42409189421B
S113172050918A4260918B4270918C42452F562F82
S1131730672F77274093894250938A4260938B4264
S113174070938C4240918D42942F990F990F990F69
S113175004C0CC0CDD1CEE1CFF1C9A95D2F78090C3
S1131760894290908A42A0908B42B0908C42C828C3
S1131770D928EA28FB28C0928942D0928A42E09272
S11317808B42F0928C4290917C42903F09F440C08D
S1131790ECEFF0E420E030E080809180A280B38020
S11317A08C249D24AE24BF24448055806680778099
S11317B084209520A620B72089288A288B2811F513
S11317C05BE0529FF001539FF00D1124E450FF4B56
S11317D09085AEE7B2E401900D925A95E1F7903905
S11317E031F490918E42992399F0906908C09F3802
S11317F031F490918E429F5F90938E4209C09093F2
S11318007C4206C02F5F3F4F3B962431310521F6C1
S1131810909178429111E7C0982F907F903509F00C
S1131820C6C0582F53702091FA4090916B422223E6
S113183061F091110AC0E091EB43F091EC43978978
S113184090936A421092FA4002C091113AC0E52F77
S1131850F0E09091F940292F30E0B9016F5F7F4F9C
S113186063707727E617F70721F4909169429F5F29
S11318700AC02150310923703327E217F30741F4DA
S1131880909169429150909369421092684203C0CA
S11318905913109269426091694220916A4262131D
S11318A002C091E00CC0062E000C770B3327219563
S11318B00CF430956217730709F076C09FEF90938C
S11318C06B4260916B42613019F06F3F09F06CC05C
S11318D02FEF3FEF2093E9433093EA439091F9408F
S11318E0E091EB43F091EC43591749F0A52FB0E098
S11318F0262F290F237030E0A217B307C9F42091D3
S11319006842613029F436892317ECF42F5F0DC047
S11319106689772761950CF47095A22F022E000C2E
S1131920BB0B6A177B077CF42150209368420BC0E1
S113193010926B4210926942208D20936A42109259
S1131940E9431092EA43268960916842261307C04E
S113195020EF20937C42209167422F5F10C0062E17
S1131960000C770B332721950CF43095621773071D
S1131970D9F421EF20937C422091674221502F70AB
S113198020936742990F990F91602295207F292B0C
S113199091E030916B4213160CF090E0990F292BD3
S11319A020937B42109268425093F9401CC0282F28
S11319B02F77203299F410926B4210926942109260
S11319C0684290917C429E7F903F11F410927C4239
S11319D090EF9093F9401092674205C0903119F44A
S11319E091E09093FA404F5F40938D42FF90EF90C7
S11319F0DF90CF90BF90AF909F908F907F906F902B
S1131A005F904F90089581E090917D42911101C0C3
S1131A1080E0089510927D4210927C4208951092C5
S1131A208E4210928D421092894210928A421092F4
S1131A308B4210928C428FEF9FEF8093E9439093F7
S1131A40EA431092794280E008952091E94330916D
S1131A50EA4337FD06C0280F391F2093E94330932A
S1131A60EA430895AF92BF92CF92DF92EF92FF9232
S1131A700F931F93CF93DF93EC01892B09F4ECC2EE
S1131A80EA81FB81E093EB43F093EC43A481B581BD
S1131A902C91A285B385109711F09C9101C090E020
S1131AA021709170392F330F322B80916F4228139C
S1131AB004C0222331F0A3E007C0222321F0A1E0D7
S1131AC003C0A0E001C0A2E020936F428091704265
S1131AD0981304C0992331F083E007C0992321F0BF
S1131AE081E003C080E001C082E09093704224E072
S1131AF0A29FD0011124A852BE4BA80FB11D8C91F6
S1131B00333051F490917842911115C091E0909343
S1131B10784290937A420BC010927A424091E94302
S1131B205091EA434F3F5F4F11F4109278429091E5
S1131B307842992319F1A081B1812D913C91A90199
S1131B4056954795A681B7812D913C913695279559
S1131B50240F351F2093764230937742A281B381BC
S1131B602D913C91A90156954795A085B1852D915C
S1131B703C9136952795240F351F1BC0313059F4FD
S1131B80A081B1812D913C9120937642309377428C
S1131B90A281B3810CC0323081F4A681B7812D912A
S1131BA03C912093764230937742A085B1852D9164
S1131BB03C912093744230937542813049F008F48B
S1131BC0EDC1823009F479C0833009F4A1C0FCC1AD
S1131BD010928D421092894210928A4210928B4246
S1131BE010928C42109272428BE02EE732E4D901BB
S1131BF01D928A95E9F71092714210927C421092DC
S1131C007B42E0907642F0907742E0929742F092E5
S1131C109842009174421091754200939942109336
S1131C209A42258930E0E216F30610F482E101C0FD
S1131C3080E140E051E0421B530B4E155F0508F470
S1131C4081600217130708F488604017510708F4ED
S1131C5084600E94770B8093734280918E42882324
S1131C6009F451C080918F4290919042E816F90690
S1131C7020F09701281B390B03C09C012E193F0942
S1131C8080919142909192420817190728F0F80127
S1131C90E81BF90BCF0102C0801B910BE091EB43D1
S1131CA0F091EC43448950E04217530718F0481769
S1131CB0590748F510928E4226C080917642909141
S1131CC0774280938F429093904280917442909196
S1131CD075428093914290939242109279428091FE
S1131CE08742882321F088EA80937C4205C080E201
S1131CF00E94770B809373428BE0EEE7F2E4DF01FE
S1131D001D928A95E9F71092E9431092EA435CC167
S1131D10992309F466C0A281B3812D913C91A085D9
S1131D20B1858D919C912817390728F0A901481B8A
S1131D30590BCA0102C0821B930BA081B1812D9162
S1131D403C91A681B7814D915C912417350718F019
S1131D50241B350B04C0BA01621B730B9B01409119
S1131D607A42423060F410926E42280F391F209359
S1131D706C4230936D4282E080937A4229C04230B3
S1131D8039F5280F391F818D90E040916C425091B4
S1131D906D42BC01640F751F6217730738F0820F20
S1131DA0931F8417950708F459C112C091E08091DC
S1131DB06E42890F80936E4220936C4230936D4241
S1131DC0913009F04DC191EC90937C4280937B4219
S1131DD080917C42882329F080EC0E94770B8093C9
S1131DE07342E091EB43F091EC432091E94330914D
S1131DF0EA43858590E0281739077CF08091714289
S1131E0081110BC01091794210FD07C080E80E9437
S1131E10770B8093734211600FC0878590E0281779
S1131E2039076CF01091794211FD09C080EA0E94D3
S1131E30770B809373421260109379421AC086859F
S1131E4090E028173907ACF080917142811111C0DC
S1131E5080917942833069F480E90E94770B809302
S1131E607342109279428FEF9FEF8093E9439093EE
S1131E70EA43A0907642B0907742A0929342B09207
S1131E809442C0907442D0907542C0929542D092D0
S1131E909642E0909742F0909842AE14BF0428F026
S1131EA0C5018E199F097C0102C0EA18FB08009144
S1131EB0994210919A42C016D10628F0D601A01B6F
S1131EC0B10B8D0102C00C191D09E091EB43F09197
S1131ED0EC43838990E08E159F0518F080179107D5
S1131EE070F48091714281110AC00E94440B806396
S1131EF00E94770B8093734281E0809371428091BA
S1131F007142882309F460C0E091EB43F091EC4303
S1131F10878590E02091E9433091EA4328173907F7
S1131F200CF052C0808990E08E159F0530F08189B5
S1131F3090E08017910708F047C00E94440B803F4F
S1131F40D1F0909172428065992361F0209173429F
S1131F50821308C020918D42215020938D429150CC
S1131F60909372420E94770B8093734280917242E5
S1131F708F5F809372428091E9439091EA43019686
S1131F8021F01092E9431092EA43A0929742B09252
S1131F909842C0929942D0929A4216C0858590E0A8
S1131FA02091E9433091EA43821793076CF480E867
S1131FB00E94770B8093734210928E428FEF9FEFB3
S1131FC08093E9439093EA4380918842813021F4DD
S1131FD08091864280937C4280917C42982F9E7FA0
S1131FE010917B42903F31F410FF06C091E0909332
S1131FF07D4202C08111FACF909178429923E1F099
S113200090917D429923C1F09FEF980F933410F47F
S11320108C5F09C0982F907F903911F4805F03C0C2
S1132020803D19F484ED80937C4280917C42807CD5
S1132030803C11F010927842E880F9800E94030DF0
S1132040F7018083E881F98180917C428183E88172
S1132050F981128380E006C08BE004C09FEFA7CE15
S113206090ECB2CEDF91CF911F910F91FF90EF9042
S1132070DF90CF90BF90AF9008959C0161157105DA
S113208009F14F5F37FD06C0442321F04150220F70
S1132090331FF8CF77FD04C04F5F660F771FFACF69
S11320A080E090E0442381F097FD0CC0880F991FD5
S11320B041502617370718F0261B370B01967695E3
S11320C06795F0CF8FEF9FEF08952CE0829FC001BA
S11320D01124FC0126E0629FE00DF11D1124E55559
S11320E0FD4B228133812083318374816581728326
S11320F0638344835583872F962F48175907D9F054
S113210082179307C1F042175307A1F0841795076C
S113211040F42817390778F0CA012417350758F412
S113212007C08217930738F0CA014217530718F4FF
S1132130C9010895CA01089526E0269FF001279F4A
S1132140F00D1124E80FF91FA281B38111968D912E
S11321509C911297248135812817390718F4821B22
S1132160930B089580E090E008959F92AF92BF9200
S1132170CF92DF92EF92FF920F931F93CF93DF934F
S11321806C018B01942EE901B9010E949C107C0121
S11321900C171D0740F4BE0161507109C6010E946D
S11321A09C105C0102C0A12CB12C090D111D015021
S11321B01109C017D107D0F4BE016F5F7F4F86E0CD
S11321C0869FF001879FF00D1124EC0DFD1DA28167
S11321D0B38111962D913C91129784819581821738
S11321E0930720F4C6010E949C1002C080E090E096
S11321F08A159B0508F4C5018E0D9F1DDF91CF91B3
S11322001F910F91FF90EF90DF90CF90BF90AF9010
S11322109F900895442371F19B012F5F3F4F8217D4
S1132220930741F1225031098217930719F19C0158
S1132230260F371F413011F4AC0106C0423019F4A7
S1132240220F331F05C0AB01440F551F240F351F48
S11322506817790718F42E5F3F4F05C08617970754
S113226010F4225031092E5F3F4FC901969587958E
S11322709695879508959F92AF92BF92CF92DF92E1
S1132280EF92FF920F931F93CF93DF93EB018A0199
S1132290922EFC01C384D484C6010E949C105C016C
S11322A0B801C6010E949C1075018A159B0508F4AB
S11322B07C010C171D0798F40F5F1F4FAA24AA94E2
S11322C0BA2CC017D107E1F0B801C6010E949C10D6
S11322D08A159B0508F45C010F5F1F4FF2CF21960E
S11322E0AA24AA94BA2CC017D10750F4BE01C6017F
S11322F00E949C108A159B0508F45C012196F3CF7B
S1132300992041F0C70123E0969587952A95E1F736
S1132310E81AF90A81E0AE14BF0408F080E0DF9106
S1132320CF911F910F91FF90EF90DF90CF90BF90CE
S1132330AF909F900895CF93FC012681C22FC29540
S1132340CF70CB016130704110F080E090E12F70CC
S1132350D9F0215030E02F5F3F4F68E2629FA00127
S1132360639F500D11248417950718F0841B950B57
S113237002C080E090E0440F551F60E070E1641BF0
S1132380750B4CE00E943D10811520E1920710F07E
S11323908FEF9FE02CE030E02C1B310902C09695B2
S11323A087952A95E2F7CF9108952F923F924F9205
S11323B05F926F927F928F929F92AF92BF92CF92D1
S11323C0DF92EF92FF920F931F93CF93DF93CDB7DA
S11323D0DEB72597CDBFDEBF89839A832B014B835C
S11323E08901FC01C384D484B901C6010E949C10F4
S11323F08C839D8397FF02C01C821D8204151505E2
S113240049F0B80161507109C6010E949C107C0119
S113241097FF02C0E12CF12CFB812F2E312CC2013D
S1132420820D931D01974801A12CB12C612C712CB4
S11324300817190709F45FC0B8016F5F7F4FC60121
S11324400E949C1084189508A608B7082CE0880CF4
S1132450991CAA1CBB1C2A95D1F797FF02C080E0E7
S113246090E0E816F90688F02C813D81281B390B91
S11324702C833D83B901681B790B6E0D7F1D4CE0E5
S1132480C9010E943D1090510BC08E199F096C81A7
S11324907D816E197F09680F791F4CE00E943D1001
S11324A0A5019401280F391F411D511DDA01C901ED
S11324B03B81333030F0B1016150710940E00E943A
S11324C03D10BC0189819A812596CDBFDEBFDF9185
S11324D0CF911F910F91FF90EF90DF90CF90BF901D
S11324E0AF909F908F907F906F905F904F903F90B0
S11324F02F900C949B1184189508A608B7088CE0BB
S1132500880C991CAA1CBB1C8A95D1F780E090E02A
S1132510ABCF2F923F924F925F926F927F928F92A6
S11325209F92AF92BF92CF92DF92EF92FF920F935E
S11325301F93CF93DF93CDB7DEB76B97CDBFDEBFCD
S1132540FC01892B09F4EAC020813181288B398B65
S11325504481558149835A83628173816A8F7B8F59
S1132560672B09F4C5C04115510509F4C1C0DA014E
S11325701B962D903C901C972114310409F4B8C08B
S11325801696BC91B88FB03D08F0B4C0F901F08143
S1132590FF83DA0112965C9012970D911C91F170F1
S11325A0F98FBF81B0FD36C0C80120E0A801450DF8
S11325B0511D36E08417950770F4389FF001399F58
S11325C0F00D1124E20DF31D6081653811F4CA0188
S11325D021E00196EFCF21111DC0E981FA813581F7
S11325E083819481AC01430F511D36E08417950714
S11325F070F4389FF001399FF00D1124E20DF31DA2
S11326006081653811F4CA0121E00196EFCF2223DD
S113261009F486C038017801A12CB12C9801250D4C
S1132620311D2E873F874E855F85E416F50680F4BD
S1132630B701C1010E949C10181619062CF4A816A3
S1132640B90614F437015C013FEFE31AF30AEBCF48
S1132650A981BA811596BC91BB87E981FA8103806F
S1132660F481E02DEB83FC83ED83FE837F01A12CB9
S1132670B12C9F012B0F311D2C8B3D8B6C897D89D7
S1132680E616F70688F4B701C1010E949C101816DB
S1132690190634F4A816B9061CF4ED82FE825C0116
S11326A05FEFE51AF50AEACF9301452DB801C101A0
S11326B00E94B51089879A872D813E814B856B8155
S11326C07C81C1010E94B510A981BA8119960D902F
S11326D0BC91A02DAA8BBB8B29853A852817390775
S11326E008F49C01EA89FB892E173F07C8F02BC028
S11326F08BE001C082E0212C20FE04C091E8E8892F
S1132700F9899083922D967009F4E3C5922D907304
S1132710A889B9892C90292A2C92DBC58BE0D9C5CC
S1132720E889F9891082AA8DBB8D1C9219961D9295
S11327301C921A971B961C921B9754961D921C92DE
S1132740559780E0D8CF9301452DB80189819A81AE
S11327500E94D5116C01BF81B4FB442440F8C80128
S113276001968615970508F48BC518861D86812C5D
S1132770912C8E859F8501976816790618F573014B
S113278032E0E30EF11C6E857F85E616F706D0F481
S11327909701452DB801C1010E94B5105C0188164E
S11327A0990660F4242DA701B30189819A810E94BE
S11327B03B11882319F0E886FD8645014FEFE41AA2
S11327C0F40AE1CF8A899B898816990660F02885E6
S11327D03D85452DB80189819A810E94D5112C012E
S11327E093E09D8705C02601812C912CA1E1AD8742
S11327F02D813E814B856B817C8189819A810E94E8
S1132800D5113C01BF81B5FBBB27B0F9BE878B81D5
S11328109C810196ED81FE818E179F0748F50B81FF
S11328201C811F821886A12CB12C3297EE8BFF8B52
S11328302E893F8902171307F8F498014B856B81A1
S11328407C81C1010E94B5107C01A816B90668F408
S11328502E85A8016D817E8189819A810E943B1118
S1132860882319F00F83188757010F5F1F4FE0CF9C
S11328701F821886A12CB12C8C899D8901974D81CA
S11328805E814817590718F58A010E5F1F4F6C893E
S11328907D8906171707D8F498014B856B817C81D5
S11328A0C1010E94B5107C01A816B90668F42E85F2
S11328B0A8016D817E8189819A810E943B118823C0
S11328C019F00F83188757010F5F1F4FE0CF8A89D4
S11328D09B89A816B90690F02F8138854B856B81AA
S11328E07C8189819A810E94D5117C018A149B0480
S11328F008F445019D859460292E04C0AD85A0622D
S11329002A2E7301B98DB11169C081E0EA8DFB8D66
S11329108083C182D282C382D482C092A742D092E1
S1132920A84265827682678270866092A342709222
S1132930A44229853A8521873287C092AB42D0923E
S1132940AC42C092AD42D092AE42C092AF42D0925D
S1132950B0426092B1427092B2426092B3427092BD
S1132960B4426092B5427092B642922D967021F4B0
S11329701386148A158A60C4AA8DBB8D54968D92D1
S11329809C9255971B968C931B971C964D925C9228
S11329901D971E964D925C921F975096ED92FC9255
S11329A051975296ED92FC9253974092B7425092AF
S11329B0B8424092B9425092BA424092BB425092BD
S11329C0BC42E092BD42F092BE42E092BF42F0921D
S11329D0C042E092C142F092C2422EC4E981FA811F
S11329E03084888D82958F7061E070E002C0660F3C
S11329F0771F8A95E2F7615071090A8D1B8D8FE963
S1132A00A82E82E4B82E2BE932E42E873F8743EACE
S1132A1052E44D835E8387EA92E48B839C83D801DE
S1132A205696AB87BC87F801808180FD0AC02FEFE2
S1132A303FEFD5012D933C93AE85BF852D933C93F9
S1132A404FC083819481AB81BC814D915C9184178B
S1132A50950720F09C01241B350B03C09A01281B09
S1132A60390B4817590740F4820F931FAB0186179F
S1132A70970758F4AC0109C02817390720F4AC01B2
S1132A80421B530B02C040E050E0D5014D935C93D0
S1132A9087819085AD81BE814D915C9184179507A6
S1132AA020F09C01241B350B03C09A01281B390B11
S1132AB04817590740F4820F931FAB0186179707F5
S1132AC058F4AC0109C02817390720F4AC01421BA3
S1132AD0530B02C040E050E0AE85BF854D935C933C
S1132AE03B96B2E0AB0EB11C2E853F852E5F3F4F67
S1132AF02E873F874D815E814E5F5F4F4D835E839E
S1132B008B819C8102968B839C83AB85BC85EA1761
S1132B10FB0709F089CFB32DB3703B2EEA8DFB8DF3
S1132B209385822D867009F413C229853A852187FD
S1132B303287848A958A9111A7C080919F4290918F
S1132B40A0428C159D0520F09C012C193D0903C061
S1132B509601281B390B8415950518F084199509DD
S1132B6004C0A201481B590BCA01AA8DBB8D119642
S1132B706D917C911297432D8217930750F4C201F3
S1132B800E940A11EA8DFB8D81839283C486D586C7
S1132B900DC0C6010E940A11AA8DBB8D11968D939A
S1132BA09C9312971C964D925C921D9780919B4228
S1132BB090919C428615970520F09C0126193709AF
S1132BC003C09301281B390B8E159F0518F08E192D
S1132BD09F0904C0F701E81BF90BCF01AA8DBB8D37
S1132BE015966D917C911697432D8217930750F497
S1132BF0C7010E940A11EA8DFB8D85839683608A42
S1132C00718A0DC0C3010E940A11AA8DBB8D15964D
S1132C108D939C9316975096ED92FC92519781E078
S1132C20EA8DFB8D8387248535852093A9423093D3
S1132C30AA422093A1423093A242268737878089F3
S1132C4091898093A5429093A64280939D4290934C
S1132C509E42828B938B2093B7423093B842209349
S1132C60B9423093BA422093BB423093BC42809322
S1132C70BD429093BE428093BF429093C0428093E2
S1132C80C1429093C242B1C0AA8DBB8D2C911C96B7
S1132C90AD90BC901D975096ED91FC915197EB83AC
S1132CA0FC838091A1429091A24280909D42909099
S1132CB09E4221119CC08415950520F09C01241985
S1132CC0350903C09201281B390B8C159D0518F09A
S1132CD08C199D0904C0A601481B590BCA01AA8D71
S1132CE0BB8D8217930740F411964D925C92129714
S1132CF0432DB501C60107C01196CD92DC921297FF
S1132D00432DB501C2010E940A11EA8DFB8D84870F
S1132D1095878E149F0420F0C4018E199F0903C067
S1132D20C701881999098614970418F0861897081A
S1132D3004C09301281939094901AA8DBB8D88164D
S1132D40990648F41596ED92FC921697432D6B81E3
S1132D507C81C30108C015966D927C921697432D11
S1132D606B817C81C7010E940A11EA8DFB8D808BE7
S1132D70918B81E0AA8DBB8D8C9311962D913C9102
S1132D8012972093A7423093A84213962D933C9315
S1132D90149720939F423093A04215968D919C9155
S1132DA016978093A3429093A44217968D939C9375
S1132DB0189780939B4290939C422093AB4230930C
S1132DC0AC422093AD423093AE422093AF42309355
S1132DD0B0428093B1429093B2428093B3429093B5
S1132DE0B4428093B5429093B642B12CD0C1409185
S1132DF09F425091A0424C155D0520F0BA016C1918
S1132E007D0903C0B601641B750B8415950520F07C
S1132E109C012419350903C09201281B390B260F84
S1132E20371F4415550518F04419550904C0F2011B
S1132E30E41BF50BAF018C159D0518F08C199D0949
S1132E4004C0B601681B790BCB01840F951FAA8DB2
S1132E50BB8D11966D917C911297432D8217930728
S1132E6058F4C2010E940A11EA8DFB8D818392837A
S1132E70432DB501C6010AC0C6010E940A11EA8D9C
S1132E80FB8D81839283432DB501C2010E940A11F7
S1132E90AA8DBB8D1C968D939C931D9780919B420C
S1132EA090919C428615970520F0AC01461957096C
S1132EB003C0A301481B590B8E149F0420F09401F6
S1132EC02E193F0903C0970128193909240F351F0A
S1132ED08E159F0518F08E199F0904C0F701E81B91
S1132EE0F90BCF018614970418F08618970804C0CC
S1132EF0A301481959094A01880E991EAA8DBB8D50
S1132F0015966D917C911697432D8216930660F465
S1132F10C7010E940A11EA8DFB8D85839683432D98
S1132F206B817C81C3010BC0C3010E940A11EA8D2D
S1132F30FB8D85839683432D6B817C81C7010E9421
S1132F400A11AA8DBB8D50968D939C9351974DCFAA
S1132F5091111FC029853A85EA8DFB8D218732871F
S1132F60618172814B2FC6010E940A11AA8DBB8D0B
S1132F7011968D939C93129715966D917C9116974B
S1132F80432DC3010E940A11EA8DFB8D858396832C
S1132F902CCFAA8DBB8D8C91811121C0E985FA8536
S1132FA05496ED93FC9355971C966D917C911D97C7
S1132FB0432DC6010E940A11AA8DBB8D1C968D93C8
S1132FC09C931D9750966D917C915197432DC3010D
S1132FD00E940A11EA8DFB8D808B918B06CF209184
S1132FE09F423091A0422C153D0518F02C193D0943
S1132FF004C0A601421B530B9A0180919B429091FD
S11330009C428615970518F08619970904C0B301E8
S1133010681B790BCB01280F391F8091A142909135
S1133020A2428C159D0520F0AC014C195D0903C02A
S1133030A601481B590B80919D4290919E42861592
S1133040970518F08619970904C0D301A81BB90B7A
S1133050CD01840F951F8217930700F5EA8DFB8D30
S113306064857585432DC6010E940A11AA8DBB8D06
S11330701C968D939C931D9750966D917C915197BE
S1133080432DC3010E940A11EA8DFB8D808B918B25
S113309029853A85248B358B1082A7CEAA8DBB8DCA
S11330A011966D917C911297432DC6010E940A11CD
S11330B0EA8DFB8D8183928365817681432DC301E3
S11330C00E940A11AA8DBB8D15968D939C93169719
S11330D0E985FA851996ED93FC931A971B961C9231
S11330E084CEF801C380D480E780F084418152818A
S11330F0A981BA8118968C9184FF05C060E08B2D5C
S11331000E946510AC01F80123813481908142173B
S1133110530708F04CC093FD43C0241B350BA98111
S1133120BA8117966C9170E062177307D0F1F801B9
S113313045815681A981BA8118968C9184FF05C076
S113314061E08B2D0E946510AC01F8012781308568
S113315090814217530708F04BC095FD42C0241BD1
S1133160350BA981BA8117966C9170E062177307C9
S1133170C8F1F80183819481C816D90609F452C0B4
S1133180B394055F1F4FF2E0BF1609F455C0D80190
S11331908C9180FDA6CF19961D921C921A97F0CFA0
S11331A0F801438354839B7F9A609083C0CF92FD40
S11331B012C0BA01621B730BA981BA8117962C91B4
S11331C030E02617370708F0B2CFF8014383548361
S11331D0977F9660EACF43835483977F966090836A
S11331E0A6CFF801478350879F7E92629083C1CF18
S11331F094FD12C0BA01621B730BA981BA811796A0
S11332002C9130E02617370708F0B3CFF801478335
S113321050879F7D9261EACF478350879F7D92615B
S11332209083A7CF87819085E816F90609F0A8CF87
S113323080818D7F8083A4CFAA8DBB8D13968D91C1
S11332409C9114978093A7429093A8421E968D91C7
S11332509C911F978093A9429093AA4217968D91AF
S11332609C9118978093A3429093A44252968D9177
S11332709C9153978093A5429093A64280E03CCAC8
S1133280780118861D86812C912CF3013197EE8BE1
S1133290FF8B2E893F89E216F30608F06ACA97016C
S11332A0452DB801C1010E94B5105C01881699062C
S11332B060F4242DA701B30189819A810E943B11F6
S11332C0882319F0E886FD864501FFEFEF1AFF0A0F
S11332D0E0CF6B96CDBFDEBFDF91CF911F910F91F1
S11332E0FF90EF90DF90CF90BF90AF909F908F9022
S11332F07F906F905F904F903F902F90089500972C
S1133300F9F0DC011296ED91FC9113973097C1F01E
S113331010821182128213821482158216821782FD
S113332010861186128613861486158616861786CD
S1133330108A118A128A138A148A158A80E00895E1
S11333408BE00895A091ED43B091EE4325E0AC01EC
S1133350249FC001259F900D11241496ED91FC919A
S11333601597E80FF91F818192818617970781F1DC
S11333708617970718F4681B790B04C09C01261B59
S1133380370BB901ED91FC918281803411F476956B
S1133390679565387105D0F466307105C8F0E3812E
S11333A0E073F0E083E0F695E7958A95E1F7E8515C
S11333B0FE4B80819181689F9001699F300D789FB9
S11333C0300D112481E0232B21F402C081E0089503
S11333D080E008958091C8429091C942A091ED4344
S11333E0B091EE43ED91FC9111974081518125E01C
S11333F0289FB001299F700D112420E030E084172C
S11334009507A8F41496ED91FC911597E20FF31F1C
S1133410E60FF71FE0812B5F3F4FE0FD02C00196EE
S1133420EECF8093C8429093C94280E008951092F1
S1133430C8421092C94281E00895AF92BF92CF92E0
S1133440DF92EF92FF920F931F93CF93DF937C0150
S1133450E091ED43F091EE4384E18E9DE0018F9D78
S1133460D00D1124A281B381AC0FBD1F18962C91ED
S1133470189719963C9119971A964C911A971B967E
S11334805C911B971C966C911C971D967C911D97C3
S11334901E968C911E971F969C912093F00708E02E
S11334A00E94F31F2093F1070E94F31F2093F20759
S11334B00E94F31F2093F3070E94F31F2093F40745
S11334C00E94F31F2093F5071092E007A081B181B9
S11334D012968C91803809F44FC0A281B381AC0F4D
S11334E0BD1FCC9011963C91119712964C91129756
S11334F013965C91139714966C91149715967C917E
S1133500159716968C91169717969C91C092E8077A
S11335102C2D0E94F31FD22E2093E9070E94F31F43
S1133520122F2093EA070E94F31FA22E2093EB0789
S11335300E94F31FB22E2093EC070E94F31F2093E6
S1133540ED0780819181DC0112968C91813821F400
S113355081E08093E00710C0823871F41092E00794
S1133560C092F807D092F9071093FA07A092FB07CC
S1133570B092FC072093FD0725E02E9DC0012F9DEE
S1133580900D1124A481B581A80FB91F13962D9114
S11335903C911497A90153704093E4075093E507B5
S11335A037FD03C01092CA0703C021E02093CA0765
S11335B0A481B581A80FB91F2C9121FF02C025E079
S11335C02C9324813581D901A80FB91F8C918C715A
S11335D069F4A281B381AC0FBD1F5296AC91A29540
S11335E0AF70B0E0A051BE4B8C9101C08FE18093CD
S11335F0E607A281B381AC0FBD1F50968C918B3727
S113360010F48C5F01C08FE78093C407A281B3815B
S1133610AC0FBD1F53968C918093C707A281B381D1
S1133620AC0FBD1F51968C9182958F708093C90702
S113363082819381C80FD91F89898F708068809394
S1133640C20781E88093C00781E08093D007DF91AF
S1133650CF911F910F91FF90EF90DF90CF90BF908B
S1133660AF9008952F923F924F925F926F927F9204
S11336708F929F92AF92BF92CF92DF92EF92FF927E
S11336800F931F93CF93DF93CDB7DEB72797CDBFAB
S1133690DEBF8091C742882309F446C20091ED43FE
S11336A01091EE432091EF433091F0432A833B8302
S11336B0C12CD12CA12CB12C212C312C19824424C5
S11336C04A945524539477247394D8010D90BC9153
S11336D0A02DAE83BF838D919C912816390608F0E6
S11336E01FC2AA81BB814D915D91AA83BB83F8015E
S11336F0E480F580EA0CFB1CD7012C91822F8C719D
S113370090E096958795969587958230910509F472
S1133710A0C128F4009759F0019701F1F7C1833053
S1133720910509F459C1049709F4E1C0EFC102807D
S1133730F381E02DEC0DFD1D92899F70838998170C
S113374010F4891B01C080E09A0102C036952795C8
S11337508A95E2F7F70121833283D8C1828193816C
S1133760FC01EC0DFD1D4A01038802C09694879468
S11337700A94E2F7D70111968D929C9212971396B0
S11337808D919C911497692F661F6627661F81147B
S1133790B2E09B0630F03FEF831A31E0930A41E038
S11337A005C0A201481959094A0140E0969487943A
S11337B0AE81BF8112963C91303429F0442309F440
S11337C0B6C1462F06C097FF04C031E0411130E076
S11337D0432FBAE08B16910408F03FC026FD3AC08F
S11337E027FD94C1AE81BF8113968C918370833081
S11337F059F4BFE7B08BD8011496ED91FC9115975D
S1133800EA0DFB1DB1E10DC0823069F48189807F2E
S1133810818BD8011496ED91FC911597EA0DFB1D4F
S1133820B9E0B08373C18130A9F481898F70818B31
S1133830D8011296ED91FC911397EC0DFD1D818931
S11338408067818B1496ED91FC911597EA0DFB1D11
S1133850BDE0E7CFF701708259C19C0133702F3F5F
S1133860F3E03F0731F4E1E8D701EC938FEF93E005
S11338700BC02115310559F497FF25C0E1E8D701A4
S1133880EC9380E090E061E0FEE0F9831FC0C901A1
S113389041110FC0019621E0821A910831E083168C
S11338A09104A1F08F3F43E09407A1F70FC0009764
S11338B069F00197AC01421B530B480D591D41306F
S11338C05105A9F703C080EF90E061E0D801149698
S11338D0ED91FC911597EA0DFB1D70E07727669535
S11338E077956627862B972B838394830FC1F801E2
S11338F0828093808C0C9D1CFA01D40153960C9009
S1133900539702C0F695E7950A94E2F7EC83FD839A
S113391050966C90FFE76F120FC0EC81FD81D701C8
S11339201196ED93FC931297D40150968C91509775
S11339308F7B50968C9342C0F12C262D30E0C90128
S11339400F2C02C0969587950A94E2F780FF03C076
S11339508F2DF12C01C087E08F5F873010F4F82E93
S1133960EECF6C817D81C1010E94A219882351F0A0
S113397081E090E00F2C01C0880F0A94EAF78629B1
S1133980F401808BD801FF2091F01296ED91FC9107
S11339901397EC0DFD1DFA9481E090E001C0880FAF
S11339A0FA94EAF7809590898923808B07C014964E
S11339B0ED91FC911597EA0DFB1D7082D8011496C8
S11339C0ED91FC911597EA0DFB1D8081813009F082
S11339D09DC02C813D8183C00280F381E02DEC0DDC
S11339E0FD1D9A01038802C0369527950A94E2F7D3
S11339F02C833D83918892942FE0922237E0931692
S1133A0091F06C817D81C1010E94A219811104C0D1
S1133A109394D7017C9209C0911003C0F70170827E
S1133A2004C09A9402C096E0992ED8011296ED91A2
S1133A30FC911397EC0DFD1D81898F70818B12967B
S1133A40ED91FC911397EC0DFD1D929480EF98225B
S1133A5036C00280F381E02DEC0DFD1D9A01038830
S1133A6002C0369527950A94E2F72C833D83818919
S1133A708F70982E91F0B901C1010E94A219811191
S1133A8004C09A94D7017C920AC0B7E09B1203C089
S1133A90F701708204C0939402C099249394D801CE
S1133AA01296ED91FC911397EC0DFD1D8189807F99
S1133AB0818B1296ED91FC911397EC0DFD1D81897C
S1133AC0982A918A1496ED91FC911597EA0DFB1DA5
S1133AD02C813D812183328380818130B9F4211589
S1133AE042E0340728F02F5F31402C833D8307C028
S1133AF0C201AC81BD818A1B9B0B8C839D832C816D
S1133B003D812B30310510F035E430834FEF241A1A
S1133B10340A55E0A50EB11C84E1C80ED11CD5CDE4
S1133B2082E08093C74209C0B3E0B98306C0492F3D
S1133B304095441F4427441F4CCE89812796CDBF0E
S1133B40DEBFDF91CF911F910F91FF90EF90DF9037
S1133B50CF90BF90AF909F908F907F906F905F9029
S1133B604F903F902F9008955F926F927F928F9223
S1133B709F92AF92BF92CF92DF92EF92FF920F93F8
S1133B801F93CF93DF93009709F492C0DC01ED916A
S1133B90FC916081718140E050E020E030E0B0E0D1
S1133BA010E0F12CE12C912C812C712C612C261726
S1133BB0370751F1EC01EA81FB81E40FF51FA08086
S1133BC0A085AA2AB180A185BA2AC280A285CA2A60
S1133BD0D380A385DA2AD481A485DA2BC581A5856F
S1133BE0CA2B5680A685A5295780E785E529BA29D9
S1133BF01B29FC28ED289D2A8C2A7A2A6E2A2F5FFD
S1133C003F4F4C5E5F4FD3CF2B2F312F4F2D5E2D67
S1133C10692D782D872D962DA0E00E940F2009F4A0
S1133C2049C081E08093C74223E0C22E22E4D22E11
S1133C30C0E0D0E0AA24A394B12C4CE0542E2B2F46
S1133C40312F4F2D5E2D692D782D872D962D0C2F1C
S1133C500E94F31F217030E040E050E060E070E02B
S1133C6080E090E0A0E00E940F20C9F0F60180817E
S1133C70E82FE295E695E770F0E0EE0FFF1FEB50BA
S1133C80FE4B0190F081E02D8F71950102C0220F4F
S1133C90331F8A95E2F7228326835386258721964C
S1133CA03FEFC31AD30AC033D10549F680E003C0FD
S1133CB08BE001C082E0DF91CF911F910F91FF90C3
S1133CC0EF90DF90CF90BF90AF909F908F907F90B8
S1133CD06F905F900895009731F08093EF43909335
S1133CE0F04380E008958BE008956115710561F15A
S1133CF0009751F12091C742222341F1243041F130
S1133D008093ED439093EE436093C5427093C64213
S1133D10DC01ED91FC912281203419F41092C10749
S1133D2007C0203811F0213831F421E02093C10775
S1133D301092CB0711C0223869F421E02093C10707
S1133D4029E02093CB0708C08BE0089583E0089511
S1133D5081E0089582E008951092C007DC01ED919E
S1133D60FC9184819281903451F41092C507803182
S1133D7010F4806201C08FE28093C30708C090E210
S1133D809093C3078F3008F08FE08093C50781E0DC
S1133D908093D3078093D2078093FB401092C8424C
S1133DA01092C9420E94EA1981110BC084E08093E9
S1133DB0C7428091C8429091C9420E941D1A80E076
S1133DC0089582E08093C74208950097C9F0DC010A
S1133DD0ED91FC911197208131812617370790F0DE
S1133DE045E0469F9001479F300D11241496ED91B4
S1133DF0FC911597E20FF31F81E0808380E0089522
S1133E008BE0089582E00895FC01892BD1F1A08113
S1133E10B1818D919C91119786179707A0F1129605
S1133E209C910480F581E02D903459F485E0869FBF
S1133E30D001879FB00D1124AE0FBF1F80EA90E020
S1133E400DC09058933080F485E0869FD001879F01
S1133E50B00D1124AE0FBF1F80EF90E013968D9329
S1133E609C93149780E001C082E095E0969F9001B6
S1133E70979F300D1124E20FF31F9081926090837D
S1133E8008958BE0089582E008952091DA07309137
S1133E90DB076091C8427091C942CB01880F991F1A
S1133EA0E091EF43F091F043E80FF91F2083318351
S1133EB0A091ED43B091EE4344E1469FC001479F7A
S1133EC0900D11241296ED91FC911397E80FF91FB0
S1133ED092899F708389981710F4891B01C080E030
S1133EE095E0969FA001979F500D11241496ED9193
S1133EF0FC911597E40FF51F02C0369527958A9516
S1133F00E2F72183328382E08093C742E091C34287
S1133F10F091C44209941092C0078091FB40813013
S1133F2009F04EC04091DA075091DB078091C842F6
S1133F309091C9429C01220F331FE091EF43F0910D
S1133F40F043E20FF31F4083518301968093C842EC
S1133F509093C9420E94EA19811109C084E08093B8
S1133F60C7428091C8429091C9420C941D1A109284
S1133F70E8071092E9071092EA071092EB071092F3
S1133F80EC071092ED071092F0071092F1071092CF
S1133F90F2071092F3071092F4071092F5071092AB
S1133FA0F8071092F9071092FA071092FB07109283
S1133FB0FC071092FD07E091C542F091C6420994B6
S1133FC00C94451FA29FB001B39FC001A39F700D25
S1133FD0811D1124911DB29F700D811D1124911D0D
S1133FE0089597FB10F8169400080F93083098F082
S1133FF00850232F342F452F562F672F782F892FC2
S1134000902DF4CF05949795879577956795579557
S11340104795379527950A95AAF70F910895002497
S1134020A7FD00942A17300540055005600570056A
S10D4030800590050895F894FFCF71
S113403A02000030000301001464461E28001432F2
S113404A00010202969603034014140A000A0008A7
S113405A01C2432540AF43B343AC43BA43BE43B75B
S113406A43081464461E2800143200010202967A98
S113407A43AC4345400300030000038103133C009F
S113408AC5437B436C40C5435A40140101140101E2
S113409A14010114010114010114010106000400B0
S11340AA050014051401F4407C4082430700000013
S11340BA00000000200000000000000000050004C9
S11340CA07000000000000001000000000000000CB
S11340DA00050004070000000000000008000000BA
S11340EA0000000000050004380000000000000081
S11340FA040000000000000000050004380000006D
S113410A0000000002000000000000000005000496
S113411A3800000000000000010000000000000058
S113412A000500040600403000F0010110200000E0
S113413AF0FFFFFF8F000010208000F0FFFFFF90C8
S113414A000010202080F0FFFFFF9000001080A0E4
S113415A90F0FFFFFFD0010012305020F2FFFFFF62
S113416A110000123050A0F2FFFFFF1301011030BA
S113417A5020F0FFFFFF100000103050A0F0FFFFA6
S113418AFF12010111325220F1FFFFFF2100001139
S113419A3252A0F1FFFFFF23010110325220F0FF37
S11341AAFFFF200000103252A0F0FFFFFF2201019E
S11341BA18335320F8FFFFFF310000183353A0F8D7
S11341CAFFFFFF33010110335320F0FFFFFF3000DC
S11341DA00103353A0F0FFFFFF32010114315120C4
S11341EAF4FFFFFF410000143151A0F4FFFFFF4325
S11341FA010110315120F0FFFFFF4000001031513E
S113420AA0F0FFFFFF4201010001020301010101C5
S113421A02010202030102030700130035009000A1
S113422A1F0F07030100042004400460048004A053
S113423A04C00400010203040506072021222324E2
S113424A2526276061626364656667808182838448
S113425A858687A0A1A2A3A4A5A6A7C0C1C2C3C4D8
S107426AC5C6C700FA
S9030000FC
